{
  "_format": "hh-sol-artifact-1",
  "contractName": "MockStakeWiseWagerService",
  "sourceName": "contracts/test/MockStakeWiseWagerService.sol",
  "abi": [
    {
      "inputs": [
        {
          "internalType": "uint256",
          "name": "id",
          "type": "uint256"
        }
      ],
      "name": "findGameById",
      "outputs": [
        {
          "components": [
            {
              "internalType": "string",
              "name": "description",
              "type": "string"
            },
            {
              "internalType": "string",
              "name": "name",
              "type": "string"
            },
            {
              "internalType": "string",
              "name": "url",
              "type": "string"
            },
            {
              "internalType": "string",
              "name": "image",
              "type": "string"
            },
            {
              "internalType": "uint256",
              "name": "eventId",
              "type": "uint256"
            },
            {
              "internalType": "uint256",
              "name": "eventDate",
              "type": "uint256"
            },
            {
              "internalType": "string",
              "name": "datasource",
              "type": "string"
            },
            {
              "internalType": "bool",
              "name": "active",
              "type": "bool"
            }
          ],
          "internalType": "struct IStakeWiseWagerService.Games",
          "name": "",
          "type": "tuple"
        }
      ],
      "stateMutability": "view",
      "type": "function"
    },
    {
      "inputs": [
        {
          "internalType": "uint256",
          "name": "",
          "type": "uint256"
        }
      ],
      "name": "gameIdMapping",
      "outputs": [
        {
          "internalType": "uint256",
          "name": "result",
          "type": "uint256"
        }
      ],
      "stateMutability": "view",
      "type": "function"
    },
    {
      "inputs": [],
      "name": "roundToNearestFiveMinutes",
      "outputs": [
        {
          "internalType": "uint256",
          "name": "",
          "type": "uint256"
        }
      ],
      "stateMutability": "view",
      "type": "function"
    },
    {
      "inputs": [
        {
          "internalType": "uint256",
          "name": "game",
          "type": "uint256"
        },
        {
          "internalType": "uint256",
          "name": "result",
          "type": "uint256"
        }
      ],
      "name": "updateGameResult",
      "outputs": [],
      "stateMutability": "nonpayable",
      "type": "function"
    },
    {
      "inputs": [
        {
          "internalType": "uint256[]",
          "name": "games",
          "type": "uint256[]"
        },
        {
          "internalType": "uint256",
          "name": "result",
          "type": "uint256"
        }
      ],
      "name": "updateGameResults",
      "outputs": [],
      "stateMutability": "nonpayable",
      "type": "function"
    }
  ],
  "bytecode": "0x608060405234801561001057600080fd5b506107f7806100206000396000f3fe608060405234801561001057600080fd5b50600436106100575760003560e01c8063108014741461005c57806398675133146100785780639f42434a14610094578063b5aa9683146100c4578063f24f9459146100e2575b600080fd5b61007660048036038101906100719190610262565b610112565b005b610092600480360381019061008d91906103fb565b61012d565b005b6100ae60048036038101906100a99190610457565b610180565b6040516100bb9190610493565b60405180910390f35b6100cc610198565b6040516100d99190610493565b60405180910390f35b6100fc60048036038101906100f79190610457565b6101c4565b6040516101099190610623565b60405180910390f35b80600080848152602001908152602001600020819055505050565b60005b825181101561017b57816000808584815181106101505761014f610645565b5b602002602001015181526020019081526020016000208190555080610174906106a3565b9050610130565b505050565b60006020528060005260406000206000915090505481565b600061012c806096426101ab91906106eb565b6101b5919061074e565b6101bf919061077f565b905090565b6101cc6101d1565b919050565b604051806101000160405280606081526020016060815260200160608152602001606081526020016000815260200160008152602001606081526020016000151581525090565b6000604051905090565b600080fd5b600080fd5b6000819050919050565b61023f8161022c565b811461024a57600080fd5b50565b60008135905061025c81610236565b92915050565b6000806040838503121561027957610278610222565b5b60006102878582860161024d565b92505060206102988582860161024d565b9150509250929050565b600080fd5b6000601f19601f8301169050919050565b7f4e487b7100000000000000000000000000000000000000000000000000000000600052604160045260246000fd5b6102f0826102a7565b810181811067ffffffffffffffff8211171561030f5761030e6102b8565b5b80604052505050565b6000610322610218565b905061032e82826102e7565b919050565b600067ffffffffffffffff82111561034e5761034d6102b8565b5b602082029050602081019050919050565b600080fd5b600061037761037284610333565b610318565b9050808382526020820190506020840283018581111561039a5761039961035f565b5b835b818110156103c357806103af888261024d565b84526020840193505060208101905061039c565b5050509392505050565b600082601f8301126103e2576103e16102a2565b5b81356103f2848260208601610364565b91505092915050565b6000806040838503121561041257610411610222565b5b600083013567ffffffffffffffff8111156104305761042f610227565b5b61043c858286016103cd565b925050602061044d8582860161024d565b9150509250929050565b60006020828403121561046d5761046c610222565b5b600061047b8482850161024d565b91505092915050565b61048d8161022c565b82525050565b60006020820190506104a86000830184610484565b92915050565b600081519050919050565b600082825260208201905092915050565b60005b838110156104e85780820151818401526020810190506104cd565b60008484015250505050565b60006104ff826104ae565b61050981856104b9565b93506105198185602086016104ca565b610522816102a7565b840191505092915050565b6105368161022c565b82525050565b60008115159050919050565b6105518161053c565b82525050565b600061010083016000830151848203600086015261057582826104f4565b9150506020830151848203602086015261058f82826104f4565b915050604083015184820360408601526105a982826104f4565b915050606083015184820360608601526105c382826104f4565b91505060808301516105d8608086018261052d565b5060a08301516105eb60a086018261052d565b5060c083015184820360c086015261060382826104f4565b91505060e083015161061860e0860182610548565b508091505092915050565b6000602082019050818103600083015261063d8184610557565b905092915050565b7f4e487b7100000000000000000000000000000000000000000000000000000000600052603260045260246000fd5b7f4e487b7100000000000000000000000000000000000000000000000000000000600052601160045260246000fd5b60006106ae8261022c565b91507fffffffffffffffffffffffffffffffffffffffffffffffffffffffffffffffff82036106e0576106df610674565b5b600182019050919050565b60006106f68261022c565b91506107018361022c565b925082820190508082111561071957610718610674565b5b92915050565b7f4e487b7100000000000000000000000000000000000000000000000000000000600052601260045260246000fd5b60006107598261022c565b91506107648361022c565b9250826107745761077361071f565b5b828204905092915050565b600061078a8261022c565b91506107958361022c565b92508282026107a38161022c565b915082820484148315176107ba576107b9610674565b5b509291505056fea2646970667358221220eded3d46ceea1df6447e19156d948245ec1bb9e93fb3e3a1c6e0dfad20a0d48264736f6c63430008140033",
  "linkReferences": {},
  "deployedLinkReferences": {}
}