{
  "_format": "hh-sol-artifact-1",
  "contractName": "ChainlinkTokenEscrowServiceOverride",
  "sourceName": "contracts/test/MockCTES.sol",
  "abi": [
    {
      "inputs": [
        {
          "internalType": "address",
          "name": "router",
          "type": "address"
        },
        {
          "internalType": "address",
          "name": "link",
          "type": "address"
        },
        {
          "internalType": "address",
          "name": "claimNote",
          "type": "address"
        },
        {
          "internalType": "address",
          "name": "whitelist",
          "type": "address"
        }
      ],
      "stateMutability": "nonpayable",
      "type": "constructor"
    },
    {
      "inputs": [
        {
          "internalType": "address",
          "name": "router",
          "type": "address"
        }
      ],
      "name": "InvalidRouter",
      "type": "error"
    },
    {
      "inputs": [
        {
          "internalType": "address",
          "name": "owner",
          "type": "address"
        }
      ],
      "name": "OwnableInvalidOwner",
      "type": "error"
    },
    {
      "inputs": [
        {
          "internalType": "address",
          "name": "account",
          "type": "address"
        }
      ],
      "name": "OwnableUnauthorizedAccount",
      "type": "error"
    },
    {
      "anonymous": false,
      "inputs": [
        {
          "indexed": false,
          "internalType": "bytes32",
          "name": "messageId",
          "type": "bytes32"
        }
      ],
      "name": "MessageSent",
      "type": "event"
    },
    {
      "anonymous": false,
      "inputs": [
        {
          "indexed": true,
          "internalType": "address",
          "name": "previousOwner",
          "type": "address"
        },
        {
          "indexed": true,
          "internalType": "address",
          "name": "newOwner",
          "type": "address"
        }
      ],
      "name": "OwnershipTransferred",
      "type": "event"
    },
    {
      "inputs": [
        {
          "components": [
            {
              "internalType": "bytes32",
              "name": "messageId",
              "type": "bytes32"
            },
            {
              "internalType": "uint64",
              "name": "sourceChainSelector",
              "type": "uint64"
            },
            {
              "internalType": "bytes",
              "name": "sender",
              "type": "bytes"
            },
            {
              "internalType": "bytes",
              "name": "data",
              "type": "bytes"
            },
            {
              "components": [
                {
                  "internalType": "address",
                  "name": "token",
                  "type": "address"
                },
                {
                  "internalType": "uint256",
                  "name": "amount",
                  "type": "uint256"
                }
              ],
              "internalType": "struct Client.EVMTokenAmount[]",
              "name": "destTokenAmounts",
              "type": "tuple[]"
            }
          ],
          "internalType": "struct Client.Any2EVMMessage",
          "name": "message",
          "type": "tuple"
        }
      ],
      "name": "ccipReceive",
      "outputs": [],
      "stateMutability": "nonpayable",
      "type": "function"
    },
    {
      "inputs": [
        {
          "internalType": "address",
          "name": "",
          "type": "address"
        }
      ],
      "name": "depositedEth",
      "outputs": [
        {
          "internalType": "uint256",
          "name": "",
          "type": "uint256"
        }
      ],
      "stateMutability": "view",
      "type": "function"
    },
    {
      "inputs": [
        {
          "internalType": "address",
          "name": "operator",
          "type": "address"
        },
        {
          "internalType": "address",
          "name": "from",
          "type": "address"
        },
        {
          "internalType": "uint256",
          "name": "tokenId",
          "type": "uint256"
        },
        {
          "components": [
            {
              "internalType": "uint64",
              "name": "sourceChainSelector",
              "type": "uint64"
            },
            {
              "internalType": "enum ChainlinkTokenEscrowService.PayFeesIn",
              "name": "payFeesIn",
              "type": "uint8"
            }
          ],
          "internalType": "struct ChainlinkTokenEscrowService.CTESMessage",
          "name": "ctesMessage",
          "type": "tuple"
        },
        {
          "internalType": "bool",
          "name": "isClaim",
          "type": "bool"
        }
      ],
      "name": "getChainlinkMessage",
      "outputs": [
        {
          "components": [
            {
              "internalType": "bytes",
              "name": "receiver",
              "type": "bytes"
            },
            {
              "internalType": "bytes",
              "name": "data",
              "type": "bytes"
            },
            {
              "components": [
                {
                  "internalType": "address",
                  "name": "token",
                  "type": "address"
                },
                {
                  "internalType": "uint256",
                  "name": "amount",
                  "type": "uint256"
                }
              ],
              "internalType": "struct Client.EVMTokenAmount[]",
              "name": "tokenAmounts",
              "type": "tuple[]"
            },
            {
              "internalType": "address",
              "name": "feeToken",
              "type": "address"
            },
            {
              "internalType": "bytes",
              "name": "extraArgs",
              "type": "bytes"
            }
          ],
          "internalType": "struct Client.EVM2AnyMessage",
          "name": "",
          "type": "tuple"
        }
      ],
      "stateMutability": "view",
      "type": "function"
    },
    {
      "inputs": [
        {
          "internalType": "uint64",
          "name": "sourceChainSelector",
          "type": "uint64"
        },
        {
          "internalType": "enum ChainlinkTokenEscrowService.PayFeesIn",
          "name": "fees",
          "type": "uint8"
        }
      ],
      "name": "getEncoded",
      "outputs": [
        {
          "internalType": "bytes",
          "name": "",
          "type": "bytes"
        }
      ],
      "stateMutability": "pure",
      "type": "function"
    },
    {
      "inputs": [
        {
          "internalType": "address",
          "name": "operator",
          "type": "address"
        },
        {
          "internalType": "address",
          "name": "from",
          "type": "address"
        },
        {
          "internalType": "uint256",
          "name": "tokenId",
          "type": "uint256"
        },
        {
          "internalType": "bytes",
          "name": "data",
          "type": "bytes"
        }
      ],
      "name": "getFeeEstimate",
      "outputs": [
        {
          "internalType": "uint256",
          "name": "",
          "type": "uint256"
        }
      ],
      "stateMutability": "view",
      "type": "function"
    },
    {
      "inputs": [
        {
          "internalType": "address",
          "name": "from",
          "type": "address"
        },
        {
          "internalType": "uint256",
          "name": "tokenId",
          "type": "uint256"
        }
      ],
      "name": "getFeeEstimateForClaim",
      "outputs": [
        {
          "internalType": "uint256",
          "name": "",
          "type": "uint256"
        }
      ],
      "stateMutability": "view",
      "type": "function"
    },
    {
      "inputs": [],
      "name": "getRouter",
      "outputs": [
        {
          "internalType": "address",
          "name": "",
          "type": "address"
        }
      ],
      "stateMutability": "view",
      "type": "function"
    },
    {
      "inputs": [
        {
          "internalType": "address",
          "name": "",
          "type": "address"
        },
        {
          "internalType": "address",
          "name": "from",
          "type": "address"
        },
        {
          "internalType": "uint256",
          "name": "tokenId",
          "type": "uint256"
        },
        {
          "internalType": "bytes",
          "name": "data",
          "type": "bytes"
        }
      ],
      "name": "onERC721Received",
      "outputs": [
        {
          "internalType": "bytes4",
          "name": "",
          "type": "bytes4"
        }
      ],
      "stateMutability": "nonpayable",
      "type": "function"
    },
    {
      "inputs": [
        {
          "internalType": "uint64",
          "name": "sourceChainSelector",
          "type": "uint64"
        },
        {
          "internalType": "bytes",
          "name": "sender",
          "type": "bytes"
        },
        {
          "internalType": "bytes",
          "name": "data",
          "type": "bytes"
        }
      ],
      "name": "override_ccipReceive",
      "outputs": [],
      "stateMutability": "nonpayable",
      "type": "function"
    },
    {
      "inputs": [],
      "name": "owner",
      "outputs": [
        {
          "internalType": "address",
          "name": "",
          "type": "address"
        }
      ],
      "stateMutability": "view",
      "type": "function"
    },
    {
      "inputs": [],
      "name": "renounceOwnership",
      "outputs": [],
      "stateMutability": "nonpayable",
      "type": "function"
    },
    {
      "inputs": [
        {
          "internalType": "bytes4",
          "name": "interfaceId",
          "type": "bytes4"
        }
      ],
      "name": "supportsInterface",
      "outputs": [
        {
          "internalType": "bool",
          "name": "",
          "type": "bool"
        }
      ],
      "stateMutability": "pure",
      "type": "function"
    },
    {
      "inputs": [
        {
          "internalType": "address",
          "name": "newOwner",
          "type": "address"
        }
      ],
      "name": "transferOwnership",
      "outputs": [],
      "stateMutability": "nonpayable",
      "type": "function"
    },
    {
      "stateMutability": "payable",
      "type": "receive"
    }
  ],
  "bytecode": "0x6101006040523480156200001257600080fd5b5060405162002d1538038062002d158339818101604052810190620000389190620003ef565b838383833384600073ffffffffffffffffffffffffffffffffffffffff168173ffffffffffffffffffffffffffffffffffffffff1603620000b35760006040517fd7f73334000000000000000000000000000000000000000000000000000000008152600401620000aa919062000472565b60405180910390fd5b8073ffffffffffffffffffffffffffffffffffffffff1660808173ffffffffffffffffffffffffffffffffffffffff168152505050600073ffffffffffffffffffffffffffffffffffffffff168173ffffffffffffffffffffffffffffffffffffffff16036200015d5760006040517f1e4fbdf700000000000000000000000000000000000000000000000000000000815260040162000154919062000472565b60405180910390fd5b6200016e81620002c160201b60201c565b508273ffffffffffffffffffffffffffffffffffffffff1660a08173ffffffffffffffffffffffffffffffffffffffff16815250508173ffffffffffffffffffffffffffffffffffffffff1660c08173ffffffffffffffffffffffffffffffffffffffff168152505060a05173ffffffffffffffffffffffffffffffffffffffff1663095ea7b36080517fffffffffffffffffffffffffffffffffffffffffffffffffffffffffffffffff6040518363ffffffff1660e01b815260040162000238929190620004aa565b6020604051808303816000875af115801562000258573d6000803e3d6000fd5b505050506040513d601f19601f820116820180604052508101906200027e919062000514565b508073ffffffffffffffffffffffffffffffffffffffff1660e08173ffffffffffffffffffffffffffffffffffffffff1681525050505050505050505062000546565b60008060009054906101000a900473ffffffffffffffffffffffffffffffffffffffff169050816000806101000a81548173ffffffffffffffffffffffffffffffffffffffff021916908373ffffffffffffffffffffffffffffffffffffffff1602179055508173ffffffffffffffffffffffffffffffffffffffff168173ffffffffffffffffffffffffffffffffffffffff167f8be0079c531659141344cd1fd0a4f28419497f9722a3daafe3b4186f6b6457e060405160405180910390a35050565b600080fd5b600073ffffffffffffffffffffffffffffffffffffffff82169050919050565b6000620003b7826200038a565b9050919050565b620003c981620003aa565b8114620003d557600080fd5b50565b600081519050620003e981620003be565b92915050565b600080600080608085870312156200040c576200040b62000385565b5b60006200041c87828801620003d8565b94505060206200042f87828801620003d8565b93505060406200044287828801620003d8565b92505060606200045587828801620003d8565b91505092959194509250565b6200046c81620003aa565b82525050565b600060208201905062000489600083018462000461565b92915050565b6000819050919050565b620004a4816200048f565b82525050565b6000604082019050620004c1600083018562000461565b620004d0602083018462000499565b9392505050565b60008115159050919050565b620004ee81620004d7565b8114620004fa57600080fd5b50565b6000815190506200050e81620004e3565b92915050565b6000602082840312156200052d576200052c62000385565b5b60006200053d84828501620004fd565b91505092915050565b60805160a05160c05160e05161275d620005b860003960006104c80152600081816105ab0152818161061001528181610ee501526112b001526000610cdc0152600081816106b9015281816107db0152818161099c01528181610a6001528181610b300152610e30015261275d6000f3fe6080604052600436106100c65760003560e01c80638da5cb5b1161007f578063d671952711610059578063d671952714610312578063f2fde38b1461034f578063f33a589d14610378578063f3b57fa2146103b55761015a565b80638da5cb5b14610293578063b0f479a1146102be578063d4a94045146102e95761015a565b806301ffc9a71461015f578063150b7a021461019c5780631eb692d7146101d9578063644fefd014610216578063715018a61461025357806385572ffb1461026a5761015a565b3661015a5734600160003373ffffffffffffffffffffffffffffffffffffffff1673ffffffffffffffffffffffffffffffffffffffff168152602001908152602001600020546101169190611443565b600160003373ffffffffffffffffffffffffffffffffffffffff1673ffffffffffffffffffffffffffffffffffffffff168152602001908152602001600020819055005b600080fd5b34801561016b57600080fd5b50610186600480360381019061018191906114e3565b6103f2565b604051610193919061152b565b60405180910390f35b3480156101a857600080fd5b506101c360048036038101906101be9190611716565b6104c4565b6040516101d091906117a8565b60405180910390f35b3480156101e557600080fd5b5061020060048036038101906101fb91906117c3565b610955565b60405161020d91906117ff565b60405180910390f35b34801561022257600080fd5b5061023d60048036038101906102389190611716565b61096d565b60405161024a91906117ff565b60405180910390f35b34801561025f57600080fd5b50610268610a4a565b005b34801561027657600080fd5b50610291600480360381019061028c919061183e565b610a5e565b005b34801561029f57600080fd5b506102a8610b03565b6040516102b59190611896565b60405180910390f35b3480156102ca57600080fd5b506102d3610b2c565b6040516102e09190611896565b60405180910390f35b3480156102f557600080fd5b50610310600480360381019061030b91906118f1565b610b54565b005b34801561031e57600080fd5b5061033960048036038101906103349190611a27565b610b9d565b6040516103469190611ca8565b60405180910390f35b34801561035b57600080fd5b50610376600480360381019061037191906117c3565b610d39565b005b34801561038457600080fd5b5061039f600480360381019061039a9190611cca565b610dbf565b6040516103ac9190611d54565b60405180910390f35b3480156103c157600080fd5b506103dc60048036038101906103d79190611d76565b610e19565b6040516103e991906117ff565b60405180910390f35b60007f85572ffb000000000000000000000000000000000000000000000000000000007bffffffffffffffffffffffffffffffffffffffffffffffffffffffff1916827bffffffffffffffffffffffffffffffffffffffffffffffffffffffff191614806104bd57507f01ffc9a7000000000000000000000000000000000000000000000000000000007bffffffffffffffffffffffffffffffffffffffffffffffffffffffff1916827bffffffffffffffffffffffffffffffffffffffffffffffffffffffff1916145b9050919050565b60007f000000000000000000000000000000000000000000000000000000000000000073ffffffffffffffffffffffffffffffffffffffff16633af32abf336040518263ffffffff1660e01b815260040161051f9190611896565b602060405180830381865afa15801561053c573d6000803e3d6000fd5b505050506040513d601f19601f820116820180604052508101906105609190611dcb565b61059f576040517f08c379a000000000000000000000000000000000000000000000000000000000815260040161059690611e55565b60405180910390fd5b6105a7611359565b60007f000000000000000000000000000000000000000000000000000000000000000073ffffffffffffffffffffffffffffffffffffffff163373ffffffffffffffffffffffffffffffffffffffff16036106a0576106068686610ed8565b80925081935050507f000000000000000000000000000000000000000000000000000000000000000073ffffffffffffffffffffffffffffffffffffffff1663aad3ec9687876040518363ffffffff1660e01b8152600401610669929190611e75565b600060405180830381600087803b15801561068357600080fd5b505af1158015610697573d6000803e3d6000fd5b505050506106b5565b6106ac3387878761102e565b80925081935050505b60007f000000000000000000000000000000000000000000000000000000000000000073ffffffffffffffffffffffffffffffffffffffff166320487ded83856040518363ffffffff1660e01b8152600401610712929190611ead565b602060405180830381865afa15801561072f573d6000803e3d6000fd5b505050506040513d601f19601f820116820180604052508101906107539190611ef2565b905080600160008973ffffffffffffffffffffffffffffffffffffffff1673ffffffffffffffffffffffffffffffffffffffff1681526020019081526020016000205410156107d7576040517f08c379a00000000000000000000000000000000000000000000000000000000081526004016107ce90611f6b565b60405180910390fd5b60007f000000000000000000000000000000000000000000000000000000000000000073ffffffffffffffffffffffffffffffffffffffff166396f4e9f98385876040518463ffffffff1660e01b8152600401610835929190611ead565b60206040518083038185885af1158015610853573d6000803e3d6000fd5b50505050506040513d601f19601f820116820180604052508101906108789190611fc1565b90507f54791b38f3859327992a1ca0590ad3c0f08feba98d1a4f56ab0dca74d203392a816040516108a99190611ffd565b60405180910390a181600160008a73ffffffffffffffffffffffffffffffffffffffff1673ffffffffffffffffffffffffffffffffffffffff168152602001908152602001600020546108fc9190612018565b600160008a73ffffffffffffffffffffffffffffffffffffffff1673ffffffffffffffffffffffffffffffffffffffff1681526020019081526020016000208190555063150b7a0260e01b945050505050949350505050565b60016020528060005260406000206000915090505481565b6000808280602001905181019061098491906120c6565b90506000610996878787856000610b9d565b905060007f000000000000000000000000000000000000000000000000000000000000000073ffffffffffffffffffffffffffffffffffffffff166320487ded8460000151846040518363ffffffff1660e01b81526004016109f9929190611ead565b602060405180830381865afa158015610a16573d6000803e3d6000fd5b505050506040513d601f19601f82011682018060405250810190610a3a9190611ef2565b9050809350505050949350505050565b610a526110b4565b610a5c600061113b565b565b7f000000000000000000000000000000000000000000000000000000000000000073ffffffffffffffffffffffffffffffffffffffff163373ffffffffffffffffffffffffffffffffffffffff1614610aee57336040517fd7f73334000000000000000000000000000000000000000000000000000000008152600401610ae59190611896565b60405180910390fd5b610b0081610afb90612300565b6111ff565b50565b60008060009054906101000a900473ffffffffffffffffffffffffffffffffffffffff16905090565b60007f0000000000000000000000000000000000000000000000000000000000000000905090565b610b5c61139e565b83816020019067ffffffffffffffff16908167ffffffffffffffff1681525050828160400181905250818160600181905250610b97816111ff565b50505050565b610ba5611359565b60006040518060a0016040528087604051602001610bc39190611896565b604051602081830303815290604052815260200160405180608001604052808a73ffffffffffffffffffffffffffffffffffffffff1681526020018881526020018973ffffffffffffffffffffffffffffffffffffffff168152602001861515815250604051602001610c369190612377565b6040516020818303038152906040528152602001600067ffffffffffffffff811115610c6557610c646115eb565b5b604051908082528060200260200182016040528015610c9e57816020015b610c8b6113da565b815260200190600190039081610c835790505b508152602001600180811115610cb757610cb6612392565b5b86602001516001811115610cce57610ccd612392565b5b14610cda576000610cfc565b7f00000000000000000000000000000000000000000000000000000000000000005b73ffffffffffffffffffffffffffffffffffffffff1681526020016040518060200160405280600081525081525090508091505095945050505050565b610d416110b4565b600073ffffffffffffffffffffffffffffffffffffffff168173ffffffffffffffffffffffffffffffffffffffff1603610db35760006040517f1e4fbdf7000000000000000000000000000000000000000000000000000000008152600401610daa9190611896565b60405180910390fd5b610dbc8161113b565b50565b606060405180604001604052808467ffffffffffffffff168152602001836001811115610def57610dee612392565b5b815250604051602001610e029190612447565b604051602081830303815290604052905092915050565b6000806000610e288585610ed8565b9150915060007f000000000000000000000000000000000000000000000000000000000000000073ffffffffffffffffffffffffffffffffffffffff166320487ded83856040518363ffffffff1660e01b8152600401610e89929190611ead565b602060405180830381865afa158015610ea6573d6000803e3d6000fd5b505050506040513d601f19601f82011682018060405250810190610eca9190611ef2565b905080935050505092915050565b610ee0611359565b6000807f000000000000000000000000000000000000000000000000000000000000000073ffffffffffffffffffffffffffffffffffffffff1663ede32055856040518263ffffffff1660e01b8152600401610f3c91906117ff565b606060405180830381865afa158015610f59573d6000803e3d6000fd5b505050506040513d601f19601f82011682018060405250810190610f7d91906124db565b90506000816000015167ffffffffffffffff1611610fd0576040517f08c379a0000000000000000000000000000000000000000000000000000000008152600401610fc790612554565b60405180910390fd5b80600001519150600060405180604001604052808467ffffffffffffffff1681526020016000600181111561100857611007612392565b5b81525090506110238260200151878460400151846001610b9d565b935050509250929050565b611036611359565b60008083511161107b576040517f08c379a0000000000000000000000000000000000000000000000000000000008152600401611072906125e6565b60405180910390fd5b60008380602001905181019061109191906120c6565b90506110a1878787846000610b9d565b9250806000015191505094509492505050565b6110bc611351565b73ffffffffffffffffffffffffffffffffffffffff166110da610b03565b73ffffffffffffffffffffffffffffffffffffffff1614611139576110fd611351565b6040517f118cdaa70000000000000000000000000000000000000000000000000000000081526004016111309190611896565b60405180910390fd5b565b60008060009054906101000a900473ffffffffffffffffffffffffffffffffffffffff169050816000806101000a81548173ffffffffffffffffffffffffffffffffffffffff021916908373ffffffffffffffffffffffffffffffffffffffff1602179055508173ffffffffffffffffffffffffffffffffffffffff168173ffffffffffffffffffffffffffffffffffffffff167f8be0079c531659141344cd1fd0a4f28419497f9722a3daafe3b4186f6b6457e060405160405180910390a35050565b60008160200151905060008260600151806020019051810190611222919061267e565b90508060600151156112ae57806000015173ffffffffffffffffffffffffffffffffffffffff166342842e0e30836040015184602001516040518463ffffffff1660e01b8152600401611277939291906126ab565b600060405180830381600087803b15801561129157600080fd5b505af11580156112a5573d6000803e3d6000fd5b5050505061134c565b7f000000000000000000000000000000000000000000000000000000000000000073ffffffffffffffffffffffffffffffffffffffff1663bb241e80826040015184846000015185602001516040518563ffffffff1660e01b815260040161131994939291906126e2565b600060405180830381600087803b15801561133357600080fd5b505af1158015611347573d6000803e3d6000fd5b505050505b505050565b600033905090565b6040518060a00160405280606081526020016060815260200160608152602001600073ffffffffffffffffffffffffffffffffffffffff168152602001606081525090565b6040518060a0016040528060008019168152602001600067ffffffffffffffff1681526020016060815260200160608152602001606081525090565b6040518060400160405280600073ffffffffffffffffffffffffffffffffffffffff168152602001600081525090565b6000819050919050565b7f4e487b7100000000000000000000000000000000000000000000000000000000600052601160045260246000fd5b600061144e8261140a565b91506114598361140a565b925082820190508082111561147157611470611414565b5b92915050565b6000604051905090565b600080fd5b600080fd5b60007fffffffff0000000000000000000000000000000000000000000000000000000082169050919050565b6114c08161148b565b81146114cb57600080fd5b50565b6000813590506114dd816114b7565b92915050565b6000602082840312156114f9576114f8611481565b5b6000611507848285016114ce565b91505092915050565b60008115159050919050565b61152581611510565b82525050565b6000602082019050611540600083018461151c565b92915050565b600073ffffffffffffffffffffffffffffffffffffffff82169050919050565b600061157182611546565b9050919050565b61158181611566565b811461158c57600080fd5b50565b60008135905061159e81611578565b92915050565b6115ad8161140a565b81146115b857600080fd5b50565b6000813590506115ca816115a4565b92915050565b600080fd5b600080fd5b6000601f19601f8301169050919050565b7f4e487b7100000000000000000000000000000000000000000000000000000000600052604160045260246000fd5b611623826115da565b810181811067ffffffffffffffff82111715611642576116416115eb565b5b80604052505050565b6000611655611477565b9050611661828261161a565b919050565b600067ffffffffffffffff821115611681576116806115eb565b5b61168a826115da565b9050602081019050919050565b82818337600083830152505050565b60006116b96116b484611666565b61164b565b9050828152602081018484840111156116d5576116d46115d5565b5b6116e0848285611697565b509392505050565b600082601f8301126116fd576116fc6115d0565b5b813561170d8482602086016116a6565b91505092915050565b600080600080608085870312156117305761172f611481565b5b600061173e8782880161158f565b945050602061174f8782880161158f565b9350506040611760878288016115bb565b925050606085013567ffffffffffffffff81111561178157611780611486565b5b61178d878288016116e8565b91505092959194509250565b6117a28161148b565b82525050565b60006020820190506117bd6000830184611799565b92915050565b6000602082840312156117d9576117d8611481565b5b60006117e78482850161158f565b91505092915050565b6117f98161140a565b82525050565b600060208201905061181460008301846117f0565b92915050565b600080fd5b600060a082840312156118355761183461181a565b5b81905092915050565b60006020828403121561185457611853611481565b5b600082013567ffffffffffffffff81111561187257611871611486565b5b61187e8482850161181f565b91505092915050565b61189081611566565b82525050565b60006020820190506118ab6000830184611887565b92915050565b600067ffffffffffffffff82169050919050565b6118ce816118b1565b81146118d957600080fd5b50565b6000813590506118eb816118c5565b92915050565b60008060006060848603121561190a57611909611481565b5b6000611918868287016118dc565b935050602084013567ffffffffffffffff81111561193957611938611486565b5b611945868287016116e8565b925050604084013567ffffffffffffffff81111561196657611965611486565b5b611972868287016116e8565b9150509250925092565b600080fd5b600080fd5b6002811061199357600080fd5b50565b6000813590506119a581611986565b92915050565b6000604082840312156119c1576119c061197c565b5b6119cb604061164b565b905060006119db848285016118dc565b60008301525060206119ef84828501611996565b60208301525092915050565b611a0481611510565b8114611a0f57600080fd5b50565b600081359050611a21816119fb565b92915050565b600080600080600060c08688031215611a4357611a42611481565b5b6000611a518882890161158f565b9550506020611a628882890161158f565b9450506040611a73888289016115bb565b9350506060611a84888289016119ab565b92505060a0611a9588828901611a12565b9150509295509295909350565b600081519050919050565b600082825260208201905092915050565b60005b83811015611adc578082015181840152602081019050611ac1565b60008484015250505050565b6000611af382611aa2565b611afd8185611aad565b9350611b0d818560208601611abe565b611b16816115da565b840191505092915050565b600081519050919050565b600082825260208201905092915050565b6000819050602082019050919050565b611b5681611566565b82525050565b611b658161140a565b82525050565b604082016000820151611b816000850182611b4d565b506020820151611b946020850182611b5c565b50505050565b6000611ba68383611b6b565b60408301905092915050565b6000602082019050919050565b6000611bca82611b21565b611bd48185611b2c565b9350611bdf83611b3d565b8060005b83811015611c10578151611bf78882611b9a565b9750611c0283611bb2565b925050600181019050611be3565b5085935050505092915050565b600060a0830160008301518482036000860152611c3a8282611ae8565b91505060208301518482036020860152611c548282611ae8565b91505060408301518482036040860152611c6e8282611bbf565b9150506060830151611c836060860182611b4d565b5060808301518482036080860152611c9b8282611ae8565b9150508091505092915050565b60006020820190508181036000830152611cc28184611c1d565b905092915050565b60008060408385031215611ce157611ce0611481565b5b6000611cef858286016118dc565b9250506020611d0085828601611996565b9150509250929050565b600082825260208201905092915050565b6000611d2682611aa2565b611d308185611d0a565b9350611d40818560208601611abe565b611d49816115da565b840191505092915050565b60006020820190508181036000830152611d6e8184611d1b565b905092915050565b60008060408385031215611d8d57611d8c611481565b5b6000611d9b8582860161158f565b9250506020611dac858286016115bb565b9150509250929050565b600081519050611dc5816119fb565b92915050565b600060208284031215611de157611de0611481565b5b6000611def84828501611db6565b91505092915050565b600082825260208201905092915050565b7f6661696c65642c206e6f742070617274206f662077686974656c697374000000600082015250565b6000611e3f601d83611df8565b9150611e4a82611e09565b602082019050919050565b60006020820190508181036000830152611e6e81611e32565b9050919050565b6000604082019050611e8a6000830185611887565b611e9760208301846117f0565b9392505050565b611ea7816118b1565b82525050565b6000604082019050611ec26000830185611e9e565b8181036020830152611ed48184611c1d565b90509392505050565b600081519050611eec816115a4565b92915050565b600060208284031215611f0857611f07611481565b5b6000611f1684828501611edd565b91505092915050565b7f496e73756666696369656e74206465706f736974000000000000000000000000600082015250565b6000611f55601483611df8565b9150611f6082611f1f565b602082019050919050565b60006020820190508181036000830152611f8481611f48565b9050919050565b6000819050919050565b611f9e81611f8b565b8114611fa957600080fd5b50565b600081519050611fbb81611f95565b92915050565b600060208284031215611fd757611fd6611481565b5b6000611fe584828501611fac565b91505092915050565b611ff781611f8b565b82525050565b60006020820190506120126000830184611fee565b92915050565b60006120238261140a565b915061202e8361140a565b925082820390508181111561204657612045611414565b5b92915050565b60008151905061205b816118c5565b92915050565b60008151905061207081611986565b92915050565b60006040828403121561208c5761208b61197c565b5b612096604061164b565b905060006120a68482850161204c565b60008301525060206120ba84828501612061565b60208301525092915050565b6000604082840312156120dc576120db611481565b5b60006120ea84828501612076565b91505092915050565b60008135905061210281611f95565b92915050565b600067ffffffffffffffff821115612123576121226115eb565b5b602082029050602081019050919050565b600080fd5b60006040828403121561214f5761214e61197c565b5b612159604061164b565b905060006121698482850161158f565b600083015250602061217d848285016115bb565b60208301525092915050565b600061219c61219784612108565b61164b565b905080838252602082019050604084028301858111156121bf576121be612134565b5b835b818110156121e857806121d48882612139565b8452602084019350506040810190506121c1565b5050509392505050565b600082601f830112612207576122066115d0565b5b8135612217848260208601612189565b91505092915050565b600060a082840312156122365761223561197c565b5b61224060a061164b565b90506000612250848285016120f3565b6000830152506020612264848285016118dc565b602083015250604082013567ffffffffffffffff81111561228857612287611981565b5b612294848285016116e8565b604083015250606082013567ffffffffffffffff8111156122b8576122b7611981565b5b6122c4848285016116e8565b606083015250608082013567ffffffffffffffff8111156122e8576122e7611981565b5b6122f4848285016121f2565b60808301525092915050565b600061230c3683612220565b9050919050565b61231c81611510565b82525050565b6080820160008201516123386000850182611b4d565b50602082015161234b6020850182611b5c565b50604082015161235e6040850182611b4d565b5060608201516123716060850182612313565b50505050565b600060808201905061238c6000830184612322565b92915050565b7f4e487b7100000000000000000000000000000000000000000000000000000000600052602160045260246000fd5b6123ca816118b1565b82525050565b600281106123e1576123e0612392565b5b50565b60008190506123f2826123d0565b919050565b6000612402826123e4565b9050919050565b612412816123f7565b82525050565b60408201600082015161242e60008501826123c1565b5060208201516124416020850182612409565b50505050565b600060408201905061245c6000830184612418565b92915050565b60008151905061247181611578565b92915050565b60006060828403121561248d5761248c61197c565b5b612497606061164b565b905060006124a78482850161204c565b60008301525060206124bb84828501612462565b60208301525060406124cf84828501611edd565b60408301525092915050565b6000606082840312156124f1576124f0611481565b5b60006124ff84828501612477565b91505092915050565b7f746f6b656e206e6f7420666f756e640000000000000000000000000000000000600082015250565b600061253e600f83611df8565b915061254982612508565b602082019050919050565b6000602082019050818103600083015261256d81612531565b9050919050565b7f496e76616c69642064617461202d20657363726f77206e65656473204354455360008201527f4d65737361676520617320646174610000000000000000000000000000000000602082015250565b60006125d0602f83611df8565b91506125db82612574565b604082019050919050565b600060208201905081810360008301526125ff816125c3565b9050919050565b60006080828403121561261c5761261b61197c565b5b612626608061164b565b9050600061263684828501612462565b600083015250602061264a84828501611edd565b602083015250604061265e84828501612462565b604083015250606061267284828501611db6565b60608301525092915050565b60006080828403121561269457612693611481565b5b60006126a284828501612606565b91505092915050565b60006060820190506126c06000830186611887565b6126cd6020830185611887565b6126da60408301846117f0565b949350505050565b60006080820190506126f76000830187611887565b6127046020830186611e9e565b6127116040830185611887565b61271e60608301846117f0565b9594505050505056fea26469706673582212208e8a134d9f0c9d880d8334a426f38dbdb42e08ab1d27b97d1ab86ae94f9133f464736f6c63430008140033",
  "linkReferences": {},
  "deployedLinkReferences": {}
}