{
  "_format": "hh-sol-artifact-1",
  "contractName": "StakeWiseRandom",
  "sourceName": "contracts/service/source/StakeWiseRandom.sol",
  "abi": [
    {
      "inputs": [
        {
          "internalType": "uint64",
          "name": "subscriptionId",
          "type": "uint64"
        },
        {
          "internalType": "address",
          "name": "vrfCoordinator",
          "type": "address"
        },
        {
          "internalType": "bytes32",
          "name": "keyHash",
          "type": "bytes32"
        }
      ],
      "stateMutability": "nonpayable",
      "type": "constructor"
    },
    {
      "inputs": [
        {
          "internalType": "address",
          "name": "have",
          "type": "address"
        },
        {
          "internalType": "address",
          "name": "want",
          "type": "address"
        }
      ],
      "name": "OnlyCoordinatorCanFulfill",
      "type": "error"
    },
    {
      "inputs": [
        {
          "internalType": "address",
          "name": "owner",
          "type": "address"
        }
      ],
      "name": "OwnableInvalidOwner",
      "type": "error"
    },
    {
      "inputs": [
        {
          "internalType": "address",
          "name": "account",
          "type": "address"
        }
      ],
      "name": "OwnableUnauthorizedAccount",
      "type": "error"
    },
    {
      "anonymous": false,
      "inputs": [
        {
          "indexed": true,
          "internalType": "address",
          "name": "previousOwner",
          "type": "address"
        },
        {
          "indexed": true,
          "internalType": "address",
          "name": "newOwner",
          "type": "address"
        }
      ],
      "name": "OwnershipTransferred",
      "type": "event"
    },
    {
      "anonymous": false,
      "inputs": [
        {
          "indexed": false,
          "internalType": "uint256",
          "name": "timeslot",
          "type": "uint256"
        },
        {
          "indexed": false,
          "internalType": "uint256[]",
          "name": "games",
          "type": "uint256[]"
        },
        {
          "indexed": false,
          "internalType": "uint256",
          "name": "requestId",
          "type": "uint256"
        }
      ],
      "name": "ResultRequested",
      "type": "event"
    },
    {
      "inputs": [
        {
          "internalType": "uint256",
          "name": "timestamp",
          "type": "uint256"
        }
      ],
      "name": "getGamesByTimestamp",
      "outputs": [
        {
          "internalType": "uint256[]",
          "name": "",
          "type": "uint256[]"
        }
      ],
      "stateMutability": "view",
      "type": "function"
    },
    {
      "inputs": [],
      "name": "owner",
      "outputs": [
        {
          "internalType": "address",
          "name": "",
          "type": "address"
        }
      ],
      "stateMutability": "view",
      "type": "function"
    },
    {
      "inputs": [
        {
          "internalType": "uint256",
          "name": "requestId",
          "type": "uint256"
        },
        {
          "internalType": "uint256[]",
          "name": "randomWords",
          "type": "uint256[]"
        }
      ],
      "name": "rawFulfillRandomWords",
      "outputs": [],
      "stateMutability": "nonpayable",
      "type": "function"
    },
    {
      "inputs": [],
      "name": "renounceOwnership",
      "outputs": [],
      "stateMutability": "nonpayable",
      "type": "function"
    },
    {
      "inputs": [
        {
          "internalType": "uint256",
          "name": "",
          "type": "uint256"
        }
      ],
      "name": "requestIdToSlots",
      "outputs": [
        {
          "internalType": "uint256",
          "name": "",
          "type": "uint256"
        }
      ],
      "stateMutability": "view",
      "type": "function"
    },
    {
      "inputs": [
        {
          "internalType": "uint256",
          "name": "timeslot",
          "type": "uint256"
        },
        {
          "internalType": "uint256[]",
          "name": "games",
          "type": "uint256[]"
        }
      ],
      "name": "requestResult",
      "outputs": [],
      "stateMutability": "nonpayable",
      "type": "function"
    },
    {
      "inputs": [
        {
          "internalType": "uint256",
          "name": "",
          "type": "uint256"
        },
        {
          "internalType": "uint256",
          "name": "",
          "type": "uint256"
        }
      ],
      "name": "timestampToGamesRequests",
      "outputs": [
        {
          "internalType": "uint256",
          "name": "",
          "type": "uint256"
        }
      ],
      "stateMutability": "view",
      "type": "function"
    },
    {
      "inputs": [
        {
          "internalType": "address",
          "name": "newOwner",
          "type": "address"
        }
      ],
      "name": "transferOwnership",
      "outputs": [],
      "stateMutability": "nonpayable",
      "type": "function"
    }
  ],
  "bytecode": "0x6101006040523480156200001257600080fd5b506040516200170138038062001701833981810160405281019062000038919062000305565b8133600073ffffffffffffffffffffffffffffffffffffffff168173ffffffffffffffffffffffffffffffffffffffff1603620000af5760006040517f1e4fbdf7000000000000000000000000000000000000000000000000000000008152600401620000a6919062000372565b60405180910390fd5b620000c0816200015760201b60201c565b508073ffffffffffffffffffffffffffffffffffffffff1660808173ffffffffffffffffffffffffffffffffffffffff1681525050508173ffffffffffffffffffffffffffffffffffffffff1660a08173ffffffffffffffffffffffffffffffffffffffff16815250508060e081815250508267ffffffffffffffff1660c08167ffffffffffffffff16815250505050506200038f565b60008060009054906101000a900473ffffffffffffffffffffffffffffffffffffffff169050816000806101000a81548173ffffffffffffffffffffffffffffffffffffffff021916908373ffffffffffffffffffffffffffffffffffffffff1602179055508173ffffffffffffffffffffffffffffffffffffffff168173ffffffffffffffffffffffffffffffffffffffff167f8be0079c531659141344cd1fd0a4f28419497f9722a3daafe3b4186f6b6457e060405160405180910390a35050565b600080fd5b600067ffffffffffffffff82169050919050565b6200023f8162000220565b81146200024b57600080fd5b50565b6000815190506200025f8162000234565b92915050565b600073ffffffffffffffffffffffffffffffffffffffff82169050919050565b6000620002928262000265565b9050919050565b620002a48162000285565b8114620002b057600080fd5b50565b600081519050620002c48162000299565b92915050565b6000819050919050565b620002df81620002ca565b8114620002eb57600080fd5b50565b600081519050620002ff81620002d4565b92915050565b6000806000606084860312156200032157620003206200021b565b5b600062000331868287016200024e565b93505060206200034486828701620002b3565b92505060406200035786828701620002ee565b9150509250925092565b6200036c8162000285565b82525050565b600060208201905062000389600083018462000361565b92915050565b60805160a05160c05160e051611331620003d0600039600061041301526000610434015260006103d701526000818161019b01526101ef01526113316000f3fe608060405234801561001057600080fd5b50600436106100885760003560e01c80638da5cb5b1161005b5780638da5cb5b146101135780639d19c7d414610131578063b8fd8b7614610161578063f2fde38b1461017d57610088565b80631fe543e31461008d5780635aad840e146100a95780635feb0cde146100d9578063715018a614610109575b600080fd5b6100a760048036038101906100a29190610ad4565b610199565b005b6100c360048036038101906100be9190610b30565b610259565b6040516100d09190610b6c565b60405180910390f35b6100f360048036038101906100ee9190610b87565b610271565b6040516101009190610b6c565b60405180910390f35b6101116102a2565b005b61011b6102b6565b6040516101289190610c08565b60405180910390f35b61014b60048036038101906101469190610b30565b6102df565b6040516101589190610ce1565b60405180910390f35b61017b60048036038101906101769190610ad4565b61034a565b005b61019760048036038101906101929190610d2f565b610518565b005b7f000000000000000000000000000000000000000000000000000000000000000073ffffffffffffffffffffffffffffffffffffffff163373ffffffffffffffffffffffffffffffffffffffff161461024b57337f00000000000000000000000000000000000000000000000000000000000000006040517f1cf993f4000000000000000000000000000000000000000000000000000000008152600401610242929190610d5c565b60405180910390fd5b610255828261059e565b5050565b60026020528060005260406000206000915090505481565b6001602052816000526040600020818154811061028d57600080fd5b90600052602060002001600091509150505481565b6102aa610774565b6102b460006107fb565b565b60008060009054906101000a900473ffffffffffffffffffffffffffffffffffffffff16905090565b60606001600083815260200190815260200160002080548060200260200160405190810160405280929190818152602001828054801561033e57602002820191906000526020600020905b81548152602001906001019080831161032a575b50505050509050919050565b610352610774565b60006001600084815260200190815260200160002080549050146103ab576040517f08c379a00000000000000000000000000000000000000000000000000000000081526004016103a290610de2565b60405180910390fd5b806001600084815260200190815260200160002090805190602001906103d29291906108c7565b5060007f000000000000000000000000000000000000000000000000000000000000000073ffffffffffffffffffffffffffffffffffffffff16635d3b1d307f00000000000000000000000000000000000000000000000000000000000000007f00000000000000000000000000000000000000000000000000000000000000006003620186a060016040518663ffffffff1660e01b815260040161047b959493929190610e7a565b6020604051808303816000875af115801561049a573d6000803e3d6000fd5b505050506040513d601f19601f820116820180604052508101906104be9190610ee2565b90508260026000838152602001908152602001600020819055507f54a4491819acb913bfd313c3dee91763b8a484b0ea46f118ce7dd7406c2e7d2183838360405161050b93929190610f0f565b60405180910390a1505050565b610520610774565b600073ffffffffffffffffffffffffffffffffffffffff168173ffffffffffffffffffffffffffffffffffffffff16036105925760006040517f1e4fbdf70000000000000000000000000000000000000000000000000000000081526004016105899190610c08565b60405180910390fd5b61059b816107fb565b50565b60006002600084815260200190815260200160002054116105f4576040517f08c379a00000000000000000000000000000000000000000000000000000000081526004016105eb90610fbf565b60405180910390fd5b6000815111610638576040517f08c379a000000000000000000000000000000000000000000000000000000000815260040161062f90611051565b60405180910390fd5b6000600160006002600086815260200190815260200160002054815260200190815260200160002080549050116106a4576040517f08c379a000000000000000000000000000000000000000000000000000000000815260040161069b906110e3565b60405180910390fd5b6106ac6102b6565b73ffffffffffffffffffffffffffffffffffffffff1663986751336001600060026000878152602001908152602001600020548152602001908152602001600020600160028560008151811061070557610704611103565b5b60200260200101516107179190611161565b61072191906111c1565b6040518363ffffffff1660e01b815260040161073e9291906112cb565b600060405180830381600087803b15801561075857600080fd5b505af115801561076c573d6000803e3d6000fd5b505050505050565b61077c6108bf565b73ffffffffffffffffffffffffffffffffffffffff1661079a6102b6565b73ffffffffffffffffffffffffffffffffffffffff16146107f9576107bd6108bf565b6040517f118cdaa70000000000000000000000000000000000000000000000000000000081526004016107f09190610c08565b60405180910390fd5b565b60008060009054906101000a900473ffffffffffffffffffffffffffffffffffffffff169050816000806101000a81548173ffffffffffffffffffffffffffffffffffffffff021916908373ffffffffffffffffffffffffffffffffffffffff1602179055508173ffffffffffffffffffffffffffffffffffffffff168173ffffffffffffffffffffffffffffffffffffffff167f8be0079c531659141344cd1fd0a4f28419497f9722a3daafe3b4186f6b6457e060405160405180910390a35050565b600033905090565b828054828255906000526020600020908101928215610903579160200282015b828111156109025782518255916020019190600101906108e7565b5b5090506109109190610914565b5090565b5b8082111561092d576000816000905550600101610915565b5090565b6000604051905090565b600080fd5b600080fd5b6000819050919050565b61095881610945565b811461096357600080fd5b50565b6000813590506109758161094f565b92915050565b600080fd5b6000601f19601f8301169050919050565b7f4e487b7100000000000000000000000000000000000000000000000000000000600052604160045260246000fd5b6109c982610980565b810181811067ffffffffffffffff821117156109e8576109e7610991565b5b80604052505050565b60006109fb610931565b9050610a0782826109c0565b919050565b600067ffffffffffffffff821115610a2757610a26610991565b5b602082029050602081019050919050565b600080fd5b6000610a50610a4b84610a0c565b6109f1565b90508083825260208201905060208402830185811115610a7357610a72610a38565b5b835b81811015610a9c5780610a888882610966565b845260208401935050602081019050610a75565b5050509392505050565b600082601f830112610abb57610aba61097b565b5b8135610acb848260208601610a3d565b91505092915050565b60008060408385031215610aeb57610aea61093b565b5b6000610af985828601610966565b925050602083013567ffffffffffffffff811115610b1a57610b19610940565b5b610b2685828601610aa6565b9150509250929050565b600060208284031215610b4657610b4561093b565b5b6000610b5484828501610966565b91505092915050565b610b6681610945565b82525050565b6000602082019050610b816000830184610b5d565b92915050565b60008060408385031215610b9e57610b9d61093b565b5b6000610bac85828601610966565b9250506020610bbd85828601610966565b9150509250929050565b600073ffffffffffffffffffffffffffffffffffffffff82169050919050565b6000610bf282610bc7565b9050919050565b610c0281610be7565b82525050565b6000602082019050610c1d6000830184610bf9565b92915050565b600081519050919050565b600082825260208201905092915050565b6000819050602082019050919050565b610c5881610945565b82525050565b6000610c6a8383610c4f565b60208301905092915050565b6000602082019050919050565b6000610c8e82610c23565b610c988185610c2e565b9350610ca383610c3f565b8060005b83811015610cd4578151610cbb8882610c5e565b9750610cc683610c76565b925050600181019050610ca7565b5085935050505092915050565b60006020820190508181036000830152610cfb8184610c83565b905092915050565b610d0c81610be7565b8114610d1757600080fd5b50565b600081359050610d2981610d03565b92915050565b600060208284031215610d4557610d4461093b565b5b6000610d5384828501610d1a565b91505092915050565b6000604082019050610d716000830185610bf9565b610d7e6020830184610bf9565b9392505050565b600082825260208201905092915050565b7f7265717565737420616c7265616479206d616465000000000000000000000000600082015250565b6000610dcc601483610d85565b9150610dd782610d96565b602082019050919050565b60006020820190508181036000830152610dfb81610dbf565b9050919050565b6000819050919050565b610e1581610e02565b82525050565b600067ffffffffffffffff82169050919050565b610e3881610e1b565b82525050565b600061ffff82169050919050565b610e5581610e3e565b82525050565b600063ffffffff82169050919050565b610e7481610e5b565b82525050565b600060a082019050610e8f6000830188610e0c565b610e9c6020830187610e2f565b610ea96040830186610e4c565b610eb66060830185610e6b565b610ec36080830184610e6b565b9695505050505050565b600081519050610edc8161094f565b92915050565b600060208284031215610ef857610ef761093b565b5b6000610f0684828501610ecd565b91505092915050565b6000606082019050610f246000830186610b5d565b8181036020830152610f368185610c83565b9050610f456040830184610b5d565b949350505050565b7f6e6f2076616c6964207265717565737420696420746f20736c6f74206d61707060008201527f696e670000000000000000000000000000000000000000000000000000000000602082015250565b6000610fa9602383610d85565b9150610fb482610f4d565b604082019050919050565b60006020820190508181036000830152610fd881610f9c565b9050919050565b7f6d7573742068617665206174206c65617374206f6e652072616e646f6d20726560008201527f73756c742066726f6d2074686520767266000000000000000000000000000000602082015250565b600061103b603183610d85565b915061104682610fdf565b604082019050919050565b6000602082019050818103600083015261106a8161102e565b9050919050565b7f6e6f2076616c69642067616d65207265676973746572656420666f722074696d60008201527f65736c6f7420616e642072657175657374206964000000000000000000000000602082015250565b60006110cd603483610d85565b91506110d882611071565b604082019050919050565b600060208201905081810360008301526110fc816110c0565b9050919050565b7f4e487b7100000000000000000000000000000000000000000000000000000000600052603260045260246000fd5b7f4e487b7100000000000000000000000000000000000000000000000000000000600052601260045260246000fd5b600061116c82610945565b915061117783610945565b92508261118757611186611132565b5b828206905092915050565b7f4e487b7100000000000000000000000000000000000000000000000000000000600052601160045260246000fd5b60006111cc82610945565b91506111d783610945565b92508282019050808211156111ef576111ee611192565b5b92915050565b600081549050919050565b60008190508160005260206000209050919050565b60008160001c9050919050565b6000819050919050565b600061123f61123a83611215565b611222565b9050919050565b6000611252825461122c565b9050919050565b6000600182019050919050565b6000611271826111f5565b61127b8185610c2e565b935061128683611200565b8060005b838110156112be5761129b82611246565b6112a58882610c5e565b97506112b083611259565b92505060018101905061128a565b5085935050505092915050565b600060408201905081810360008301526112e58185611266565b90506112f46020830184610b5d565b939250505056fea26469706673582212204bb8d4596188324368d9461914cb33b595d5f03c2497ae404f1774237a10f87764736f6c63430008140033",
  "linkReferences": {},
  "deployedLinkReferences": {}
}