{
  "_format": "hh-sol-artifact-1",
  "contractName": "ClaimNote721",
  "sourceName": "contracts/tokens/ClaimNote721.sol",
  "abi": [
    {
      "inputs": [],
      "stateMutability": "nonpayable",
      "type": "constructor"
    },
    {
      "inputs": [
        {
          "internalType": "address",
          "name": "sender",
          "type": "address"
        },
        {
          "internalType": "uint256",
          "name": "tokenId",
          "type": "uint256"
        },
        {
          "internalType": "address",
          "name": "owner",
          "type": "address"
        }
      ],
      "name": "ERC721IncorrectOwner",
      "type": "error"
    },
    {
      "inputs": [
        {
          "internalType": "address",
          "name": "operator",
          "type": "address"
        },
        {
          "internalType": "uint256",
          "name": "tokenId",
          "type": "uint256"
        }
      ],
      "name": "ERC721InsufficientApproval",
      "type": "error"
    },
    {
      "inputs": [
        {
          "internalType": "address",
          "name": "approver",
          "type": "address"
        }
      ],
      "name": "ERC721InvalidApprover",
      "type": "error"
    },
    {
      "inputs": [
        {
          "internalType": "address",
          "name": "operator",
          "type": "address"
        }
      ],
      "name": "ERC721InvalidOperator",
      "type": "error"
    },
    {
      "inputs": [
        {
          "internalType": "address",
          "name": "owner",
          "type": "address"
        }
      ],
      "name": "ERC721InvalidOwner",
      "type": "error"
    },
    {
      "inputs": [
        {
          "internalType": "address",
          "name": "receiver",
          "type": "address"
        }
      ],
      "name": "ERC721InvalidReceiver",
      "type": "error"
    },
    {
      "inputs": [
        {
          "internalType": "address",
          "name": "sender",
          "type": "address"
        }
      ],
      "name": "ERC721InvalidSender",
      "type": "error"
    },
    {
      "inputs": [
        {
          "internalType": "uint256",
          "name": "tokenId",
          "type": "uint256"
        }
      ],
      "name": "ERC721NonexistentToken",
      "type": "error"
    },
    {
      "inputs": [
        {
          "internalType": "address",
          "name": "owner",
          "type": "address"
        }
      ],
      "name": "OwnableInvalidOwner",
      "type": "error"
    },
    {
      "inputs": [
        {
          "internalType": "address",
          "name": "account",
          "type": "address"
        }
      ],
      "name": "OwnableUnauthorizedAccount",
      "type": "error"
    },
    {
      "anonymous": false,
      "inputs": [
        {
          "indexed": true,
          "internalType": "address",
          "name": "owner",
          "type": "address"
        },
        {
          "indexed": true,
          "internalType": "address",
          "name": "approved",
          "type": "address"
        },
        {
          "indexed": true,
          "internalType": "uint256",
          "name": "tokenId",
          "type": "uint256"
        }
      ],
      "name": "Approval",
      "type": "event"
    },
    {
      "anonymous": false,
      "inputs": [
        {
          "indexed": true,
          "internalType": "address",
          "name": "owner",
          "type": "address"
        },
        {
          "indexed": true,
          "internalType": "address",
          "name": "operator",
          "type": "address"
        },
        {
          "indexed": false,
          "internalType": "bool",
          "name": "approved",
          "type": "bool"
        }
      ],
      "name": "ApprovalForAll",
      "type": "event"
    },
    {
      "anonymous": false,
      "inputs": [
        {
          "indexed": false,
          "internalType": "uint256",
          "name": "_fromTokenId",
          "type": "uint256"
        },
        {
          "indexed": false,
          "internalType": "uint256",
          "name": "_toTokenId",
          "type": "uint256"
        }
      ],
      "name": "BatchMetadataUpdate",
      "type": "event"
    },
    {
      "anonymous": false,
      "inputs": [
        {
          "indexed": false,
          "internalType": "uint256",
          "name": "_tokenId",
          "type": "uint256"
        }
      ],
      "name": "MetadataUpdate",
      "type": "event"
    },
    {
      "anonymous": false,
      "inputs": [
        {
          "indexed": true,
          "internalType": "address",
          "name": "previousOwner",
          "type": "address"
        },
        {
          "indexed": true,
          "internalType": "address",
          "name": "newOwner",
          "type": "address"
        }
      ],
      "name": "OwnershipTransferred",
      "type": "event"
    },
    {
      "anonymous": false,
      "inputs": [
        {
          "indexed": true,
          "internalType": "address",
          "name": "from",
          "type": "address"
        },
        {
          "indexed": true,
          "internalType": "address",
          "name": "to",
          "type": "address"
        },
        {
          "indexed": true,
          "internalType": "uint256",
          "name": "tokenId",
          "type": "uint256"
        }
      ],
      "name": "Transfer",
      "type": "event"
    },
    {
      "inputs": [
        {
          "internalType": "address",
          "name": "to",
          "type": "address"
        },
        {
          "internalType": "uint256",
          "name": "tokenId",
          "type": "uint256"
        }
      ],
      "name": "approve",
      "outputs": [],
      "stateMutability": "nonpayable",
      "type": "function"
    },
    {
      "inputs": [
        {
          "internalType": "address",
          "name": "owner",
          "type": "address"
        }
      ],
      "name": "balanceOf",
      "outputs": [
        {
          "internalType": "uint256",
          "name": "",
          "type": "uint256"
        }
      ],
      "stateMutability": "view",
      "type": "function"
    },
    {
      "inputs": [
        {
          "internalType": "address",
          "name": "",
          "type": "address"
        },
        {
          "internalType": "uint256",
          "name": "claimNote",
          "type": "uint256"
        }
      ],
      "name": "claim",
      "outputs": [],
      "stateMutability": "nonpayable",
      "type": "function"
    },
    {
      "inputs": [
        {
          "internalType": "uint256",
          "name": "",
          "type": "uint256"
        }
      ],
      "name": "claimNotes",
      "outputs": [
        {
          "internalType": "uint64",
          "name": "sourceChain",
          "type": "uint64"
        },
        {
          "internalType": "address",
          "name": "sourceTokenAddress",
          "type": "address"
        },
        {
          "internalType": "uint256",
          "name": "sourceTokenId",
          "type": "uint256"
        }
      ],
      "stateMutability": "view",
      "type": "function"
    },
    {
      "inputs": [
        {
          "internalType": "uint256",
          "name": "noteId",
          "type": "uint256"
        }
      ],
      "name": "findNote",
      "outputs": [
        {
          "components": [
            {
              "internalType": "uint64",
              "name": "sourceChain",
              "type": "uint64"
            },
            {
              "internalType": "address",
              "name": "sourceTokenAddress",
              "type": "address"
            },
            {
              "internalType": "uint256",
              "name": "sourceTokenId",
              "type": "uint256"
            }
          ],
          "internalType": "struct ClaimNote721.ClaimNote",
          "name": "",
          "type": "tuple"
        }
      ],
      "stateMutability": "view",
      "type": "function"
    },
    {
      "inputs": [
        {
          "internalType": "uint256",
          "name": "tokenId",
          "type": "uint256"
        }
      ],
      "name": "getApproved",
      "outputs": [
        {
          "internalType": "address",
          "name": "",
          "type": "address"
        }
      ],
      "stateMutability": "view",
      "type": "function"
    },
    {
      "inputs": [
        {
          "internalType": "address",
          "name": "owner",
          "type": "address"
        },
        {
          "internalType": "address",
          "name": "operator",
          "type": "address"
        }
      ],
      "name": "isApprovedForAll",
      "outputs": [
        {
          "internalType": "bool",
          "name": "",
          "type": "bool"
        }
      ],
      "stateMutability": "view",
      "type": "function"
    },
    {
      "inputs": [
        {
          "internalType": "address",
          "name": "to",
          "type": "address"
        },
        {
          "internalType": "uint64",
          "name": "sourceChainSelector",
          "type": "uint64"
        },
        {
          "internalType": "address",
          "name": "sourceTokenAddress",
          "type": "address"
        },
        {
          "internalType": "uint256",
          "name": "sourceTokenId",
          "type": "uint256"
        }
      ],
      "name": "mint",
      "outputs": [],
      "stateMutability": "nonpayable",
      "type": "function"
    },
    {
      "inputs": [],
      "name": "name",
      "outputs": [
        {
          "internalType": "string",
          "name": "",
          "type": "string"
        }
      ],
      "stateMutability": "view",
      "type": "function"
    },
    {
      "inputs": [],
      "name": "owner",
      "outputs": [
        {
          "internalType": "address",
          "name": "",
          "type": "address"
        }
      ],
      "stateMutability": "view",
      "type": "function"
    },
    {
      "inputs": [
        {
          "internalType": "uint256",
          "name": "tokenId",
          "type": "uint256"
        }
      ],
      "name": "ownerOf",
      "outputs": [
        {
          "internalType": "address",
          "name": "",
          "type": "address"
        }
      ],
      "stateMutability": "view",
      "type": "function"
    },
    {
      "inputs": [],
      "name": "renounceOwnership",
      "outputs": [],
      "stateMutability": "nonpayable",
      "type": "function"
    },
    {
      "inputs": [
        {
          "internalType": "address",
          "name": "from",
          "type": "address"
        },
        {
          "internalType": "address",
          "name": "to",
          "type": "address"
        },
        {
          "internalType": "uint256",
          "name": "tokenId",
          "type": "uint256"
        }
      ],
      "name": "safeTransferFrom",
      "outputs": [],
      "stateMutability": "nonpayable",
      "type": "function"
    },
    {
      "inputs": [
        {
          "internalType": "address",
          "name": "from",
          "type": "address"
        },
        {
          "internalType": "address",
          "name": "to",
          "type": "address"
        },
        {
          "internalType": "uint256",
          "name": "tokenId",
          "type": "uint256"
        },
        {
          "internalType": "bytes",
          "name": "data",
          "type": "bytes"
        }
      ],
      "name": "safeTransferFrom",
      "outputs": [],
      "stateMutability": "nonpayable",
      "type": "function"
    },
    {
      "inputs": [
        {
          "internalType": "address",
          "name": "operator",
          "type": "address"
        },
        {
          "internalType": "bool",
          "name": "approved",
          "type": "bool"
        }
      ],
      "name": "setApprovalForAll",
      "outputs": [],
      "stateMutability": "nonpayable",
      "type": "function"
    },
    {
      "inputs": [
        {
          "internalType": "bytes4",
          "name": "interfaceId",
          "type": "bytes4"
        }
      ],
      "name": "supportsInterface",
      "outputs": [
        {
          "internalType": "bool",
          "name": "",
          "type": "bool"
        }
      ],
      "stateMutability": "view",
      "type": "function"
    },
    {
      "inputs": [],
      "name": "symbol",
      "outputs": [
        {
          "internalType": "string",
          "name": "",
          "type": "string"
        }
      ],
      "stateMutability": "view",
      "type": "function"
    },
    {
      "inputs": [
        {
          "internalType": "uint256",
          "name": "tokenId",
          "type": "uint256"
        }
      ],
      "name": "tokenURI",
      "outputs": [
        {
          "internalType": "string",
          "name": "",
          "type": "string"
        }
      ],
      "stateMutability": "view",
      "type": "function"
    },
    {
      "inputs": [
        {
          "internalType": "address",
          "name": "from",
          "type": "address"
        },
        {
          "internalType": "address",
          "name": "to",
          "type": "address"
        },
        {
          "internalType": "uint256",
          "name": "tokenId",
          "type": "uint256"
        }
      ],
      "name": "transferFrom",
      "outputs": [],
      "stateMutability": "nonpayable",
      "type": "function"
    },
    {
      "inputs": [
        {
          "internalType": "address",
          "name": "newOwner",
          "type": "address"
        }
      ],
      "name": "transferOwnership",
      "outputs": [],
      "stateMutability": "nonpayable",
      "type": "function"
    }
  ],
  "bytecode": "0x60806040523480156200001157600080fd5b50336040518060400160405280601481526020017f5374616b655769736520436c61696d204e6f74650000000000000000000000008152506040518060400160405280600381526020017f5357430000000000000000000000000000000000000000000000000000000000815250816000908162000090919062000472565b508060019081620000a2919062000472565b505050600073ffffffffffffffffffffffffffffffffffffffff168173ffffffffffffffffffffffffffffffffffffffff16036200011a5760006040517f1e4fbdf70000000000000000000000000000000000000000000000000000000081526004016200011191906200059e565b60405180910390fd5b6200012b816200013260201b60201c565b50620005bb565b6000600760009054906101000a900473ffffffffffffffffffffffffffffffffffffffff16905081600760006101000a81548173ffffffffffffffffffffffffffffffffffffffff021916908373ffffffffffffffffffffffffffffffffffffffff1602179055508173ffffffffffffffffffffffffffffffffffffffff168173ffffffffffffffffffffffffffffffffffffffff167f8be0079c531659141344cd1fd0a4f28419497f9722a3daafe3b4186f6b6457e060405160405180910390a35050565b600081519050919050565b7f4e487b7100000000000000000000000000000000000000000000000000000000600052604160045260246000fd5b7f4e487b7100000000000000000000000000000000000000000000000000000000600052602260045260246000fd5b600060028204905060018216806200027a57607f821691505b60208210810362000290576200028f62000232565b5b50919050565b60008190508160005260206000209050919050565b60006020601f8301049050919050565b600082821b905092915050565b600060088302620002fa7fffffffffffffffffffffffffffffffffffffffffffffffffffffffffffffffff82620002bb565b620003068683620002bb565b95508019841693508086168417925050509392505050565b6000819050919050565b6000819050919050565b6000620003536200034d62000347846200031e565b62000328565b6200031e565b9050919050565b6000819050919050565b6200036f8362000332565b620003876200037e826200035a565b848454620002c8565b825550505050565b600090565b6200039e6200038f565b620003ab81848462000364565b505050565b5b81811015620003d357620003c760008262000394565b600181019050620003b1565b5050565b601f8211156200042257620003ec8162000296565b620003f784620002ab565b8101602085101562000407578190505b6200041f6200041685620002ab565b830182620003b0565b50505b505050565b600082821c905092915050565b6000620004476000198460080262000427565b1980831691505092915050565b600062000462838362000434565b9150826002028217905092915050565b6200047d82620001f8565b67ffffffffffffffff81111562000499576200049862000203565b5b620004a5825462000261565b620004b2828285620003d7565b600060209050601f831160018114620004ea5760008415620004d5578287015190505b620004e1858262000454565b86555062000551565b601f198416620004fa8662000296565b60005b828110156200052457848901518255600182019150602085019450602081019050620004fd565b8683101562000544578489015162000540601f89168262000434565b8355505b6001600288020188555050505b505050505050565b600073ffffffffffffffffffffffffffffffffffffffff82169050919050565b6000620005868262000559565b9050919050565b620005988162000579565b82525050565b6000602082019050620005b560008301846200058d565b92915050565b612b7980620005cb6000396000f3fe608060405234801561001057600080fd5b506004361061012c5760003560e01c806395d89b41116100ad578063bb241e8011610071578063bb241e801461032f578063c87b56dd1461034b578063e985e9c51461037b578063ede32055146103ab578063f2fde38b146103db5761012c565b806395d89b411461028b578063a22cb465146102a9578063aad3ec96146102c5578063af288e02146102e1578063b88d4fde146103135761012c565b806342842e0e116100f457806342842e0e146101e75780636352211e1461020357806370a0823114610233578063715018a6146102635780638da5cb5b1461026d5761012c565b806301ffc9a71461013157806306fdde0314610161578063081812fc1461017f578063095ea7b3146101af57806323b872dd146101cb575b600080fd5b61014b60048036038101906101469190611f0e565b6103f7565b6040516101589190611f56565b60405180910390f35b610169610458565b6040516101769190612001565b60405180910390f35b61019960048036038101906101949190612059565b6104ea565b6040516101a691906120c7565b60405180910390f35b6101c960048036038101906101c4919061210e565b610506565b005b6101e560048036038101906101e0919061214e565b61051c565b005b61020160048036038101906101fc919061214e565b61061e565b005b61021d60048036038101906102189190612059565b61063e565b60405161022a91906120c7565b60405180910390f35b61024d600480360381019061024891906121a1565b610650565b60405161025a91906121dd565b60405180910390f35b61026b61070a565b005b61027561071e565b60405161028291906120c7565b60405180910390f35b610293610748565b6040516102a09190612001565b60405180910390f35b6102c360048036038101906102be9190612224565b6107da565b005b6102df60048036038101906102da919061210e565b6107f0565b005b6102fb60048036038101906102f69190612059565b6108e2565b60405161030a93929190612287565b60405180910390f35b61032d600480360381019061032891906123f3565b610940565b005b610349600480360381019061034491906124a2565b61095d565b005b61036560048036038101906103609190612059565b610a80565b6040516103729190612001565b60405180910390f35b61039560048036038101906103909190612509565b610b93565b6040516103a29190611f56565b60405180910390f35b6103c560048036038101906103c09190612059565b610c27565b6040516103d291906125b8565b60405180910390f35b6103f560048036038101906103f091906121a1565b610ce6565b005b6000634906490660e01b7bffffffffffffffffffffffffffffffffffffffffffffffffffffffff1916827bffffffffffffffffffffffffffffffffffffffffffffffffffffffff19161480610451575061045082610d6c565b5b9050919050565b60606000805461046790612602565b80601f016020809104026020016040519081016040528092919081815260200182805461049390612602565b80156104e05780601f106104b5576101008083540402835291602001916104e0565b820191906000526020600020905b8154815290600101906020018083116104c357829003601f168201915b5050505050905090565b60006104f582610e4e565b506104ff82610ed6565b9050919050565b6105188282610513610f13565b610f1b565b5050565b600073ffffffffffffffffffffffffffffffffffffffff168273ffffffffffffffffffffffffffffffffffffffff160361058e5760006040517f64a0ae9200000000000000000000000000000000000000000000000000000000815260040161058591906120c7565b60405180910390fd5b60006105a2838361059d610f13565b610f2d565b90508373ffffffffffffffffffffffffffffffffffffffff168173ffffffffffffffffffffffffffffffffffffffff1614610618578382826040517f64283d7b00000000000000000000000000000000000000000000000000000000815260040161060f93929190612633565b60405180910390fd5b50505050565b61063983838360405180602001604052806000815250610940565b505050565b600061064982610e4e565b9050919050565b60008073ffffffffffffffffffffffffffffffffffffffff168273ffffffffffffffffffffffffffffffffffffffff16036106c35760006040517f89c62b640000000000000000000000000000000000000000000000000000000081526004016106ba91906120c7565b60405180910390fd5b600360008373ffffffffffffffffffffffffffffffffffffffff1673ffffffffffffffffffffffffffffffffffffffff168152602001908152602001600020549050919050565b610712611147565b61071c60006111ce565b565b6000600760009054906101000a900473ffffffffffffffffffffffffffffffffffffffff16905090565b60606001805461075790612602565b80601f016020809104026020016040519081016040528092919081815260200182805461078390612602565b80156107d05780601f106107a5576101008083540402835291602001916107d0565b820191906000526020600020905b8154815290600101906020018083116107b357829003601f168201915b5050505050905090565b6107ec6107e5610f13565b8383611294565b5050565b6107f8611147565b61080061071e565b73ffffffffffffffffffffffffffffffffffffffff1661081f8261063e565b73ffffffffffffffffffffffffffffffffffffffff1614610875576040517f08c379a000000000000000000000000000000000000000000000000000000000815260040161086c906126b6565b60405180910390fd5b60096000828152602001908152602001600020600080820160006101000a81549067ffffffffffffffff02191690556000820160086101000a81549073ffffffffffffffffffffffffffffffffffffffff0219169055600182016000905550506108de81611403565b5050565b60096020528060005260406000206000915090508060000160009054906101000a900467ffffffffffffffff16908060000160089054906101000a900473ffffffffffffffffffffffffffffffffffffffff16908060010154905083565b61094b84848461051c565b61095784848484611489565b50505050565b610965611147565b61097184600854611640565b610995600854604051806080016040528060548152602001612af06054913961165e565b60405180606001604052808467ffffffffffffffff1681526020018373ffffffffffffffffffffffffffffffffffffffff1681526020018281525060096000600854815260200190815260200160002060008201518160000160006101000a81548167ffffffffffffffff021916908367ffffffffffffffff16021790555060208201518160000160086101000a81548173ffffffffffffffffffffffffffffffffffffffff021916908373ffffffffffffffffffffffffffffffffffffffff1602179055506040820151816001015590505060086000815480929190600101919050555050505050565b6060610a8b82610e4e565b506000600660008481526020019081526020016000208054610aac90612602565b80601f0160208091040260200160405190810160405280929190818152602001828054610ad890612602565b8015610b255780601f10610afa57610100808354040283529160200191610b25565b820191906000526020600020905b815481529060010190602001808311610b0857829003601f168201915b505050505090506000610b366116ba565b90506000815103610b4b578192505050610b8e565b600082511115610b80578082604051602001610b68929190612712565b60405160208183030381529060405292505050610b8e565b610b89846116d1565b925050505b919050565b6000600560008473ffffffffffffffffffffffffffffffffffffffff1673ffffffffffffffffffffffffffffffffffffffff16815260200190815260200160002060008373ffffffffffffffffffffffffffffffffffffffff1673ffffffffffffffffffffffffffffffffffffffff16815260200190815260200160002060009054906101000a900460ff16905092915050565b610c2f611e61565b600960008381526020019081526020016000206040518060600160405290816000820160009054906101000a900467ffffffffffffffff1667ffffffffffffffff1667ffffffffffffffff1681526020016000820160089054906101000a900473ffffffffffffffffffffffffffffffffffffffff1673ffffffffffffffffffffffffffffffffffffffff1673ffffffffffffffffffffffffffffffffffffffff1681526020016001820154815250509050919050565b610cee611147565b600073ffffffffffffffffffffffffffffffffffffffff168173ffffffffffffffffffffffffffffffffffffffff1603610d605760006040517f1e4fbdf7000000000000000000000000000000000000000000000000000000008152600401610d5791906120c7565b60405180910390fd5b610d69816111ce565b50565b60007f80ac58cd000000000000000000000000000000000000000000000000000000007bffffffffffffffffffffffffffffffffffffffffffffffffffffffff1916827bffffffffffffffffffffffffffffffffffffffffffffffffffffffff19161480610e3757507f5b5e139f000000000000000000000000000000000000000000000000000000007bffffffffffffffffffffffffffffffffffffffffffffffffffffffff1916827bffffffffffffffffffffffffffffffffffffffffffffffffffffffff1916145b80610e475750610e468261173a565b5b9050919050565b600080610e5a836117a4565b9050600073ffffffffffffffffffffffffffffffffffffffff168173ffffffffffffffffffffffffffffffffffffffff1603610ecd57826040517f7e273289000000000000000000000000000000000000000000000000000000008152600401610ec491906121dd565b60405180910390fd5b80915050919050565b60006004600083815260200190815260200160002060009054906101000a900473ffffffffffffffffffffffffffffffffffffffff169050919050565b600033905090565b610f2883838360016117e1565b505050565b600080610f39846117a4565b9050600073ffffffffffffffffffffffffffffffffffffffff168373ffffffffffffffffffffffffffffffffffffffff1614610f7b57610f7a8184866119a6565b5b600073ffffffffffffffffffffffffffffffffffffffff168173ffffffffffffffffffffffffffffffffffffffff161461100c57610fbd6000856000806117e1565b6001600360008373ffffffffffffffffffffffffffffffffffffffff1673ffffffffffffffffffffffffffffffffffffffff168152602001908152602001600020600082825403925050819055505b600073ffffffffffffffffffffffffffffffffffffffff168573ffffffffffffffffffffffffffffffffffffffff161461108f576001600360008773ffffffffffffffffffffffffffffffffffffffff1673ffffffffffffffffffffffffffffffffffffffff168152602001908152602001600020600082825401925050819055505b846002600086815260200190815260200160002060006101000a81548173ffffffffffffffffffffffffffffffffffffffff021916908373ffffffffffffffffffffffffffffffffffffffff160217905550838573ffffffffffffffffffffffffffffffffffffffff168273ffffffffffffffffffffffffffffffffffffffff167fddf252ad1be2c89b69c2b068fc378daa952ba7f163c4a11628f55a4df523b3ef60405160405180910390a4809150509392505050565b61114f610f13565b73ffffffffffffffffffffffffffffffffffffffff1661116d61071e565b73ffffffffffffffffffffffffffffffffffffffff16146111cc57611190610f13565b6040517f118cdaa70000000000000000000000000000000000000000000000000000000081526004016111c391906120c7565b60405180910390fd5b565b6000600760009054906101000a900473ffffffffffffffffffffffffffffffffffffffff16905081600760006101000a81548173ffffffffffffffffffffffffffffffffffffffff021916908373ffffffffffffffffffffffffffffffffffffffff1602179055508173ffffffffffffffffffffffffffffffffffffffff168173ffffffffffffffffffffffffffffffffffffffff167f8be0079c531659141344cd1fd0a4f28419497f9722a3daafe3b4186f6b6457e060405160405180910390a35050565b600073ffffffffffffffffffffffffffffffffffffffff168273ffffffffffffffffffffffffffffffffffffffff160361130557816040517f5b08ba180000000000000000000000000000000000000000000000000000000081526004016112fc91906120c7565b60405180910390fd5b80600560008573ffffffffffffffffffffffffffffffffffffffff1673ffffffffffffffffffffffffffffffffffffffff16815260200190815260200160002060008473ffffffffffffffffffffffffffffffffffffffff1673ffffffffffffffffffffffffffffffffffffffff16815260200190815260200160002060006101000a81548160ff0219169083151502179055508173ffffffffffffffffffffffffffffffffffffffff168373ffffffffffffffffffffffffffffffffffffffff167f17307eab39ab6107e8899845ad3d59bd9653f200f220920489ca2b5937696c31836040516113f69190611f56565b60405180910390a3505050565b60006114126000836000610f2d565b9050600073ffffffffffffffffffffffffffffffffffffffff168173ffffffffffffffffffffffffffffffffffffffff160361148557816040517f7e27328900000000000000000000000000000000000000000000000000000000815260040161147c91906121dd565b60405180910390fd5b5050565b60008373ffffffffffffffffffffffffffffffffffffffff163b111561163a578273ffffffffffffffffffffffffffffffffffffffff1663150b7a026114cd610f13565b8685856040518563ffffffff1660e01b81526004016114ef949392919061278b565b6020604051808303816000875af192505050801561152b57506040513d601f19601f8201168201806040525081019061152891906127ec565b60015b6115af573d806000811461155b576040519150601f19603f3d011682016040523d82523d6000602084013e611560565b606091505b5060008151036115a757836040517f64a0ae9200000000000000000000000000000000000000000000000000000000815260040161159e91906120c7565b60405180910390fd5b805181602001fd5b63150b7a0260e01b7bffffffffffffffffffffffffffffffffffffffffffffffffffffffff1916817bffffffffffffffffffffffffffffffffffffffffffffffffffffffff19161461163857836040517f64a0ae9200000000000000000000000000000000000000000000000000000000815260040161162f91906120c7565b60405180910390fd5b505b50505050565b61165a828260405180602001604052806000815250611a6a565b5050565b8060066000848152602001908152602001600020908161167e91906129c5565b507ff8e1a15aba9398e019f0b49df1a4fde98ee17ae345cb5f6b5e2c27f5033e8ce7826040516116ae91906121dd565b60405180910390a15050565b606060405180602001604052806000815250905090565b60606116dc82610e4e565b5060006116e76116ba565b905060008151116117075760405180602001604052806000815250611732565b8061171184611a86565b604051602001611722929190612712565b6040516020818303038152906040525b915050919050565b60007f01ffc9a7000000000000000000000000000000000000000000000000000000007bffffffffffffffffffffffffffffffffffffffffffffffffffffffff1916827bffffffffffffffffffffffffffffffffffffffffffffffffffffffff1916149050919050565b60006002600083815260200190815260200160002060009054906101000a900473ffffffffffffffffffffffffffffffffffffffff169050919050565b808061181a5750600073ffffffffffffffffffffffffffffffffffffffff168273ffffffffffffffffffffffffffffffffffffffff1614155b1561194e57600061182a84610e4e565b9050600073ffffffffffffffffffffffffffffffffffffffff168373ffffffffffffffffffffffffffffffffffffffff161415801561189557508273ffffffffffffffffffffffffffffffffffffffff168173ffffffffffffffffffffffffffffffffffffffff1614155b80156118a857506118a68184610b93565b155b156118ea57826040517fa9fbf51f0000000000000000000000000000000000000000000000000000000081526004016118e191906120c7565b60405180910390fd5b811561194c57838573ffffffffffffffffffffffffffffffffffffffff168273ffffffffffffffffffffffffffffffffffffffff167f8c5be1e5ebec7d5bd14f71427d1e84f3dd0314c0f7b2291e5b200ac8c7c3b92560405160405180910390a45b505b836004600085815260200190815260200160002060006101000a81548173ffffffffffffffffffffffffffffffffffffffff021916908373ffffffffffffffffffffffffffffffffffffffff16021790555050505050565b6119b1838383611b54565b611a6557600073ffffffffffffffffffffffffffffffffffffffff168373ffffffffffffffffffffffffffffffffffffffff1603611a2657806040517f7e273289000000000000000000000000000000000000000000000000000000008152600401611a1d91906121dd565b60405180910390fd5b81816040517f177e802f000000000000000000000000000000000000000000000000000000008152600401611a5c929190612a97565b60405180910390fd5b505050565b611a748383611c15565b611a816000848484611489565b505050565b606060006001611a9584611d0e565b01905060008167ffffffffffffffff811115611ab457611ab36122c8565b5b6040519080825280601f01601f191660200182016040528015611ae65781602001600182028036833780820191505090505b509050600082602001820190505b600115611b49578080600190039150507f3031323334353637383961626364656600000000000000000000000000000000600a86061a8153600a8581611b3d57611b3c612ac0565b5b04945060008503611af4575b819350505050919050565b60008073ffffffffffffffffffffffffffffffffffffffff168373ffffffffffffffffffffffffffffffffffffffff1614158015611c0c57508273ffffffffffffffffffffffffffffffffffffffff168473ffffffffffffffffffffffffffffffffffffffff161480611bcd5750611bcc8484610b93565b5b80611c0b57508273ffffffffffffffffffffffffffffffffffffffff16611bf383610ed6565b73ffffffffffffffffffffffffffffffffffffffff16145b5b90509392505050565b600073ffffffffffffffffffffffffffffffffffffffff168273ffffffffffffffffffffffffffffffffffffffff1603611c875760006040517f64a0ae92000000000000000000000000000000000000000000000000000000008152600401611c7e91906120c7565b60405180910390fd5b6000611c9583836000610f2d565b9050600073ffffffffffffffffffffffffffffffffffffffff168173ffffffffffffffffffffffffffffffffffffffff1614611d095760006040517f73c6ac6e000000000000000000000000000000000000000000000000000000008152600401611d0091906120c7565b60405180910390fd5b505050565b600080600090507a184f03e93ff9f4daa797ed6e38ed64bf6a1f0100000000000000008310611d6c577a184f03e93ff9f4daa797ed6e38ed64bf6a1f0100000000000000008381611d6257611d61612ac0565b5b0492506040810190505b6d04ee2d6d415b85acef81000000008310611da9576d04ee2d6d415b85acef81000000008381611d9f57611d9e612ac0565b5b0492506020810190505b662386f26fc100008310611dd857662386f26fc100008381611dce57611dcd612ac0565b5b0492506010810190505b6305f5e1008310611e01576305f5e1008381611df757611df6612ac0565b5b0492506008810190505b6127108310611e26576127108381611e1c57611e1b612ac0565b5b0492506004810190505b60648310611e495760648381611e3f57611e3e612ac0565b5b0492506002810190505b600a8310611e58576001810190505b80915050919050565b6040518060600160405280600067ffffffffffffffff168152602001600073ffffffffffffffffffffffffffffffffffffffff168152602001600081525090565b6000604051905090565b600080fd5b600080fd5b60007fffffffff0000000000000000000000000000000000000000000000000000000082169050919050565b611eeb81611eb6565b8114611ef657600080fd5b50565b600081359050611f0881611ee2565b92915050565b600060208284031215611f2457611f23611eac565b5b6000611f3284828501611ef9565b91505092915050565b60008115159050919050565b611f5081611f3b565b82525050565b6000602082019050611f6b6000830184611f47565b92915050565b600081519050919050565b600082825260208201905092915050565b60005b83811015611fab578082015181840152602081019050611f90565b60008484015250505050565b6000601f19601f8301169050919050565b6000611fd382611f71565b611fdd8185611f7c565b9350611fed818560208601611f8d565b611ff681611fb7565b840191505092915050565b6000602082019050818103600083015261201b8184611fc8565b905092915050565b6000819050919050565b61203681612023565b811461204157600080fd5b50565b6000813590506120538161202d565b92915050565b60006020828403121561206f5761206e611eac565b5b600061207d84828501612044565b91505092915050565b600073ffffffffffffffffffffffffffffffffffffffff82169050919050565b60006120b182612086565b9050919050565b6120c1816120a6565b82525050565b60006020820190506120dc60008301846120b8565b92915050565b6120eb816120a6565b81146120f657600080fd5b50565b600081359050612108816120e2565b92915050565b6000806040838503121561212557612124611eac565b5b6000612133858286016120f9565b925050602061214485828601612044565b9150509250929050565b60008060006060848603121561216757612166611eac565b5b6000612175868287016120f9565b9350506020612186868287016120f9565b925050604061219786828701612044565b9150509250925092565b6000602082840312156121b7576121b6611eac565b5b60006121c5848285016120f9565b91505092915050565b6121d781612023565b82525050565b60006020820190506121f260008301846121ce565b92915050565b61220181611f3b565b811461220c57600080fd5b50565b60008135905061221e816121f8565b92915050565b6000806040838503121561223b5761223a611eac565b5b6000612249858286016120f9565b925050602061225a8582860161220f565b9150509250929050565b600067ffffffffffffffff82169050919050565b61228181612264565b82525050565b600060608201905061229c6000830186612278565b6122a960208301856120b8565b6122b660408301846121ce565b949350505050565b600080fd5b600080fd5b7f4e487b7100000000000000000000000000000000000000000000000000000000600052604160045260246000fd5b61230082611fb7565b810181811067ffffffffffffffff8211171561231f5761231e6122c8565b5b80604052505050565b6000612332611ea2565b905061233e82826122f7565b919050565b600067ffffffffffffffff82111561235e5761235d6122c8565b5b61236782611fb7565b9050602081019050919050565b82818337600083830152505050565b600061239661239184612343565b612328565b9050828152602081018484840111156123b2576123b16122c3565b5b6123bd848285612374565b509392505050565b600082601f8301126123da576123d96122be565b5b81356123ea848260208601612383565b91505092915050565b6000806000806080858703121561240d5761240c611eac565b5b600061241b878288016120f9565b945050602061242c878288016120f9565b935050604061243d87828801612044565b925050606085013567ffffffffffffffff81111561245e5761245d611eb1565b5b61246a878288016123c5565b91505092959194509250565b61247f81612264565b811461248a57600080fd5b50565b60008135905061249c81612476565b92915050565b600080600080608085870312156124bc576124bb611eac565b5b60006124ca878288016120f9565b94505060206124db8782880161248d565b93505060406124ec878288016120f9565b92505060606124fd87828801612044565b91505092959194509250565b600080604083850312156125205761251f611eac565b5b600061252e858286016120f9565b925050602061253f858286016120f9565b9150509250929050565b61255281612264565b82525050565b612561816120a6565b82525050565b61257081612023565b82525050565b60608201600082015161258c6000850182612549565b50602082015161259f6020850182612558565b5060408201516125b26040850182612567565b50505050565b60006060820190506125cd6000830184612576565b92915050565b7f4e487b7100000000000000000000000000000000000000000000000000000000600052602260045260246000fd5b6000600282049050600182168061261a57607f821691505b60208210810361262d5761262c6125d3565b5b50919050565b600060608201905061264860008301866120b8565b61265560208301856121ce565b61266260408301846120b8565b949350505050565b7f6e6f74206f776e65720000000000000000000000000000000000000000000000600082015250565b60006126a0600983611f7c565b91506126ab8261266a565b602082019050919050565b600060208201905081810360008301526126cf81612693565b9050919050565b600081905092915050565b60006126ec82611f71565b6126f681856126d6565b9350612706818560208601611f8d565b80840191505092915050565b600061271e82856126e1565b915061272a82846126e1565b91508190509392505050565b600081519050919050565b600082825260208201905092915050565b600061275d82612736565b6127678185612741565b9350612777818560208601611f8d565b61278081611fb7565b840191505092915050565b60006080820190506127a060008301876120b8565b6127ad60208301866120b8565b6127ba60408301856121ce565b81810360608301526127cc8184612752565b905095945050505050565b6000815190506127e681611ee2565b92915050565b60006020828403121561280257612801611eac565b5b6000612810848285016127d7565b91505092915050565b60008190508160005260206000209050919050565b60006020601f8301049050919050565b600082821b905092915050565b60006008830261287b7fffffffffffffffffffffffffffffffffffffffffffffffffffffffffffffffff8261283e565b612885868361283e565b95508019841693508086168417925050509392505050565b6000819050919050565b60006128c26128bd6128b884612023565b61289d565b612023565b9050919050565b6000819050919050565b6128dc836128a7565b6128f06128e8826128c9565b84845461284b565b825550505050565b600090565b6129056128f8565b6129108184846128d3565b505050565b5b81811015612934576129296000826128fd565b600181019050612916565b5050565b601f8211156129795761294a81612819565b6129538461282e565b81016020851015612962578190505b61297661296e8561282e565b830182612915565b50505b505050565b600082821c905092915050565b600061299c6000198460080261297e565b1980831691505092915050565b60006129b5838361298b565b9150826002028217905092915050565b6129ce82611f71565b67ffffffffffffffff8111156129e7576129e66122c8565b5b6129f18254612602565b6129fc828285612938565b600060209050601f831160018114612a2f5760008415612a1d578287015190505b612a2785826129a9565b865550612a8f565b601f198416612a3d86612819565b60005b82811015612a6557848901518255600182019150602085019450602081019050612a40565b86831015612a825784890151612a7e601f89168261298b565b8355505b6001600288020188555050505b505050505050565b6000604082019050612aac60008301856120b8565b612ab960208301846121ce565b9392505050565b7f4e487b7100000000000000000000000000000000000000000000000000000000600052601260045260246000fdfe68747470733a2f2f697066732e696f2f697066732f516d59754b593435417138374c654c315235646862316871484c70365a46624a614350386a78714b4d314d5836792f626162655f727574685f312e6a736f6ea2646970667358221220d80ccd203eaf1248ba768c9b9443264059ca5e1f04e1e214e0e26690d4a2cf9a64736f6c63430008140033",
  "linkReferences": {},
  "deployedLinkReferences": {}
}