{
  "_format": "hh-sol-artifact-1",
  "contractName": "SWNFT",
  "sourceName": "contracts/tokens/SWNFT.sol",
  "abi": [
    {
      "inputs": [
        {
          "internalType": "address",
          "name": "whitelist",
          "type": "address"
        }
      ],
      "stateMutability": "nonpayable",
      "type": "constructor"
    },
    {
      "inputs": [
        {
          "internalType": "address",
          "name": "sender",
          "type": "address"
        },
        {
          "internalType": "uint256",
          "name": "tokenId",
          "type": "uint256"
        },
        {
          "internalType": "address",
          "name": "owner",
          "type": "address"
        }
      ],
      "name": "ERC721IncorrectOwner",
      "type": "error"
    },
    {
      "inputs": [
        {
          "internalType": "address",
          "name": "operator",
          "type": "address"
        },
        {
          "internalType": "uint256",
          "name": "tokenId",
          "type": "uint256"
        }
      ],
      "name": "ERC721InsufficientApproval",
      "type": "error"
    },
    {
      "inputs": [
        {
          "internalType": "address",
          "name": "approver",
          "type": "address"
        }
      ],
      "name": "ERC721InvalidApprover",
      "type": "error"
    },
    {
      "inputs": [
        {
          "internalType": "address",
          "name": "operator",
          "type": "address"
        }
      ],
      "name": "ERC721InvalidOperator",
      "type": "error"
    },
    {
      "inputs": [
        {
          "internalType": "address",
          "name": "owner",
          "type": "address"
        }
      ],
      "name": "ERC721InvalidOwner",
      "type": "error"
    },
    {
      "inputs": [
        {
          "internalType": "address",
          "name": "receiver",
          "type": "address"
        }
      ],
      "name": "ERC721InvalidReceiver",
      "type": "error"
    },
    {
      "inputs": [
        {
          "internalType": "address",
          "name": "sender",
          "type": "address"
        }
      ],
      "name": "ERC721InvalidSender",
      "type": "error"
    },
    {
      "inputs": [
        {
          "internalType": "uint256",
          "name": "tokenId",
          "type": "uint256"
        }
      ],
      "name": "ERC721NonexistentToken",
      "type": "error"
    },
    {
      "inputs": [
        {
          "internalType": "address",
          "name": "owner",
          "type": "address"
        }
      ],
      "name": "OwnableInvalidOwner",
      "type": "error"
    },
    {
      "inputs": [
        {
          "internalType": "address",
          "name": "account",
          "type": "address"
        }
      ],
      "name": "OwnableUnauthorizedAccount",
      "type": "error"
    },
    {
      "anonymous": false,
      "inputs": [
        {
          "indexed": true,
          "internalType": "address",
          "name": "owner",
          "type": "address"
        },
        {
          "indexed": true,
          "internalType": "address",
          "name": "approved",
          "type": "address"
        },
        {
          "indexed": true,
          "internalType": "uint256",
          "name": "tokenId",
          "type": "uint256"
        }
      ],
      "name": "Approval",
      "type": "event"
    },
    {
      "anonymous": false,
      "inputs": [
        {
          "indexed": true,
          "internalType": "address",
          "name": "owner",
          "type": "address"
        },
        {
          "indexed": true,
          "internalType": "address",
          "name": "operator",
          "type": "address"
        },
        {
          "indexed": false,
          "internalType": "bool",
          "name": "approved",
          "type": "bool"
        }
      ],
      "name": "ApprovalForAll",
      "type": "event"
    },
    {
      "anonymous": false,
      "inputs": [
        {
          "indexed": false,
          "internalType": "uint256",
          "name": "_fromTokenId",
          "type": "uint256"
        },
        {
          "indexed": false,
          "internalType": "uint256",
          "name": "_toTokenId",
          "type": "uint256"
        }
      ],
      "name": "BatchMetadataUpdate",
      "type": "event"
    },
    {
      "anonymous": false,
      "inputs": [
        {
          "indexed": false,
          "internalType": "uint256",
          "name": "_tokenId",
          "type": "uint256"
        }
      ],
      "name": "MetadataUpdate",
      "type": "event"
    },
    {
      "anonymous": false,
      "inputs": [
        {
          "indexed": true,
          "internalType": "address",
          "name": "previousOwner",
          "type": "address"
        },
        {
          "indexed": true,
          "internalType": "address",
          "name": "newOwner",
          "type": "address"
        }
      ],
      "name": "OwnershipTransferred",
      "type": "event"
    },
    {
      "anonymous": false,
      "inputs": [
        {
          "indexed": true,
          "internalType": "address",
          "name": "from",
          "type": "address"
        },
        {
          "indexed": true,
          "internalType": "address",
          "name": "to",
          "type": "address"
        },
        {
          "indexed": true,
          "internalType": "uint256",
          "name": "tokenId",
          "type": "uint256"
        }
      ],
      "name": "Transfer",
      "type": "event"
    },
    {
      "inputs": [
        {
          "internalType": "uint256",
          "name": "tokenId",
          "type": "uint256"
        }
      ],
      "name": "accept",
      "outputs": [],
      "stateMutability": "nonpayable",
      "type": "function"
    },
    {
      "inputs": [
        {
          "internalType": "address",
          "name": "to",
          "type": "address"
        },
        {
          "internalType": "uint256",
          "name": "tokenId",
          "type": "uint256"
        }
      ],
      "name": "approve",
      "outputs": [],
      "stateMutability": "nonpayable",
      "type": "function"
    },
    {
      "inputs": [
        {
          "internalType": "address",
          "name": "owner",
          "type": "address"
        }
      ],
      "name": "balanceOf",
      "outputs": [
        {
          "internalType": "uint256",
          "name": "",
          "type": "uint256"
        }
      ],
      "stateMutability": "view",
      "type": "function"
    },
    {
      "inputs": [
        {
          "internalType": "uint256",
          "name": "tokenId",
          "type": "uint256"
        }
      ],
      "name": "cancel",
      "outputs": [],
      "stateMutability": "nonpayable",
      "type": "function"
    },
    {
      "inputs": [
        {
          "internalType": "uint256",
          "name": "tokenId",
          "type": "uint256"
        }
      ],
      "name": "claim",
      "outputs": [],
      "stateMutability": "nonpayable",
      "type": "function"
    },
    {
      "inputs": [],
      "name": "counter",
      "outputs": [
        {
          "internalType": "uint256",
          "name": "",
          "type": "uint256"
        }
      ],
      "stateMutability": "view",
      "type": "function"
    },
    {
      "inputs": [
        {
          "internalType": "uint256",
          "name": "tokenId",
          "type": "uint256"
        }
      ],
      "name": "decline",
      "outputs": [],
      "stateMutability": "nonpayable",
      "type": "function"
    },
    {
      "inputs": [
        {
          "internalType": "uint256",
          "name": "tokenId",
          "type": "uint256"
        }
      ],
      "name": "getApproved",
      "outputs": [
        {
          "internalType": "address",
          "name": "",
          "type": "address"
        }
      ],
      "stateMutability": "view",
      "type": "function"
    },
    {
      "inputs": [
        {
          "internalType": "uint256",
          "name": "result",
          "type": "uint256"
        }
      ],
      "name": "getResult",
      "outputs": [
        {
          "components": [
            {
              "internalType": "uint256",
              "name": "gameId",
              "type": "uint256"
            },
            {
              "internalType": "address",
              "name": "player1",
              "type": "address"
            },
            {
              "internalType": "address",
              "name": "player2",
              "type": "address"
            },
            {
              "internalType": "uint256",
              "name": "p1Position",
              "type": "uint256"
            },
            {
              "internalType": "uint256",
              "name": "p2Position",
              "type": "uint256"
            },
            {
              "internalType": "enum SWNFT.GameState",
              "name": "started",
              "type": "uint8"
            },
            {
              "internalType": "uint256",
              "name": "p1TokenId",
              "type": "uint256"
            },
            {
              "internalType": "uint256",
              "name": "p2TokenId",
              "type": "uint256"
            },
            {
              "internalType": "address",
              "name": "p1TokenAddress",
              "type": "address"
            },
            {
              "internalType": "address",
              "name": "p2TokenAddress",
              "type": "address"
            }
          ],
          "internalType": "struct SWNFT.Game",
          "name": "game",
          "type": "tuple"
        }
      ],
      "stateMutability": "view",
      "type": "function"
    },
    {
      "inputs": [
        {
          "internalType": "address",
          "name": "owner",
          "type": "address"
        },
        {
          "internalType": "address",
          "name": "operator",
          "type": "address"
        }
      ],
      "name": "isApprovedForAll",
      "outputs": [
        {
          "internalType": "bool",
          "name": "",
          "type": "bool"
        }
      ],
      "stateMutability": "view",
      "type": "function"
    },
    {
      "inputs": [
        {
          "internalType": "address",
          "name": "player",
          "type": "address"
        },
        {
          "internalType": "uint256",
          "name": "gameId",
          "type": "uint256"
        }
      ],
      "name": "mint",
      "outputs": [],
      "stateMutability": "nonpayable",
      "type": "function"
    },
    {
      "inputs": [],
      "name": "name",
      "outputs": [
        {
          "internalType": "string",
          "name": "",
          "type": "string"
        }
      ],
      "stateMutability": "view",
      "type": "function"
    },
    {
      "inputs": [
        {
          "internalType": "address",
          "name": "",
          "type": "address"
        },
        {
          "internalType": "address",
          "name": "from",
          "type": "address"
        },
        {
          "internalType": "uint256",
          "name": "tokenId",
          "type": "uint256"
        },
        {
          "internalType": "bytes",
          "name": "data",
          "type": "bytes"
        }
      ],
      "name": "onERC721Received",
      "outputs": [
        {
          "internalType": "bytes4",
          "name": "",
          "type": "bytes4"
        }
      ],
      "stateMutability": "nonpayable",
      "type": "function"
    },
    {
      "inputs": [],
      "name": "owner",
      "outputs": [
        {
          "internalType": "address",
          "name": "",
          "type": "address"
        }
      ],
      "stateMutability": "view",
      "type": "function"
    },
    {
      "inputs": [
        {
          "internalType": "uint256",
          "name": "tokenId",
          "type": "uint256"
        }
      ],
      "name": "ownerOf",
      "outputs": [
        {
          "internalType": "address",
          "name": "",
          "type": "address"
        }
      ],
      "stateMutability": "view",
      "type": "function"
    },
    {
      "inputs": [],
      "name": "renounceOwnership",
      "outputs": [],
      "stateMutability": "nonpayable",
      "type": "function"
    },
    {
      "inputs": [
        {
          "internalType": "uint256",
          "name": "",
          "type": "uint256"
        }
      ],
      "name": "results",
      "outputs": [
        {
          "internalType": "uint256",
          "name": "gameId",
          "type": "uint256"
        },
        {
          "internalType": "address",
          "name": "player1",
          "type": "address"
        },
        {
          "internalType": "address",
          "name": "player2",
          "type": "address"
        },
        {
          "internalType": "uint256",
          "name": "p1Position",
          "type": "uint256"
        },
        {
          "internalType": "uint256",
          "name": "p2Position",
          "type": "uint256"
        },
        {
          "internalType": "enum SWNFT.GameState",
          "name": "started",
          "type": "uint8"
        },
        {
          "internalType": "uint256",
          "name": "p1TokenId",
          "type": "uint256"
        },
        {
          "internalType": "uint256",
          "name": "p2TokenId",
          "type": "uint256"
        },
        {
          "internalType": "address",
          "name": "p1TokenAddress",
          "type": "address"
        },
        {
          "internalType": "address",
          "name": "p2TokenAddress",
          "type": "address"
        }
      ],
      "stateMutability": "view",
      "type": "function"
    },
    {
      "inputs": [
        {
          "internalType": "address",
          "name": "from",
          "type": "address"
        },
        {
          "internalType": "address",
          "name": "to",
          "type": "address"
        },
        {
          "internalType": "uint256",
          "name": "tokenId",
          "type": "uint256"
        }
      ],
      "name": "safeTransferFrom",
      "outputs": [],
      "stateMutability": "nonpayable",
      "type": "function"
    },
    {
      "inputs": [
        {
          "internalType": "address",
          "name": "from",
          "type": "address"
        },
        {
          "internalType": "address",
          "name": "to",
          "type": "address"
        },
        {
          "internalType": "uint256",
          "name": "tokenId",
          "type": "uint256"
        },
        {
          "internalType": "bytes",
          "name": "data",
          "type": "bytes"
        }
      ],
      "name": "safeTransferFrom",
      "outputs": [],
      "stateMutability": "nonpayable",
      "type": "function"
    },
    {
      "inputs": [
        {
          "internalType": "address",
          "name": "operator",
          "type": "address"
        },
        {
          "internalType": "bool",
          "name": "approved",
          "type": "bool"
        }
      ],
      "name": "setApprovalForAll",
      "outputs": [],
      "stateMutability": "nonpayable",
      "type": "function"
    },
    {
      "inputs": [
        {
          "internalType": "uint256",
          "name": "",
          "type": "uint256"
        }
      ],
      "name": "stakeWiseResults",
      "outputs": [
        {
          "internalType": "uint256",
          "name": "",
          "type": "uint256"
        }
      ],
      "stateMutability": "view",
      "type": "function"
    },
    {
      "inputs": [
        {
          "internalType": "bytes4",
          "name": "interfaceId",
          "type": "bytes4"
        }
      ],
      "name": "supportsInterface",
      "outputs": [
        {
          "internalType": "bool",
          "name": "",
          "type": "bool"
        }
      ],
      "stateMutability": "view",
      "type": "function"
    },
    {
      "inputs": [],
      "name": "symbol",
      "outputs": [
        {
          "internalType": "string",
          "name": "",
          "type": "string"
        }
      ],
      "stateMutability": "view",
      "type": "function"
    },
    {
      "inputs": [
        {
          "internalType": "uint256",
          "name": "tokenId",
          "type": "uint256"
        }
      ],
      "name": "tokenURI",
      "outputs": [
        {
          "internalType": "string",
          "name": "",
          "type": "string"
        }
      ],
      "stateMutability": "view",
      "type": "function"
    },
    {
      "inputs": [
        {
          "internalType": "address",
          "name": "from",
          "type": "address"
        },
        {
          "internalType": "address",
          "name": "to",
          "type": "address"
        },
        {
          "internalType": "uint256",
          "name": "tokenId",
          "type": "uint256"
        }
      ],
      "name": "transferFrom",
      "outputs": [],
      "stateMutability": "nonpayable",
      "type": "function"
    },
    {
      "inputs": [
        {
          "internalType": "address",
          "name": "newOwner",
          "type": "address"
        }
      ],
      "name": "transferOwnership",
      "outputs": [],
      "stateMutability": "nonpayable",
      "type": "function"
    },
    {
      "inputs": [
        {
          "internalType": "uint256",
          "name": "gameId",
          "type": "uint256"
        },
        {
          "internalType": "uint256",
          "name": "result",
          "type": "uint256"
        }
      ],
      "name": "updateResult",
      "outputs": [],
      "stateMutability": "nonpayable",
      "type": "function"
    }
  ],
  "bytecode": "0x60a06040526000600a553480156200001657600080fd5b5060405162005bf438038062005bf483398181016040528101906200003c9190620002c1565b336040518060400160405280600e81526020017f5374616b65576973652047616d650000000000000000000000000000000000008152506040518060400160405280600381526020017f53574700000000000000000000000000000000000000000000000000000000008152508160009081620000ba91906200056d565b508060019081620000cc91906200056d565b505050600073ffffffffffffffffffffffffffffffffffffffff168173ffffffffffffffffffffffffffffffffffffffff1603620001445760006040517f1e4fbdf70000000000000000000000000000000000000000000000000000000081526004016200013b919062000665565b60405180910390fd5b62000155816200019160201b60201c565b508073ffffffffffffffffffffffffffffffffffffffff1660808173ffffffffffffffffffffffffffffffffffffffff16815250505062000682565b6000600760009054906101000a900473ffffffffffffffffffffffffffffffffffffffff16905081600760006101000a81548173ffffffffffffffffffffffffffffffffffffffff021916908373ffffffffffffffffffffffffffffffffffffffff1602179055508173ffffffffffffffffffffffffffffffffffffffff168173ffffffffffffffffffffffffffffffffffffffff167f8be0079c531659141344cd1fd0a4f28419497f9722a3daafe3b4186f6b6457e060405160405180910390a35050565b600080fd5b600073ffffffffffffffffffffffffffffffffffffffff82169050919050565b600062000289826200025c565b9050919050565b6200029b816200027c565b8114620002a757600080fd5b50565b600081519050620002bb8162000290565b92915050565b600060208284031215620002da57620002d962000257565b5b6000620002ea84828501620002aa565b91505092915050565b600081519050919050565b7f4e487b7100000000000000000000000000000000000000000000000000000000600052604160045260246000fd5b7f4e487b7100000000000000000000000000000000000000000000000000000000600052602260045260246000fd5b600060028204905060018216806200037557607f821691505b6020821081036200038b576200038a6200032d565b5b50919050565b60008190508160005260206000209050919050565b60006020601f8301049050919050565b600082821b905092915050565b600060088302620003f57fffffffffffffffffffffffffffffffffffffffffffffffffffffffffffffffff82620003b6565b620004018683620003b6565b95508019841693508086168417925050509392505050565b6000819050919050565b6000819050919050565b60006200044e62000448620004428462000419565b62000423565b62000419565b9050919050565b6000819050919050565b6200046a836200042d565b62000482620004798262000455565b848454620003c3565b825550505050565b600090565b620004996200048a565b620004a68184846200045f565b505050565b5b81811015620004ce57620004c26000826200048f565b600181019050620004ac565b5050565b601f8211156200051d57620004e78162000391565b620004f284620003a6565b8101602085101562000502578190505b6200051a6200051185620003a6565b830182620004ab565b50505b505050565b600082821c905092915050565b6000620005426000198460080262000522565b1980831691505092915050565b60006200055d83836200052f565b9150826002028217905092915050565b6200057882620002f3565b67ffffffffffffffff811115620005945762000593620002fe565b5b620005a082546200035c565b620005ad828285620004d2565b600060209050601f831160018114620005e55760008415620005d0578287015190505b620005dc85826200054f565b8655506200064c565b601f198416620005f58662000391565b60005b828110156200061f57848901518255600182019150602085019450602081019050620005f8565b868310156200063f57848901516200063b601f8916826200052f565b8355505b6001600288020188555050505b505050505050565b6200065f816200027c565b82525050565b60006020820190506200067c600083018462000654565b92915050565b6080516155566200069e60003960006106aa01526155566000f3fe608060405234801561001057600080fd5b50600436106101a95760003560e01c806361bc221a116100f9578063995e433911610097578063b88d4fde11610071578063b88d4fde146104d1578063c87b56dd146104ed578063e985e9c51461051d578063f2fde38b1461054d576101a9565b8063995e433914610469578063a0355f4e14610499578063a22cb465146104b5576101a9565b806370a08231116100d357806370a08231146103f3578063715018a6146104235780638da5cb5b1461042d57806395d89b411461044b576101a9565b806361bc221a146103895780636352211e146103a7578063652a6bfb146103d7576101a9565b806319b05f4911610166578063379607f511610140578063379607f51461031957806340c10f191461033557806340e58ee51461035157806342842e0e1461036d576101a9565b806319b05f49146102a85780631b0c27da146102c457806323b872dd146102fd576101a9565b806301ffc9a7146101ae57806306fdde03146101de578063081812fc146101fc578063095ea7b31461022c5780630a23116a14610248578063150b7a0214610278575b600080fd5b6101c860048036038101906101c39190613ef1565b610569565b6040516101d59190613f39565b60405180910390f35b6101e66105ca565b6040516101f39190613fe4565b60405180910390f35b6102166004803603810190610211919061403c565b61065c565b60405161022391906140aa565b60405180910390f35b610246600480360381019061024191906140f1565b610678565b005b610262600480360381019061025d919061403c565b61068e565b60405161026f9190614140565b60405180910390f35b610292600480360381019061028d9190614290565b6106a6565b60405161029f9190614322565b60405180910390f35b6102c260048036038101906102bd919061403c565b610da9565b005b6102de60048036038101906102d9919061403c565b6112c0565b6040516102f49a999897969594939291906143b4565b60405180910390f35b61031760048036038101906103129190614450565b6113a1565b005b610333600480360381019061032e919061403c565b6114a3565b005b61034f600480360381019061034a91906140f1565b6119bc565b005b61036b6004803603810190610366919061403c565b611c3c565b005b61038760048036038101906103829190614450565b61216f565b005b61039161218f565b60405161039e9190614140565b60405180910390f35b6103c160048036038101906103bc919061403c565b612195565b6040516103ce91906140aa565b60405180910390f35b6103f160048036038101906103ec91906144a3565b6121a7565b005b61040d600480360381019061040891906144e3565b612264565b60405161041a9190614140565b60405180910390f35b61042b61231e565b005b610435612332565b60405161044291906140aa565b60405180910390f35b61045361235c565b6040516104609190613fe4565b60405180910390f35b610483600480360381019061047e919061403c565b6123ee565b6040516104909190614609565b60405180910390f35b6104b360048036038101906104ae919061403c565b6125e1565b005b6104cf60048036038101906104ca9190614651565b612a39565b005b6104eb60048036038101906104e69190614290565b612a4f565b005b6105076004803603810190610502919061403c565b612a6c565b6040516105149190613fe4565b60405180910390f35b61053760048036038101906105329190614691565b612b7f565b6040516105449190613f39565b60405180910390f35b610567600480360381019061056291906144e3565b612c13565b005b6000634906490660e01b7bffffffffffffffffffffffffffffffffffffffffffffffffffffffff1916827bffffffffffffffffffffffffffffffffffffffffffffffffffffffff191614806105c357506105c282612c99565b5b9050919050565b6060600080546105d990614700565b80601f016020809104026020016040519081016040528092919081815260200182805461060590614700565b80156106525780601f1061062757610100808354040283529160200191610652565b820191906000526020600020905b81548152906001019060200180831161063557829003601f168201915b5050505050905090565b600061066782612d7b565b5061067182612e03565b9050919050565b61068a8282610685612e40565b612e48565b5050565b60096020528060005260406000206000915090505481565b60007f000000000000000000000000000000000000000000000000000000000000000073ffffffffffffffffffffffffffffffffffffffff16633af32abf336040518263ffffffff1660e01b815260040161070191906140aa565b602060405180830381865afa15801561071e573d6000803e3d6000fd5b505050506040513d601f19601f820116820180604052508101906107429190614746565b610781576040517f08c379a0000000000000000000000000000000000000000000000000000000008152600401610778906147bf565b60405180910390fd5b6000808380602001905181019061079891906147f4565b9150915060006008600084815260200190815260200160002060405180610140016040529081600082015481526020016001820160009054906101000a900473ffffffffffffffffffffffffffffffffffffffff1673ffffffffffffffffffffffffffffffffffffffff1673ffffffffffffffffffffffffffffffffffffffff1681526020016002820160009054906101000a900473ffffffffffffffffffffffffffffffffffffffff1673ffffffffffffffffffffffffffffffffffffffff1673ffffffffffffffffffffffffffffffffffffffff16815260200160038201548152602001600482015481526020016005820160009054906101000a900460ff1660038111156108ac576108ab61433d565b5b60038111156108be576108bd61433d565b5b815260200160068201548152602001600782015481526020016008820160009054906101000a900473ffffffffffffffffffffffffffffffffffffffff1673ffffffffffffffffffffffffffffffffffffffff1673ffffffffffffffffffffffffffffffffffffffff1681526020016009820160009054906101000a900473ffffffffffffffffffffffffffffffffffffffff1673ffffffffffffffffffffffffffffffffffffffff1673ffffffffffffffffffffffffffffffffffffffff1681525050905060008160000151116109cb576040517f08c379a00000000000000000000000000000000000000000000000000000000081526004016109c290614880565b60405180910390fd5b60008211610a0e576040517f08c379a0000000000000000000000000000000000000000000000000000000008152600401610a05906148ec565b60405180910390fd5b60006003811115610a2257610a2161433d565b5b8160a001516003811115610a3957610a3861433d565b5b14610a79576040517f08c379a0000000000000000000000000000000000000000000000000000000008152600401610a7090614958565b60405180910390fd5b8673ffffffffffffffffffffffffffffffffffffffff16816020015173ffffffffffffffffffffffffffffffffffffffff1603610bfa57600073ffffffffffffffffffffffffffffffffffffffff1681610100015173ffffffffffffffffffffffffffffffffffffffff1614610b24576040517f08c379a0000000000000000000000000000000000000000000000000000000008152600401610b1b906149c4565b60405180910390fd5b336008600085815260200190815260200160002060080160006101000a81548173ffffffffffffffffffffffffffffffffffffffff021916908373ffffffffffffffffffffffffffffffffffffffff16021790555085600860008581526020019081526020016000206006018190555081816080015103610bda576040517f08c379a0000000000000000000000000000000000000000000000000000000008152600401610bd190614a30565b60405180910390fd5b816008600085815260200190815260200160002060030181905550610d94565b600073ffffffffffffffffffffffffffffffffffffffff16816040015173ffffffffffffffffffffffffffffffffffffffff1614610c6d576040517f08c379a0000000000000000000000000000000000000000000000000000000008152600401610c6490614a9c565b60405180910390fd5b866008600085815260200190815260200160002060020160006101000a81548173ffffffffffffffffffffffffffffffffffffffff021916908373ffffffffffffffffffffffffffffffffffffffff160217905550336008600085815260200190815260200160002060090160006101000a81548173ffffffffffffffffffffffffffffffffffffffff021916908373ffffffffffffffffffffffffffffffffffffffff16021790555085600860008581526020019081526020016000206007018190555081816060015103610d78576040517f08c379a0000000000000000000000000000000000000000000000000000000008152600401610d6f90614b08565b60405180910390fd5b8160086000858152602001908152602001600020600401819055505b63150b7a0260e01b9350505050949350505050565b803373ffffffffffffffffffffffffffffffffffffffff166008600083815260200190815260200160002060010160009054906101000a900473ffffffffffffffffffffffffffffffffffffffff1673ffffffffffffffffffffffffffffffffffffffff1614610e4e576040517f08c379a0000000000000000000000000000000000000000000000000000000008152600401610e4590614b74565b60405180910390fd5b60006003811115610e6257610e6161433d565b5b6008600084815260200190815260200160002060050160009054906101000a900460ff166003811115610e9857610e9761433d565b5b14610ed8576040517f08c379a0000000000000000000000000000000000000000000000000000000008152600401610ecf90614be0565b60405180910390fd5b600073ffffffffffffffffffffffffffffffffffffffff166008600084815260200190815260200160002060080160009054906101000a900473ffffffffffffffffffffffffffffffffffffffff1673ffffffffffffffffffffffffffffffffffffffff1603610f7d576040517f08c379a0000000000000000000000000000000000000000000000000000000008152600401610f7490614c4c565b60405180910390fd5b600073ffffffffffffffffffffffffffffffffffffffff166008600084815260200190815260200160002060090160009054906101000a900473ffffffffffffffffffffffffffffffffffffffff1673ffffffffffffffffffffffffffffffffffffffff1603611022576040517f08c379a000000000000000000000000000000000000000000000000000000000815260040161101990614cb8565b60405180910390fd5b600073ffffffffffffffffffffffffffffffffffffffff166008600084815260200190815260200160002060020160009054906101000a900473ffffffffffffffffffffffffffffffffffffffff1673ffffffffffffffffffffffffffffffffffffffff16036110c7576040517f08c379a00000000000000000000000000000000000000000000000000000000081526004016110be90614d24565b60405180910390fd5b600073ffffffffffffffffffffffffffffffffffffffff166008600084815260200190815260200160002060080160009054906101000a900473ffffffffffffffffffffffffffffffffffffffff1673ffffffffffffffffffffffffffffffffffffffff160361116c576040517f08c379a000000000000000000000000000000000000000000000000000000000815260040161116390614c4c565b60405180910390fd5b600073ffffffffffffffffffffffffffffffffffffffff166008600084815260200190815260200160002060080160009054906101000a900473ffffffffffffffffffffffffffffffffffffffff1673ffffffffffffffffffffffffffffffffffffffff1603611211576040517f08c379a000000000000000000000000000000000000000000000000000000000815260040161120890614cb8565b60405180910390fd5b60006009600060086000868152602001908152602001600020600001548152602001908152602001600020541461127d576040517f08c379a000000000000000000000000000000000000000000000000000000000815260040161127490614d90565b60405180910390fd5b60016008600084815260200190815260200160002060050160006101000a81548160ff021916908360038111156112b7576112b661433d565b5b02179055505050565b60086020528060005260406000206000915090508060000154908060010160009054906101000a900473ffffffffffffffffffffffffffffffffffffffff16908060020160009054906101000a900473ffffffffffffffffffffffffffffffffffffffff16908060030154908060040154908060050160009054906101000a900460ff16908060060154908060070154908060080160009054906101000a900473ffffffffffffffffffffffffffffffffffffffff16908060090160009054906101000a900473ffffffffffffffffffffffffffffffffffffffff1690508a565b600073ffffffffffffffffffffffffffffffffffffffff168273ffffffffffffffffffffffffffffffffffffffff16036114135760006040517f64a0ae9200000000000000000000000000000000000000000000000000000000815260040161140a91906140aa565b60405180910390fd5b60006114278383611422612e40565b612e5a565b90508373ffffffffffffffffffffffffffffffffffffffff168173ffffffffffffffffffffffffffffffffffffffff161461149d578382826040517f64283d7b00000000000000000000000000000000000000000000000000000000815260040161149493929190614db0565b60405180910390fd5b50505050565b60006008600083815260200190815260200160002060405180610140016040529081600082015481526020016001820160009054906101000a900473ffffffffffffffffffffffffffffffffffffffff1673ffffffffffffffffffffffffffffffffffffffff1673ffffffffffffffffffffffffffffffffffffffff1681526020016002820160009054906101000a900473ffffffffffffffffffffffffffffffffffffffff1673ffffffffffffffffffffffffffffffffffffffff1673ffffffffffffffffffffffffffffffffffffffff16815260200160038201548152602001600482015481526020016005820160009054906101000a900460ff1660038111156115b3576115b261433d565b5b60038111156115c5576115c461433d565b5b815260200160068201548152602001600782015481526020016008820160009054906101000a900473ffffffffffffffffffffffffffffffffffffffff1673ffffffffffffffffffffffffffffffffffffffff1673ffffffffffffffffffffffffffffffffffffffff1681526020016009820160009054906101000a900473ffffffffffffffffffffffffffffffffffffffff1673ffffffffffffffffffffffffffffffffffffffff1673ffffffffffffffffffffffffffffffffffffffff168152505090503373ffffffffffffffffffffffffffffffffffffffff16816020015173ffffffffffffffffffffffffffffffffffffffff1614806116f857503373ffffffffffffffffffffffffffffffffffffffff16816040015173ffffffffffffffffffffffffffffffffffffffff16145b611737576040517f08c379a000000000000000000000000000000000000000000000000000000000815260040161172e90614e33565b60405180910390fd5b600060096000836000015181526020019081526020016000205411611791576040517f08c379a000000000000000000000000000000000000000000000000000000000815260040161178890614e9f565b60405180910390fd5b3373ffffffffffffffffffffffffffffffffffffffff16816020015173ffffffffffffffffffffffffffffffffffffffff161480156117ea57508060600151600960008360000151815260200190815260200160002054145b8061184a57503373ffffffffffffffffffffffffffffffffffffffff16816040015173ffffffffffffffffffffffffffffffffffffffff1614801561184957508060800151600960008360000151815260200190815260200160002054145b5b611889576040517f08c379a000000000000000000000000000000000000000000000000000000000815260040161188090614f0b565b60405180910390fd5b60036008600084815260200190815260200160002060050160006101000a81548160ff021916908360038111156118c3576118c261433d565b5b021790555080610100015173ffffffffffffffffffffffffffffffffffffffff166342842e0e30338460c001516040518463ffffffff1660e01b815260040161190e93929190614f2b565b600060405180830381600087803b15801561192857600080fd5b505af115801561193c573d6000803e3d6000fd5b5050505080610120015173ffffffffffffffffffffffffffffffffffffffff166342842e0e30338460e001516040518463ffffffff1660e01b815260040161198693929190614f2b565b600060405180830381600087803b1580156119a057600080fd5b505af11580156119b4573d6000803e3d6000fd5b505050505050565b6119c4612f76565b600a60008154809291906119d790614f91565b91905055506040518061014001604052808281526020018373ffffffffffffffffffffffffffffffffffffffff168152602001600073ffffffffffffffffffffffffffffffffffffffff168152602001600081526020016000815260200160006003811115611a4957611a4861433d565b5b81526020016000815260200160008152602001600073ffffffffffffffffffffffffffffffffffffffff168152602001600073ffffffffffffffffffffffffffffffffffffffff1681525060086000600a5481526020019081526020016000206000820151816000015560208201518160010160006101000a81548173ffffffffffffffffffffffffffffffffffffffff021916908373ffffffffffffffffffffffffffffffffffffffff16021790555060408201518160020160006101000a81548173ffffffffffffffffffffffffffffffffffffffff021916908373ffffffffffffffffffffffffffffffffffffffff160217905550606082015181600301556080820151816004015560a08201518160050160006101000a81548160ff02191690836003811115611b8057611b7f61433d565b5b021790555060c0820151816006015560e082015181600701556101008201518160080160006101000a81548173ffffffffffffffffffffffffffffffffffffffff021916908373ffffffffffffffffffffffffffffffffffffffff1602179055506101208201518160090160006101000a81548173ffffffffffffffffffffffffffffffffffffffff021916908373ffffffffffffffffffffffffffffffffffffffff160217905550905050611c3882600a54612ffd565b5050565b803373ffffffffffffffffffffffffffffffffffffffff166008600083815260200190815260200160002060010160009054906101000a900473ffffffffffffffffffffffffffffffffffffffff1673ffffffffffffffffffffffffffffffffffffffff1614611ce1576040517f08c379a0000000000000000000000000000000000000000000000000000000008152600401611cd890614b74565b60405180910390fd5b60006008600084815260200190815260200160002060405180610140016040529081600082015481526020016001820160009054906101000a900473ffffffffffffffffffffffffffffffffffffffff1673ffffffffffffffffffffffffffffffffffffffff1673ffffffffffffffffffffffffffffffffffffffff1681526020016002820160009054906101000a900473ffffffffffffffffffffffffffffffffffffffff1673ffffffffffffffffffffffffffffffffffffffff1673ffffffffffffffffffffffffffffffffffffffff16815260200160038201548152602001600482015481526020016005820160009054906101000a900460ff166003811115611df157611df061433d565b5b6003811115611e0357611e0261433d565b5b815260200160068201548152602001600782015481526020016008820160009054906101000a900473ffffffffffffffffffffffffffffffffffffffff1673ffffffffffffffffffffffffffffffffffffffff1673ffffffffffffffffffffffffffffffffffffffff1681526020016009820160009054906101000a900473ffffffffffffffffffffffffffffffffffffffff1673ffffffffffffffffffffffffffffffffffffffff1673ffffffffffffffffffffffffffffffffffffffff16815250509050600060096000600860008781526020019081526020016000206000015481526020019081526020016000205414611f35576040517f08c379a0000000000000000000000000000000000000000000000000000000008152600401611f2c90615025565b60405180910390fd5b60006003811115611f4957611f4861433d565b5b6008600085815260200190815260200160002060050160009054906101000a900460ff166003811115611f7f57611f7e61433d565b5b14611fbf576040517f08c379a0000000000000000000000000000000000000000000000000000000008152600401611fb690615091565b60405180910390fd5b600073ffffffffffffffffffffffffffffffffffffffff1681610100015173ffffffffffffffffffffffffffffffffffffffff16146120755780610100015173ffffffffffffffffffffffffffffffffffffffff166342842e0e3083602001518460c001516040518463ffffffff1660e01b815260040161204293929190614f2b565b600060405180830381600087803b15801561205c57600080fd5b505af1158015612070573d6000803e3d6000fd5b505050505b600073ffffffffffffffffffffffffffffffffffffffff1681610120015173ffffffffffffffffffffffffffffffffffffffff161461212b5780610120015173ffffffffffffffffffffffffffffffffffffffff166342842e0e3083604001518460e001516040518463ffffffff1660e01b81526004016120f893929190614f2b565b600060405180830381600087803b15801561211257600080fd5b505af1158015612126573d6000803e3d6000fd5b505050505b60026008600085815260200190815260200160002060050160006101000a81548160ff021916908360038111156121655761216461433d565b5b0217905550505050565b61218a83838360405180602001604052806000815250612a4f565b505050565b600a5481565b60006121a082612d7b565b9050919050565b6121af612f76565b600081116121f2576040517f08c379a00000000000000000000000000000000000000000000000000000000081526004016121e990615123565b60405180910390fd5b6000600960008481526020019081526020016000205414612248576040517f08c379a000000000000000000000000000000000000000000000000000000000815260040161223f9061518f565b60405180910390fd5b8060096000848152602001908152602001600020819055505050565b60008073ffffffffffffffffffffffffffffffffffffffff168273ffffffffffffffffffffffffffffffffffffffff16036122d75760006040517f89c62b640000000000000000000000000000000000000000000000000000000081526004016122ce91906140aa565b60405180910390fd5b600360008373ffffffffffffffffffffffffffffffffffffffff1673ffffffffffffffffffffffffffffffffffffffff168152602001908152602001600020549050919050565b612326612f76565b612330600061301b565b565b6000600760009054906101000a900473ffffffffffffffffffffffffffffffffffffffff16905090565b60606001805461236b90614700565b80601f016020809104026020016040519081016040528092919081815260200182805461239790614700565b80156123e45780601f106123b9576101008083540402835291602001916123e4565b820191906000526020600020905b8154815290600101906020018083116123c757829003601f168201915b5050505050905090565b6123f6613dc8565b6008600083815260200190815260200160002060405180610140016040529081600082015481526020016001820160009054906101000a900473ffffffffffffffffffffffffffffffffffffffff1673ffffffffffffffffffffffffffffffffffffffff1673ffffffffffffffffffffffffffffffffffffffff1681526020016002820160009054906101000a900473ffffffffffffffffffffffffffffffffffffffff1673ffffffffffffffffffffffffffffffffffffffff1673ffffffffffffffffffffffffffffffffffffffff16815260200160038201548152602001600482015481526020016005820160009054906101000a900460ff1660038111156125045761250361433d565b5b60038111156125165761251561433d565b5b815260200160068201548152602001600782015481526020016008820160009054906101000a900473ffffffffffffffffffffffffffffffffffffffff1673ffffffffffffffffffffffffffffffffffffffff1673ffffffffffffffffffffffffffffffffffffffff1681526020016009820160009054906101000a900473ffffffffffffffffffffffffffffffffffffffff1673ffffffffffffffffffffffffffffffffffffffff1673ffffffffffffffffffffffffffffffffffffffff16815250509050919050565b803373ffffffffffffffffffffffffffffffffffffffff166008600083815260200190815260200160002060010160009054906101000a900473ffffffffffffffffffffffffffffffffffffffff1673ffffffffffffffffffffffffffffffffffffffff1614612686576040517f08c379a000000000000000000000000000000000000000000000000000000000815260040161267d90614b74565b60405180910390fd5b60006008600084815260200190815260200160002060405180610140016040529081600082015481526020016001820160009054906101000a900473ffffffffffffffffffffffffffffffffffffffff1673ffffffffffffffffffffffffffffffffffffffff1673ffffffffffffffffffffffffffffffffffffffff1681526020016002820160009054906101000a900473ffffffffffffffffffffffffffffffffffffffff1673ffffffffffffffffffffffffffffffffffffffff1673ffffffffffffffffffffffffffffffffffffffff16815260200160038201548152602001600482015481526020016005820160009054906101000a900460ff1660038111156127965761279561433d565b5b60038111156127a8576127a761433d565b5b815260200160068201548152602001600782015481526020016008820160009054906101000a900473ffffffffffffffffffffffffffffffffffffffff1673ffffffffffffffffffffffffffffffffffffffff1673ffffffffffffffffffffffffffffffffffffffff1681526020016009820160009054906101000a900473ffffffffffffffffffffffffffffffffffffffff1673ffffffffffffffffffffffffffffffffffffffff1673ffffffffffffffffffffffffffffffffffffffff168152505090506000600960006008600087815260200190815260200160002060000154815260200190815260200160002054146128da576040517f08c379a00000000000000000000000000000000000000000000000000000000081526004016128d1906151fb565b60405180910390fd5b600060038111156128ee576128ed61433d565b5b8160a0015160038111156129055761290461433d565b5b03612945576040517f08c379a000000000000000000000000000000000000000000000000000000000815260040161293c90615267565b60405180910390fd5b600073ffffffffffffffffffffffffffffffffffffffff16816040015173ffffffffffffffffffffffffffffffffffffffff16036129b8576040517f08c379a00000000000000000000000000000000000000000000000000000000081526004016129af906152d3565b60405180910390fd5b80610120015173ffffffffffffffffffffffffffffffffffffffff166342842e0e3083604001518460e001516040518463ffffffff1660e01b8152600401612a0293929190614f2b565b600060405180830381600087803b158015612a1c57600080fd5b505af1158015612a30573d6000803e3d6000fd5b50505050505050565b612a4b612a44612e40565b83836130e1565b5050565b612a5a8484846113a1565b612a6684848484613250565b50505050565b6060612a7782612d7b565b506000600660008481526020019081526020016000208054612a9890614700565b80601f0160208091040260200160405190810160405280929190818152602001828054612ac490614700565b8015612b115780601f10612ae657610100808354040283529160200191612b11565b820191906000526020600020905b815481529060010190602001808311612af457829003601f168201915b505050505090506000612b22613407565b90506000815103612b37578192505050612b7a565b600082511115612b6c578082604051602001612b5492919061532f565b60405160208183030381529060405292505050612b7a565b612b758461341e565b925050505b919050565b6000600560008473ffffffffffffffffffffffffffffffffffffffff1673ffffffffffffffffffffffffffffffffffffffff16815260200190815260200160002060008373ffffffffffffffffffffffffffffffffffffffff1673ffffffffffffffffffffffffffffffffffffffff16815260200190815260200160002060009054906101000a900460ff16905092915050565b612c1b612f76565b600073ffffffffffffffffffffffffffffffffffffffff168173ffffffffffffffffffffffffffffffffffffffff1603612c8d5760006040517f1e4fbdf7000000000000000000000000000000000000000000000000000000008152600401612c8491906140aa565b60405180910390fd5b612c968161301b565b50565b60007f80ac58cd000000000000000000000000000000000000000000000000000000007bffffffffffffffffffffffffffffffffffffffffffffffffffffffff1916827bffffffffffffffffffffffffffffffffffffffffffffffffffffffff19161480612d6457507f5b5e139f000000000000000000000000000000000000000000000000000000007bffffffffffffffffffffffffffffffffffffffffffffffffffffffff1916827bffffffffffffffffffffffffffffffffffffffffffffffffffffffff1916145b80612d745750612d7382613487565b5b9050919050565b600080612d87836134f1565b9050600073ffffffffffffffffffffffffffffffffffffffff168173ffffffffffffffffffffffffffffffffffffffff1603612dfa57826040517f7e273289000000000000000000000000000000000000000000000000000000008152600401612df19190614140565b60405180910390fd5b80915050919050565b60006004600083815260200190815260200160002060009054906101000a900473ffffffffffffffffffffffffffffffffffffffff169050919050565b600033905090565b612e55838383600161352e565b505050565b600080612e66846134f1565b9050600073ffffffffffffffffffffffffffffffffffffffff168573ffffffffffffffffffffffffffffffffffffffff1614158015612ed25750600073ffffffffffffffffffffffffffffffffffffffff168173ffffffffffffffffffffffffffffffffffffffff1614155b15612f6157600380811115612eea57612ee961433d565b5b6008600086815260200190815260200160002060050160009054906101000a900460ff166003811115612f2057612f1f61433d565b5b14612f60576040517f08c379a0000000000000000000000000000000000000000000000000000000008152600401612f57906153c5565b60405180910390fd5b5b612f6c8585856136f3565b9150509392505050565b612f7e612e40565b73ffffffffffffffffffffffffffffffffffffffff16612f9c612332565b73ffffffffffffffffffffffffffffffffffffffff1614612ffb57612fbf612e40565b6040517f118cdaa7000000000000000000000000000000000000000000000000000000008152600401612ff291906140aa565b60405180910390fd5b565b61301782826040518060200160405280600081525061390d565b5050565b6000600760009054906101000a900473ffffffffffffffffffffffffffffffffffffffff16905081600760006101000a81548173ffffffffffffffffffffffffffffffffffffffff021916908373ffffffffffffffffffffffffffffffffffffffff1602179055508173ffffffffffffffffffffffffffffffffffffffff168173ffffffffffffffffffffffffffffffffffffffff167f8be0079c531659141344cd1fd0a4f28419497f9722a3daafe3b4186f6b6457e060405160405180910390a35050565b600073ffffffffffffffffffffffffffffffffffffffff168273ffffffffffffffffffffffffffffffffffffffff160361315257816040517f5b08ba1800000000000000000000000000000000000000000000000000000000815260040161314991906140aa565b60405180910390fd5b80600560008573ffffffffffffffffffffffffffffffffffffffff1673ffffffffffffffffffffffffffffffffffffffff16815260200190815260200160002060008473ffffffffffffffffffffffffffffffffffffffff1673ffffffffffffffffffffffffffffffffffffffff16815260200190815260200160002060006101000a81548160ff0219169083151502179055508173ffffffffffffffffffffffffffffffffffffffff168373ffffffffffffffffffffffffffffffffffffffff167f17307eab39ab6107e8899845ad3d59bd9653f200f220920489ca2b5937696c31836040516132439190613f39565b60405180910390a3505050565b60008373ffffffffffffffffffffffffffffffffffffffff163b1115613401578273ffffffffffffffffffffffffffffffffffffffff1663150b7a02613294612e40565b8685856040518563ffffffff1660e01b81526004016132b6949392919061543a565b6020604051808303816000875af19250505080156132f257506040513d601f19601f820116820180604052508101906132ef919061549b565b60015b613376573d8060008114613322576040519150601f19603f3d011682016040523d82523d6000602084013e613327565b606091505b50600081510361336e57836040517f64a0ae9200000000000000000000000000000000000000000000000000000000815260040161336591906140aa565b60405180910390fd5b805181602001fd5b63150b7a0260e01b7bffffffffffffffffffffffffffffffffffffffffffffffffffffffff1916817bffffffffffffffffffffffffffffffffffffffffffffffffffffffff1916146133ff57836040517f64a0ae920000000000000000000000000000000000000000000000000000000081526004016133f691906140aa565b60405180910390fd5b505b50505050565b606060405180602001604052806000815250905090565b606061342982612d7b565b506000613434613407565b90506000815111613454576040518060200160405280600081525061347f565b8061345e84613929565b60405160200161346f92919061532f565b6040516020818303038152906040525b915050919050565b60007f01ffc9a7000000000000000000000000000000000000000000000000000000007bffffffffffffffffffffffffffffffffffffffffffffffffffffffff1916827bffffffffffffffffffffffffffffffffffffffffffffffffffffffff1916149050919050565b60006002600083815260200190815260200160002060009054906101000a900473ffffffffffffffffffffffffffffffffffffffff169050919050565b80806135675750600073ffffffffffffffffffffffffffffffffffffffff168273ffffffffffffffffffffffffffffffffffffffff1614155b1561369b57600061357784612d7b565b9050600073ffffffffffffffffffffffffffffffffffffffff168373ffffffffffffffffffffffffffffffffffffffff16141580156135e257508273ffffffffffffffffffffffffffffffffffffffff168173ffffffffffffffffffffffffffffffffffffffff1614155b80156135f557506135f38184612b7f565b155b1561363757826040517fa9fbf51f00000000000000000000000000000000000000000000000000000000815260040161362e91906140aa565b60405180910390fd5b811561369957838573ffffffffffffffffffffffffffffffffffffffff168273ffffffffffffffffffffffffffffffffffffffff167f8c5be1e5ebec7d5bd14f71427d1e84f3dd0314c0f7b2291e5b200ac8c7c3b92560405160405180910390a45b505b836004600085815260200190815260200160002060006101000a81548173ffffffffffffffffffffffffffffffffffffffff021916908373ffffffffffffffffffffffffffffffffffffffff16021790555050505050565b6000806136ff846134f1565b9050600073ffffffffffffffffffffffffffffffffffffffff168373ffffffffffffffffffffffffffffffffffffffff1614613741576137408184866139f7565b5b600073ffffffffffffffffffffffffffffffffffffffff168173ffffffffffffffffffffffffffffffffffffffff16146137d25761378360008560008061352e565b6001600360008373ffffffffffffffffffffffffffffffffffffffff1673ffffffffffffffffffffffffffffffffffffffff168152602001908152602001600020600082825403925050819055505b600073ffffffffffffffffffffffffffffffffffffffff168573ffffffffffffffffffffffffffffffffffffffff1614613855576001600360008773ffffffffffffffffffffffffffffffffffffffff1673ffffffffffffffffffffffffffffffffffffffff168152602001908152602001600020600082825401925050819055505b846002600086815260200190815260200160002060006101000a81548173ffffffffffffffffffffffffffffffffffffffff021916908373ffffffffffffffffffffffffffffffffffffffff160217905550838573ffffffffffffffffffffffffffffffffffffffff168273ffffffffffffffffffffffffffffffffffffffff167fddf252ad1be2c89b69c2b068fc378daa952ba7f163c4a11628f55a4df523b3ef60405160405180910390a4809150509392505050565b6139178383613abb565b6139246000848484613250565b505050565b60606000600161393884613bb4565b01905060008167ffffffffffffffff81111561395757613956614165565b5b6040519080825280601f01601f1916602001820160405280156139895781602001600182028036833780820191505090505b509050600082602001820190505b6001156139ec578080600190039150507f3031323334353637383961626364656600000000000000000000000000000000600a86061a8153600a85816139e0576139df6154c8565b5b04945060008503613997575b819350505050919050565b613a02838383613d07565b613ab657600073ffffffffffffffffffffffffffffffffffffffff168373ffffffffffffffffffffffffffffffffffffffff1603613a7757806040517f7e273289000000000000000000000000000000000000000000000000000000008152600401613a6e9190614140565b60405180910390fd5b81816040517f177e802f000000000000000000000000000000000000000000000000000000008152600401613aad9291906154f7565b60405180910390fd5b505050565b600073ffffffffffffffffffffffffffffffffffffffff168273ffffffffffffffffffffffffffffffffffffffff1603613b2d5760006040517f64a0ae92000000000000000000000000000000000000000000000000000000008152600401613b2491906140aa565b60405180910390fd5b6000613b3b83836000612e5a565b9050600073ffffffffffffffffffffffffffffffffffffffff168173ffffffffffffffffffffffffffffffffffffffff1614613baf5760006040517f73c6ac6e000000000000000000000000000000000000000000000000000000008152600401613ba691906140aa565b60405180910390fd5b505050565b600080600090507a184f03e93ff9f4daa797ed6e38ed64bf6a1f0100000000000000008310613c12577a184f03e93ff9f4daa797ed6e38ed64bf6a1f0100000000000000008381613c0857613c076154c8565b5b0492506040810190505b6d04ee2d6d415b85acef81000000008310613c4f576d04ee2d6d415b85acef81000000008381613c4557613c446154c8565b5b0492506020810190505b662386f26fc100008310613c7e57662386f26fc100008381613c7457613c736154c8565b5b0492506010810190505b6305f5e1008310613ca7576305f5e1008381613c9d57613c9c6154c8565b5b0492506008810190505b6127108310613ccc576127108381613cc257613cc16154c8565b5b0492506004810190505b60648310613cef5760648381613ce557613ce46154c8565b5b0492506002810190505b600a8310613cfe576001810190505b80915050919050565b60008073ffffffffffffffffffffffffffffffffffffffff168373ffffffffffffffffffffffffffffffffffffffff1614158015613dbf57508273ffffffffffffffffffffffffffffffffffffffff168473ffffffffffffffffffffffffffffffffffffffff161480613d805750613d7f8484612b7f565b5b80613dbe57508273ffffffffffffffffffffffffffffffffffffffff16613da683612e03565b73ffffffffffffffffffffffffffffffffffffffff16145b5b90509392505050565b60405180610140016040528060008152602001600073ffffffffffffffffffffffffffffffffffffffff168152602001600073ffffffffffffffffffffffffffffffffffffffff168152602001600081526020016000815260200160006003811115613e3757613e3661433d565b5b81526020016000815260200160008152602001600073ffffffffffffffffffffffffffffffffffffffff168152602001600073ffffffffffffffffffffffffffffffffffffffff1681525090565b6000604051905090565b600080fd5b600080fd5b60007fffffffff0000000000000000000000000000000000000000000000000000000082169050919050565b613ece81613e99565b8114613ed957600080fd5b50565b600081359050613eeb81613ec5565b92915050565b600060208284031215613f0757613f06613e8f565b5b6000613f1584828501613edc565b91505092915050565b60008115159050919050565b613f3381613f1e565b82525050565b6000602082019050613f4e6000830184613f2a565b92915050565b600081519050919050565b600082825260208201905092915050565b60005b83811015613f8e578082015181840152602081019050613f73565b60008484015250505050565b6000601f19601f8301169050919050565b6000613fb682613f54565b613fc08185613f5f565b9350613fd0818560208601613f70565b613fd981613f9a565b840191505092915050565b60006020820190508181036000830152613ffe8184613fab565b905092915050565b6000819050919050565b61401981614006565b811461402457600080fd5b50565b60008135905061403681614010565b92915050565b60006020828403121561405257614051613e8f565b5b600061406084828501614027565b91505092915050565b600073ffffffffffffffffffffffffffffffffffffffff82169050919050565b600061409482614069565b9050919050565b6140a481614089565b82525050565b60006020820190506140bf600083018461409b565b92915050565b6140ce81614089565b81146140d957600080fd5b50565b6000813590506140eb816140c5565b92915050565b6000806040838503121561410857614107613e8f565b5b6000614116858286016140dc565b925050602061412785828601614027565b9150509250929050565b61413a81614006565b82525050565b60006020820190506141556000830184614131565b92915050565b600080fd5b600080fd5b7f4e487b7100000000000000000000000000000000000000000000000000000000600052604160045260246000fd5b61419d82613f9a565b810181811067ffffffffffffffff821117156141bc576141bb614165565b5b80604052505050565b60006141cf613e85565b90506141db8282614194565b919050565b600067ffffffffffffffff8211156141fb576141fa614165565b5b61420482613f9a565b9050602081019050919050565b82818337600083830152505050565b600061423361422e846141e0565b6141c5565b90508281526020810184848401111561424f5761424e614160565b5b61425a848285614211565b509392505050565b600082601f8301126142775761427661415b565b5b8135614287848260208601614220565b91505092915050565b600080600080608085870312156142aa576142a9613e8f565b5b60006142b8878288016140dc565b94505060206142c9878288016140dc565b93505060406142da87828801614027565b925050606085013567ffffffffffffffff8111156142fb576142fa613e94565b5b61430787828801614262565b91505092959194509250565b61431c81613e99565b82525050565b60006020820190506143376000830184614313565b92915050565b7f4e487b7100000000000000000000000000000000000000000000000000000000600052602160045260246000fd5b6004811061437d5761437c61433d565b5b50565b600081905061438e8261436c565b919050565b600061439e82614380565b9050919050565b6143ae81614393565b82525050565b6000610140820190506143ca600083018d614131565b6143d7602083018c61409b565b6143e4604083018b61409b565b6143f1606083018a614131565b6143fe6080830189614131565b61440b60a08301886143a5565b61441860c0830187614131565b61442560e0830186614131565b61443361010083018561409b565b61444161012083018461409b565b9b9a5050505050505050505050565b60008060006060848603121561446957614468613e8f565b5b6000614477868287016140dc565b9350506020614488868287016140dc565b925050604061449986828701614027565b9150509250925092565b600080604083850312156144ba576144b9613e8f565b5b60006144c885828601614027565b92505060206144d985828601614027565b9150509250929050565b6000602082840312156144f9576144f8613e8f565b5b6000614507848285016140dc565b91505092915050565b61451981614006565b82525050565b61452881614089565b82525050565b61453781614393565b82525050565b610140820160008201516145546000850182614510565b506020820151614567602085018261451f565b50604082015161457a604085018261451f565b50606082015161458d6060850182614510565b5060808201516145a06080850182614510565b5060a08201516145b360a085018261452e565b5060c08201516145c660c0850182614510565b5060e08201516145d960e0850182614510565b506101008201516145ee61010085018261451f565b5061012082015161460361012085018261451f565b50505050565b60006101408201905061461f600083018461453d565b92915050565b61462e81613f1e565b811461463957600080fd5b50565b60008135905061464b81614625565b92915050565b6000806040838503121561466857614667613e8f565b5b6000614676858286016140dc565b92505060206146878582860161463c565b9150509250929050565b600080604083850312156146a8576146a7613e8f565b5b60006146b6858286016140dc565b92505060206146c7858286016140dc565b9150509250929050565b7f4e487b7100000000000000000000000000000000000000000000000000000000600052602260045260246000fd5b6000600282049050600182168061471857607f821691505b60208210810361472b5761472a6146d1565b5b50919050565b60008151905061474081614625565b92915050565b60006020828403121561475c5761475b613e8f565b5b600061476a84828501614731565b91505092915050565b7f696e76616c69642077686974656c697374000000000000000000000000000000600082015250565b60006147a9601183613f5f565b91506147b482614773565b602082019050919050565b600060208201905081810360008301526147d88161479c565b9050919050565b6000815190506147ee81614010565b92915050565b6000806040838503121561480b5761480a613e8f565b5b6000614819858286016147df565b925050602061482a858286016147df565b9150509250929050565b7f696e76616c69642067616d650000000000000000000000000000000000000000600082015250565b600061486a600c83613f5f565b915061487582614834565b602082019050919050565b600060208201905081810360008301526148998161485d565b9050919050565b7f63616e6e6f742063686f6f73652063686f696365203000000000000000000000600082015250565b60006148d6601683613f5f565b91506148e1826148a0565b602082019050919050565b60006020820190508181036000830152614905816148c9565b9050919050565b7f67616d6520616c72656164792073746172746564000000000000000000000000600082015250565b6000614942601483613f5f565b915061494d8261490c565b602082019050919050565b6000602082019050818103600083015261497181614935565b9050919050565b7f703120616c726561647920646566696e65640000000000000000000000000000600082015250565b60006149ae601283613f5f565b91506149b982614978565b602082019050919050565b600060208201905081810360008301526149dd816149a1565b9050919050565b7f63616e6e6f742062652073616d65206173207032000000000000000000000000600082015250565b6000614a1a601483613f5f565b9150614a25826149e4565b602082019050919050565b60006020820190508181036000830152614a4981614a0d565b9050919050565b7f706c617965723220646566696e656420616c7265616479000000000000000000600082015250565b6000614a86601783613f5f565b9150614a9182614a50565b602082019050919050565b60006020820190508181036000830152614ab581614a79565b9050919050565b7f63616e6e6f742062652073616d65206173207031000000000000000000000000600082015250565b6000614af2601483613f5f565b9150614afd82614abc565b602082019050919050565b60006020820190508181036000830152614b2181614ae5565b9050919050565b7f6e6f74206f776e6572206f662077616765720000000000000000000000000000600082015250565b6000614b5e601283613f5f565b9150614b6982614b28565b602082019050919050565b60006020820190508181036000830152614b8d81614b51565b9050919050565b7f616c726561647920737461727465640000000000000000000000000000000000600082015250565b6000614bca600f83613f5f565b9150614bd582614b94565b602082019050919050565b60006020820190508181036000830152614bf981614bbd565b9050919050565b7f77616974696e6720666f7220703120746f2073656e6420746f6b656e00000000600082015250565b6000614c36601c83613f5f565b9150614c4182614c00565b602082019050919050565b60006020820190508181036000830152614c6581614c29565b9050919050565b7f77616974696e6720666f7220703220746f2073656e6420746f6b656e00000000600082015250565b6000614ca2601c83613f5f565b9150614cad82614c6c565b602082019050919050565b60006020820190508181036000830152614cd181614c95565b9050919050565b7f6e6f742079657420616363657074656400000000000000000000000000000000600082015250565b6000614d0e601083613f5f565b9150614d1982614cd8565b602082019050919050565b60006020820190508181036000830152614d3d81614d01565b9050919050565b7f67616d6520616c726561647920636f6d706c6574656400000000000000000000600082015250565b6000614d7a601683613f5f565b9150614d8582614d44565b602082019050919050565b60006020820190508181036000830152614da981614d6d565b9050919050565b6000606082019050614dc5600083018661409b565b614dd26020830185614131565b614ddf604083018461409b565b949350505050565b7f6e6f7420706c6179657273000000000000000000000000000000000000000000600082015250565b6000614e1d600b83613f5f565b9150614e2882614de7565b602082019050919050565b60006020820190508181036000830152614e4c81614e10565b9050919050565b7f67616d65206e6f7420636f6d706c657465640000000000000000000000000000600082015250565b6000614e89601283613f5f565b9150614e9482614e53565b602082019050919050565b60006020820190508181036000830152614eb881614e7c565b9050919050565b7f6e6f742077696e6e657200000000000000000000000000000000000000000000600082015250565b6000614ef5600a83613f5f565b9150614f0082614ebf565b602082019050919050565b60006020820190508181036000830152614f2481614ee8565b9050919050565b6000606082019050614f40600083018661409b565b614f4d602083018561409b565b614f5a6040830184614131565b949350505050565b7f4e487b7100000000000000000000000000000000000000000000000000000000600052601160045260246000fd5b6000614f9c82614006565b91507fffffffffffffffffffffffffffffffffffffffffffffffffffffffffffffffff8203614fce57614fcd614f62565b5b600182019050919050565b7f63616e6e6f742063616e63656c2067616d6520636f6d706c6574656400000000600082015250565b600061500f601c83613f5f565b915061501a82614fd9565b602082019050919050565b6000602082019050818103600083015261503e81615002565b9050919050565b7f63616e6e6f742063616e63656c2067616d652073746172746564000000000000600082015250565b600061507b601a83613f5f565b915061508682615045565b602082019050919050565b600060208201905081810360008301526150aa8161506e565b9050919050565b7f696e76616c696420726573756c742c206d75737420626520677265617465722060008201527f7468616e20300000000000000000000000000000000000000000000000000000602082015250565b600061510d602683613f5f565b9150615118826150b1565b604082019050919050565b6000602082019050818103600083015261513c81615100565b9050919050565b7f726573756c7420616c7265616479206361707475726564000000000000000000600082015250565b6000615179601783613f5f565b915061518482615143565b602082019050919050565b600060208201905081810360008301526151a88161516c565b9050919050565b7f63616e6e6f74206465636c696e652067616d6520636f6d706c65746564000000600082015250565b60006151e5601d83613f5f565b91506151f0826151af565b602082019050919050565b60006020820190508181036000830152615214816151d8565b9050919050565b7f63616e6e6f74206465636c696e652067616d6520737461727465640000000000600082015250565b6000615251601b83613f5f565b915061525c8261521b565b602082019050919050565b6000602082019050818103600083015261528081615244565b9050919050565b7f7032206e6f742072656164790000000000000000000000000000000000000000600082015250565b60006152bd600c83613f5f565b91506152c882615287565b602082019050919050565b600060208201905081810360008301526152ec816152b0565b9050919050565b600081905092915050565b600061530982613f54565b61531381856152f3565b9350615323818560208601613f70565b80840191505092915050565b600061533b82856152fe565b915061534782846152fe565b91508190509392505050565b7f63616e6e6f74207472616e7366657220756e74696c2067616d6520697320636f60008201527f6d706c6574656400000000000000000000000000000000000000000000000000602082015250565b60006153af602783613f5f565b91506153ba82615353565b604082019050919050565b600060208201905081810360008301526153de816153a2565b9050919050565b600081519050919050565b600082825260208201905092915050565b600061540c826153e5565b61541681856153f0565b9350615426818560208601613f70565b61542f81613f9a565b840191505092915050565b600060808201905061544f600083018761409b565b61545c602083018661409b565b6154696040830185614131565b818103606083015261547b8184615401565b905095945050505050565b60008151905061549581613ec5565b92915050565b6000602082840312156154b1576154b0613e8f565b5b60006154bf84828501615486565b91505092915050565b7f4e487b7100000000000000000000000000000000000000000000000000000000600052601260045260246000fd5b600060408201905061550c600083018561409b565b6155196020830184614131565b939250505056fea26469706673582212201338e7dec6749d0a985d3a3a32b09544ac8daa61ae21669f7aab7873371be2c264736f6c63430008140033",
  "linkReferences": {},
  "deployedLinkReferences": {}
}