{
  "_format": "hh-sol-artifact-1",
  "contractName": "StakeWiseWagerService",
  "sourceName": "contracts/service/StakeWiseWagerService.sol",
  "abi": [
    {
      "inputs": [
        {
          "internalType": "address",
          "name": "swfnftAddress",
          "type": "address"
        },
        {
          "internalType": "address",
          "name": "source",
          "type": "address"
        }
      ],
      "stateMutability": "nonpayable",
      "type": "constructor"
    },
    {
      "inputs": [
        {
          "internalType": "address",
          "name": "owner",
          "type": "address"
        }
      ],
      "name": "OwnableInvalidOwner",
      "type": "error"
    },
    {
      "inputs": [
        {
          "internalType": "address",
          "name": "account",
          "type": "address"
        }
      ],
      "name": "OwnableUnauthorizedAccount",
      "type": "error"
    },
    {
      "anonymous": false,
      "inputs": [
        {
          "indexed": false,
          "internalType": "uint256",
          "name": "gameId",
          "type": "uint256"
        }
      ],
      "name": "GameCancelled",
      "type": "event"
    },
    {
      "anonymous": false,
      "inputs": [
        {
          "indexed": false,
          "internalType": "uint256",
          "name": "gameId",
          "type": "uint256"
        }
      ],
      "name": "GameCreated",
      "type": "event"
    },
    {
      "anonymous": false,
      "inputs": [
        {
          "indexed": true,
          "internalType": "address",
          "name": "previousOwner",
          "type": "address"
        },
        {
          "indexed": true,
          "internalType": "address",
          "name": "newOwner",
          "type": "address"
        }
      ],
      "name": "OwnershipTransferred",
      "type": "event"
    },
    {
      "anonymous": false,
      "inputs": [],
      "name": "UpkeepPerformed",
      "type": "event"
    },
    {
      "anonymous": false,
      "inputs": [
        {
          "indexed": false,
          "internalType": "uint256",
          "name": "gameId",
          "type": "uint256"
        },
        {
          "indexed": false,
          "internalType": "address",
          "name": "owner",
          "type": "address"
        }
      ],
      "name": "WagerCreated",
      "type": "event"
    },
    {
      "inputs": [
        {
          "internalType": "uint256",
          "name": "",
          "type": "uint256"
        }
      ],
      "name": "activeGamesCount",
      "outputs": [
        {
          "internalType": "uint256",
          "name": "",
          "type": "uint256"
        }
      ],
      "stateMutability": "view",
      "type": "function"
    },
    {
      "inputs": [
        {
          "internalType": "uint256",
          "name": "gameId",
          "type": "uint256"
        }
      ],
      "name": "cancelGame",
      "outputs": [],
      "stateMutability": "nonpayable",
      "type": "function"
    },
    {
      "inputs": [
        {
          "internalType": "bytes",
          "name": "",
          "type": "bytes"
        }
      ],
      "name": "checkUpkeep",
      "outputs": [
        {
          "internalType": "bool",
          "name": "",
          "type": "bool"
        },
        {
          "internalType": "bytes",
          "name": "",
          "type": "bytes"
        }
      ],
      "stateMutability": "view",
      "type": "function"
    },
    {
      "inputs": [
        {
          "components": [
            {
              "internalType": "string",
              "name": "description",
              "type": "string"
            },
            {
              "internalType": "string",
              "name": "name",
              "type": "string"
            },
            {
              "internalType": "string",
              "name": "url",
              "type": "string"
            },
            {
              "internalType": "string",
              "name": "image",
              "type": "string"
            },
            {
              "internalType": "uint256",
              "name": "eventId",
              "type": "uint256"
            },
            {
              "internalType": "uint256",
              "name": "eventDate",
              "type": "uint256"
            },
            {
              "internalType": "string",
              "name": "datasource",
              "type": "string"
            },
            {
              "internalType": "bool",
              "name": "active",
              "type": "bool"
            }
          ],
          "internalType": "struct IStakeWiseWagerService.Games",
          "name": "game",
          "type": "tuple"
        }
      ],
      "name": "createGameConfig",
      "outputs": [],
      "stateMutability": "nonpayable",
      "type": "function"
    },
    {
      "inputs": [
        {
          "internalType": "uint256",
          "name": "eventId",
          "type": "uint256"
        }
      ],
      "name": "createWager",
      "outputs": [],
      "stateMutability": "nonpayable",
      "type": "function"
    },
    {
      "inputs": [
        {
          "internalType": "uint256",
          "name": "id",
          "type": "uint256"
        }
      ],
      "name": "findGameById",
      "outputs": [
        {
          "components": [
            {
              "internalType": "string",
              "name": "description",
              "type": "string"
            },
            {
              "internalType": "string",
              "name": "name",
              "type": "string"
            },
            {
              "internalType": "string",
              "name": "url",
              "type": "string"
            },
            {
              "internalType": "string",
              "name": "image",
              "type": "string"
            },
            {
              "internalType": "uint256",
              "name": "eventId",
              "type": "uint256"
            },
            {
              "internalType": "uint256",
              "name": "eventDate",
              "type": "uint256"
            },
            {
              "internalType": "string",
              "name": "datasource",
              "type": "string"
            },
            {
              "internalType": "bool",
              "name": "active",
              "type": "bool"
            }
          ],
          "internalType": "struct IStakeWiseWagerService.Games",
          "name": "game",
          "type": "tuple"
        }
      ],
      "stateMutability": "view",
      "type": "function"
    },
    {
      "inputs": [],
      "name": "forwarder",
      "outputs": [
        {
          "internalType": "address",
          "name": "",
          "type": "address"
        }
      ],
      "stateMutability": "view",
      "type": "function"
    },
    {
      "inputs": [
        {
          "internalType": "uint256",
          "name": "",
          "type": "uint256"
        }
      ],
      "name": "games",
      "outputs": [
        {
          "internalType": "string",
          "name": "description",
          "type": "string"
        },
        {
          "internalType": "string",
          "name": "name",
          "type": "string"
        },
        {
          "internalType": "string",
          "name": "url",
          "type": "string"
        },
        {
          "internalType": "string",
          "name": "image",
          "type": "string"
        },
        {
          "internalType": "uint256",
          "name": "eventId",
          "type": "uint256"
        },
        {
          "internalType": "uint256",
          "name": "eventDate",
          "type": "uint256"
        },
        {
          "internalType": "string",
          "name": "datasource",
          "type": "string"
        },
        {
          "internalType": "bool",
          "name": "active",
          "type": "bool"
        }
      ],
      "stateMutability": "view",
      "type": "function"
    },
    {
      "inputs": [
        {
          "internalType": "uint256",
          "name": "timeslot",
          "type": "uint256"
        }
      ],
      "name": "getGameByTimeSlot",
      "outputs": [
        {
          "internalType": "uint256[]",
          "name": "",
          "type": "uint256[]"
        }
      ],
      "stateMutability": "view",
      "type": "function"
    },
    {
      "inputs": [],
      "name": "owner",
      "outputs": [
        {
          "internalType": "address",
          "name": "",
          "type": "address"
        }
      ],
      "stateMutability": "view",
      "type": "function"
    },
    {
      "inputs": [
        {
          "internalType": "bytes",
          "name": "",
          "type": "bytes"
        }
      ],
      "name": "performUpkeep",
      "outputs": [],
      "stateMutability": "nonpayable",
      "type": "function"
    },
    {
      "inputs": [],
      "name": "renounceOwnership",
      "outputs": [],
      "stateMutability": "nonpayable",
      "type": "function"
    },
    {
      "inputs": [],
      "name": "resultSource",
      "outputs": [
        {
          "internalType": "address",
          "name": "",
          "type": "address"
        }
      ],
      "stateMutability": "view",
      "type": "function"
    },
    {
      "inputs": [],
      "name": "roundToNearest",
      "outputs": [
        {
          "internalType": "uint256",
          "name": "",
          "type": "uint256"
        }
      ],
      "stateMutability": "view",
      "type": "function"
    },
    {
      "inputs": [
        {
          "internalType": "uint256",
          "name": "timestamp",
          "type": "uint256"
        }
      ],
      "name": "roundToNearestFifteenMinutes",
      "outputs": [
        {
          "internalType": "uint256",
          "name": "",
          "type": "uint256"
        }
      ],
      "stateMutability": "pure",
      "type": "function"
    },
    {
      "inputs": [
        {
          "internalType": "address",
          "name": "_forwarder",
          "type": "address"
        }
      ],
      "name": "setForwarder",
      "outputs": [],
      "stateMutability": "nonpayable",
      "type": "function"
    },
    {
      "inputs": [],
      "name": "swnft",
      "outputs": [
        {
          "internalType": "address",
          "name": "",
          "type": "address"
        }
      ],
      "stateMutability": "view",
      "type": "function"
    },
    {
      "inputs": [
        {
          "internalType": "uint256",
          "name": "",
          "type": "uint256"
        },
        {
          "internalType": "uint256",
          "name": "",
          "type": "uint256"
        }
      ],
      "name": "timestampToGames",
      "outputs": [
        {
          "internalType": "uint256",
          "name": "",
          "type": "uint256"
        }
      ],
      "stateMutability": "view",
      "type": "function"
    },
    {
      "inputs": [
        {
          "internalType": "address",
          "name": "newOwner",
          "type": "address"
        }
      ],
      "name": "transferOwnership",
      "outputs": [],
      "stateMutability": "nonpayable",
      "type": "function"
    },
    {
      "inputs": [
        {
          "internalType": "uint256",
          "name": "game",
          "type": "uint256"
        },
        {
          "internalType": "uint256",
          "name": "result",
          "type": "uint256"
        }
      ],
      "name": "updateGameResult",
      "outputs": [],
      "stateMutability": "nonpayable",
      "type": "function"
    },
    {
      "inputs": [
        {
          "internalType": "uint256[]",
          "name": "_games",
          "type": "uint256[]"
        },
        {
          "internalType": "uint256",
          "name": "result",
          "type": "uint256"
        }
      ],
      "name": "updateGameResults",
      "outputs": [],
      "stateMutability": "nonpayable",
      "type": "function"
    }
  ],
  "bytecode": "0x60c06040523480156200001157600080fd5b506040516200349c3803806200349c8339818101604052810190620000379190620002cf565b33600073ffffffffffffffffffffffffffffffffffffffff168173ffffffffffffffffffffffffffffffffffffffff1603620000ad5760006040517f1e4fbdf7000000000000000000000000000000000000000000000000000000008152600401620000a4919062000327565b60405180910390fd5b620000be81620001a160201b60201c565b50600073ffffffffffffffffffffffffffffffffffffffff168273ffffffffffffffffffffffffffffffffffffffff160362000131576040517f08c379a00000000000000000000000000000000000000000000000000000000081526004016200012890620003a5565b60405180910390fd5b8173ffffffffffffffffffffffffffffffffffffffff1660808173ffffffffffffffffffffffffffffffffffffffff16815250508073ffffffffffffffffffffffffffffffffffffffff1660a08173ffffffffffffffffffffffffffffffffffffffff16815250505050620003c7565b60008060009054906101000a900473ffffffffffffffffffffffffffffffffffffffff169050816000806101000a81548173ffffffffffffffffffffffffffffffffffffffff021916908373ffffffffffffffffffffffffffffffffffffffff1602179055508173ffffffffffffffffffffffffffffffffffffffff168173ffffffffffffffffffffffffffffffffffffffff167f8be0079c531659141344cd1fd0a4f28419497f9722a3daafe3b4186f6b6457e060405160405180910390a35050565b600080fd5b600073ffffffffffffffffffffffffffffffffffffffff82169050919050565b600062000297826200026a565b9050919050565b620002a9816200028a565b8114620002b557600080fd5b50565b600081519050620002c9816200029e565b92915050565b60008060408385031215620002e957620002e862000265565b5b6000620002f985828601620002b8565b92505060206200030c85828601620002b8565b9150509250929050565b62000321816200028a565b82525050565b60006020820190506200033e600083018462000316565b92915050565b600082825260208201905092915050565b7f696e76616c6964207377666e6674416464726573730000000000000000000000600082015250565b60006200038d60158362000344565b91506200039a8262000355565b602082019050919050565b60006020820190508181036000830152620003c0816200037e565b9050919050565b60805160a051613085620004176000396000818161041601528181610cc701528181610d6c0152610f8b0152600081816105a30152818161093101528181610a7601526110ab01526130856000f3fe608060405234801561001057600080fd5b50600436106101375760003560e01c806370b327f9116100b8578063b573437e1161007c578063b573437e14610342578063b9998a2414610372578063f117608b1461038e578063f24f9459146103aa578063f2fde38b146103da578063f645d4f9146103f657610137565b806370b327f9146102b0578063715018a6146102e05780638da5cb5b146102ea578063986751331461030857806398d96a911461032457610137565b80634585e33b116100ff5780634585e33b146101f95780634f0cd20a1461021557806359c98b511461023357806369958ab9146102635780636e04ff0d1461027f57610137565b8063108014741461013c578063117a5b90146101585780632da4f1d01461018f57806330da3d7e146101ad578063384ebeac146101c9575b600080fd5b61015660048036038101906101519190611a40565b610414565b005b610172600480360381019061016d9190611a80565b610632565b604051610186989796959493929190611b67565b60405180910390f35b61019761092f565b6040516101a49190611c49565b60405180910390f35b6101c760048036038101906101c29190611a80565b610953565b005b6101e360048036038101906101de9190611a40565b610b86565b6040516101f09190611c64565b60405180910390f35b610213600480360381019061020e9190611ce4565b610bb7565b005b61021d610d6a565b60405161022a9190611c49565b60405180910390f35b61024d60048036038101906102489190611a80565b610d8e565b60405161025a9190611c64565b60405180910390f35b61027d60048036038101906102789190611a80565b610da6565b005b61029960048036038101906102949190611ce4565b610e7a565b6040516102a7929190611d86565b60405180910390f35b6102ca60048036038101906102c59190611a80565b610ee1565b6040516102d79190611e74565b60405180910390f35b6102e8610f4c565b005b6102f2610f60565b6040516102ff9190611c49565b60405180910390f35b610322600480360381019061031d9190611fd4565b610f89565b005b61032c611167565b6040516103399190611c64565b60405180910390f35b61035c60048036038101906103579190611a80565b611177565b6040516103699190611c64565b60405180910390f35b61038c6004803603810190610387919061205c565b6111a5565b005b6103a860048036038101906103a391906122ca565b6111f1565b005b6103c460048036038101906103bf9190611a80565b611479565b6040516103d19190612438565b60405180910390f35b6103f460048036038101906103ef919061205c565b6117b0565b005b6103fe611836565b60405161040b9190611c49565b60405180910390f35b7f000000000000000000000000000000000000000000000000000000000000000073ffffffffffffffffffffffffffffffffffffffff163373ffffffffffffffffffffffffffffffffffffffff16146104a2576040517f08c379a0000000000000000000000000000000000000000000000000000000008152600401610499906124cc565b60405180910390fd5b60006001600084815260200190815260200160002060040154116104fb576040517f08c379a00000000000000000000000000000000000000000000000000000000081526004016104f290612538565b60405180910390fd5b6000811161053e576040517f08c379a0000000000000000000000000000000000000000000000000000000008152600401610535906125a4565b60405180910390fd5b6001600083815260200190815260200160002060070160009054906101000a900460ff166105a1576040517f08c379a000000000000000000000000000000000000000000000000000000000815260040161059890612610565b60405180910390fd5b7f000000000000000000000000000000000000000000000000000000000000000073ffffffffffffffffffffffffffffffffffffffff1663652a6bfb83836040518363ffffffff1660e01b81526004016105fc929190612630565b600060405180830381600087803b15801561061657600080fd5b505af115801561062a573d6000803e3d6000fd5b505050505050565b600160205280600052604060002060009150905080600001805461065590612688565b80601f016020809104026020016040519081016040528092919081815260200182805461068190612688565b80156106ce5780601f106106a3576101008083540402835291602001916106ce565b820191906000526020600020905b8154815290600101906020018083116106b157829003601f168201915b5050505050908060010180546106e390612688565b80601f016020809104026020016040519081016040528092919081815260200182805461070f90612688565b801561075c5780601f106107315761010080835404028352916020019161075c565b820191906000526020600020905b81548152906001019060200180831161073f57829003601f168201915b50505050509080600201805461077190612688565b80601f016020809104026020016040519081016040528092919081815260200182805461079d90612688565b80156107ea5780601f106107bf576101008083540402835291602001916107ea565b820191906000526020600020905b8154815290600101906020018083116107cd57829003601f168201915b5050505050908060030180546107ff90612688565b80601f016020809104026020016040519081016040528092919081815260200182805461082b90612688565b80156108785780601f1061084d57610100808354040283529160200191610878565b820191906000526020600020905b81548152906001019060200180831161085b57829003601f168201915b50505050509080600401549080600501549080600601805461089990612688565b80601f01602080910402602001604051908101604052809291908181526020018280546108c590612688565b80156109125780601f106108e757610100808354040283529160200191610912565b820191906000526020600020905b8154815290600101906020018083116108f557829003601f168201915b5050505050908060070160009054906101000a900460ff16905088565b7f000000000000000000000000000000000000000000000000000000000000000081565b60006001600083815260200190815260200160002060040154116109ac576040517f08c379a00000000000000000000000000000000000000000000000000000000081526004016109a39061272b565b60405180910390fd5b610258426109ba919061277a565b600160008381526020019081526020016000206005015411610a11576040517f08c379a0000000000000000000000000000000000000000000000000000000008152600401610a0890612820565b60405180910390fd5b6001600082815260200190815260200160002060070160009054906101000a900460ff16610a74576040517f08c379a0000000000000000000000000000000000000000000000000000000008152600401610a6b90612610565b60405180910390fd5b7f000000000000000000000000000000000000000000000000000000000000000073ffffffffffffffffffffffffffffffffffffffff166340c10f1933836040518363ffffffff1660e01b8152600401610acf929190612840565b600060405180830381600087803b158015610ae957600080fd5b505af1158015610afd573d6000803e3d6000fd5b50505050600160026000610b266001600086815260200190815260200160002060050154611177565b81526020019081526020016000206000828254610b43919061277a565b925050819055507fec930341041c5ff4a5017383755eb9783d4ad8bf291b661b7af9595a4e11e4df8133604051610b7b929190612869565b60405180910390a150565b60036020528160005260406000208181548110610ba257600080fd5b90600052602060002001600091509150505481565b600460009054906101000a900473ffffffffffffffffffffffffffffffffffffffff1673ffffffffffffffffffffffffffffffffffffffff163373ffffffffffffffffffffffffffffffffffffffff1614610c47576040517f08c379a0000000000000000000000000000000000000000000000000000000008152600401610c3e90612904565b60405180910390fd5b6000610c5242611177565b90506000600260008381526020019081526020016000205403610c755750610d66565b6000600360008381526020019081526020016000208054905003610c995750610d66565b7f966a2cf4da2fe388fb461e726e2765451662471d3e61fb50c4191dd71434cb5860405160405180910390a17f000000000000000000000000000000000000000000000000000000000000000073ffffffffffffffffffffffffffffffffffffffff1663b8fd8b7682600360008581526020019081526020016000206040518363ffffffff1660e01b8152600401610d329291906129fa565b600060405180830381600087803b158015610d4c57600080fd5b505af1158015610d60573d6000803e3d6000fd5b50505050505b5050565b7f000000000000000000000000000000000000000000000000000000000000000081565b60026020528060005260406000206000915090505481565b610dae61185c565b6001600082815260200190815260200160002060070160009054906101000a900460ff16610e11576040517f08c379a0000000000000000000000000000000000000000000000000000000008152600401610e0890612a76565b60405180910390fd5b60006001600083815260200190815260200160002060070160006101000a81548160ff0219169083151502179055507f681705fdbd93dba3b679fd712577e9a86d57c5551c520f8c74857deb57f9623f81604051610e6f9190611c64565b60405180910390a150565b600060606000610e8942611177565b90506000600260008381526020019081526020016000205403610ec2576000604051806020016040528060008152509250925050610eda565b60016040518060200160405280600081525092509250505b9250929050565b606060036000838152602001908152602001600020805480602002602001604051908101604052809291908181526020018280548015610f4057602002820191906000526020600020905b815481526020019060010190808311610f2c575b50505050509050919050565b610f5461185c565b610f5e60006118e3565b565b60008060009054906101000a900473ffffffffffffffffffffffffffffffffffffffff16905090565b7f000000000000000000000000000000000000000000000000000000000000000073ffffffffffffffffffffffffffffffffffffffff163373ffffffffffffffffffffffffffffffffffffffff1614611017576040517f08c379a000000000000000000000000000000000000000000000000000000000815260040161100e906124cc565b60405180910390fd5b6000811161105a576040517f08c379a0000000000000000000000000000000000000000000000000000000008152600401611051906125a4565b60405180910390fd5b60005b8251811015611162576001600084838151811061107d5761107c612a96565b5b6020026020010151815260200190815260200160002060070160009054906101000a900460ff1615611151577f000000000000000000000000000000000000000000000000000000000000000073ffffffffffffffffffffffffffffffffffffffff1663652a6bfb8483815181106110f8576110f7612a96565b5b6020026020010151846040518363ffffffff1660e01b815260040161111e929190612630565b600060405180830381600087803b15801561113857600080fd5b505af115801561114c573d6000803e3d6000fd5b505050505b8061115b90612ac5565b905061105d565b505050565b600061117242611177565b905090565b60006103848060968461118a919061277a565b6111949190612b3c565b61119e9190612b6d565b9050919050565b6111ad61185c565b80600460006101000a81548173ffffffffffffffffffffffffffffffffffffffff021916908373ffffffffffffffffffffffffffffffffffffffff16021790555050565b6111f961185c565b600060016000836080015181526020019081526020016000206004015414611256576040517f08c379a000000000000000000000000000000000000000000000000000000000815260040161124d90612c21565b60405180910390fd5b600081608001511161129d576040517f08c379a000000000000000000000000000000000000000000000000000000000815260040161129490612c8d565b60405180910390fd5b8060e001516112e1576040517f08c379a00000000000000000000000000000000000000000000000000000000081526004016112d890612d1f565b60405180910390fd5b610258426112ef919061277a565b8160a0015111611334576040517f08c379a000000000000000000000000000000000000000000000000000000000815260040161132b90612db1565b60405180910390fd5b80600160008360800151815260200190815260200160002060008201518160000190816113619190612f7d565b5060208201518160010190816113779190612f7d565b50604082015181600201908161138d9190612f7d565b5060608201518160030190816113a39190612f7d565b506080820151816004015560a0820151816005015560c08201518160060190816113cd9190612f7d565b5060e08201518160070160006101000a81548160ff021916908315150217905550905050600360006114028360a00151611177565b8152602001908152602001600020816080015190806001815401808255809150506001900390600052602060002001600090919091909150557fbd19c47e9925eb6f7be8bb1c13a841e0240aaeaf17f217e90022e9c8eb66877f816080015160405161146e9190611c64565b60405180910390a150565b6114816119af565b60016000838152602001908152602001600020604051806101000160405290816000820180546114b090612688565b80601f01602080910402602001604051908101604052809291908181526020018280546114dc90612688565b80156115295780601f106114fe57610100808354040283529160200191611529565b820191906000526020600020905b81548152906001019060200180831161150c57829003601f168201915b5050505050815260200160018201805461154290612688565b80601f016020809104026020016040519081016040528092919081815260200182805461156e90612688565b80156115bb5780601f10611590576101008083540402835291602001916115bb565b820191906000526020600020905b81548152906001019060200180831161159e57829003601f168201915b505050505081526020016002820180546115d490612688565b80601f016020809104026020016040519081016040528092919081815260200182805461160090612688565b801561164d5780601f106116225761010080835404028352916020019161164d565b820191906000526020600020905b81548152906001019060200180831161163057829003601f168201915b5050505050815260200160038201805461166690612688565b80601f016020809104026020016040519081016040528092919081815260200182805461169290612688565b80156116df5780601f106116b4576101008083540402835291602001916116df565b820191906000526020600020905b8154815290600101906020018083116116c257829003601f168201915b50505050508152602001600482015481526020016005820154815260200160068201805461170c90612688565b80601f016020809104026020016040519081016040528092919081815260200182805461173890612688565b80156117855780601f1061175a57610100808354040283529160200191611785565b820191906000526020600020905b81548152906001019060200180831161176857829003601f168201915b505050505081526020016007820160009054906101000a900460ff1615151515815250509050919050565b6117b861185c565b600073ffffffffffffffffffffffffffffffffffffffff168173ffffffffffffffffffffffffffffffffffffffff160361182a5760006040517f1e4fbdf70000000000000000000000000000000000000000000000000000000081526004016118219190611c49565b60405180910390fd5b611833816118e3565b50565b600460009054906101000a900473ffffffffffffffffffffffffffffffffffffffff1681565b6118646119a7565b73ffffffffffffffffffffffffffffffffffffffff16611882610f60565b73ffffffffffffffffffffffffffffffffffffffff16146118e1576118a56119a7565b6040517f118cdaa70000000000000000000000000000000000000000000000000000000081526004016118d89190611c49565b60405180910390fd5b565b60008060009054906101000a900473ffffffffffffffffffffffffffffffffffffffff169050816000806101000a81548173ffffffffffffffffffffffffffffffffffffffff021916908373ffffffffffffffffffffffffffffffffffffffff1602179055508173ffffffffffffffffffffffffffffffffffffffff168173ffffffffffffffffffffffffffffffffffffffff167f8be0079c531659141344cd1fd0a4f28419497f9722a3daafe3b4186f6b6457e060405160405180910390a35050565b600033905090565b604051806101000160405280606081526020016060815260200160608152602001606081526020016000815260200160008152602001606081526020016000151581525090565b6000604051905090565b600080fd5b600080fd5b6000819050919050565b611a1d81611a0a565b8114611a2857600080fd5b50565b600081359050611a3a81611a14565b92915050565b60008060408385031215611a5757611a56611a00565b5b6000611a6585828601611a2b565b9250506020611a7685828601611a2b565b9150509250929050565b600060208284031215611a9657611a95611a00565b5b6000611aa484828501611a2b565b91505092915050565b600081519050919050565b600082825260208201905092915050565b60005b83811015611ae7578082015181840152602081019050611acc565b60008484015250505050565b6000601f19601f8301169050919050565b6000611b0f82611aad565b611b198185611ab8565b9350611b29818560208601611ac9565b611b3281611af3565b840191505092915050565b611b4681611a0a565b82525050565b60008115159050919050565b611b6181611b4c565b82525050565b6000610100820190508181036000830152611b82818b611b04565b90508181036020830152611b96818a611b04565b90508181036040830152611baa8189611b04565b90508181036060830152611bbe8188611b04565b9050611bcd6080830187611b3d565b611bda60a0830186611b3d565b81810360c0830152611bec8185611b04565b9050611bfb60e0830184611b58565b9998505050505050505050565b600073ffffffffffffffffffffffffffffffffffffffff82169050919050565b6000611c3382611c08565b9050919050565b611c4381611c28565b82525050565b6000602082019050611c5e6000830184611c3a565b92915050565b6000602082019050611c796000830184611b3d565b92915050565b600080fd5b600080fd5b600080fd5b60008083601f840112611ca457611ca3611c7f565b5b8235905067ffffffffffffffff811115611cc157611cc0611c84565b5b602083019150836001820283011115611cdd57611cdc611c89565b5b9250929050565b60008060208385031215611cfb57611cfa611a00565b5b600083013567ffffffffffffffff811115611d1957611d18611a05565b5b611d2585828601611c8e565b92509250509250929050565b600081519050919050565b600082825260208201905092915050565b6000611d5882611d31565b611d628185611d3c565b9350611d72818560208601611ac9565b611d7b81611af3565b840191505092915050565b6000604082019050611d9b6000830185611b58565b8181036020830152611dad8184611d4d565b90509392505050565b600081519050919050565b600082825260208201905092915050565b6000819050602082019050919050565b611deb81611a0a565b82525050565b6000611dfd8383611de2565b60208301905092915050565b6000602082019050919050565b6000611e2182611db6565b611e2b8185611dc1565b9350611e3683611dd2565b8060005b83811015611e67578151611e4e8882611df1565b9750611e5983611e09565b925050600181019050611e3a565b5085935050505092915050565b60006020820190508181036000830152611e8e8184611e16565b905092915050565b7f4e487b7100000000000000000000000000000000000000000000000000000000600052604160045260246000fd5b611ece82611af3565b810181811067ffffffffffffffff82111715611eed57611eec611e96565b5b80604052505050565b6000611f006119f6565b9050611f0c8282611ec5565b919050565b600067ffffffffffffffff821115611f2c57611f2b611e96565b5b602082029050602081019050919050565b6000611f50611f4b84611f11565b611ef6565b90508083825260208201905060208402830185811115611f7357611f72611c89565b5b835b81811015611f9c5780611f888882611a2b565b845260208401935050602081019050611f75565b5050509392505050565b600082601f830112611fbb57611fba611c7f565b5b8135611fcb848260208601611f3d565b91505092915050565b60008060408385031215611feb57611fea611a00565b5b600083013567ffffffffffffffff81111561200957612008611a05565b5b61201585828601611fa6565b925050602061202685828601611a2b565b9150509250929050565b61203981611c28565b811461204457600080fd5b50565b60008135905061205681612030565b92915050565b60006020828403121561207257612071611a00565b5b600061208084828501612047565b91505092915050565b600080fd5b600080fd5b600080fd5b600067ffffffffffffffff8211156120b3576120b2611e96565b5b6120bc82611af3565b9050602081019050919050565b82818337600083830152505050565b60006120eb6120e684612098565b611ef6565b90508281526020810184848401111561210757612106612093565b5b6121128482856120c9565b509392505050565b600082601f83011261212f5761212e611c7f565b5b813561213f8482602086016120d8565b91505092915050565b61215181611b4c565b811461215c57600080fd5b50565b60008135905061216e81612148565b92915050565b6000610100828403121561218b5761218a612089565b5b612196610100611ef6565b9050600082013567ffffffffffffffff8111156121b6576121b561208e565b5b6121c28482850161211a565b600083015250602082013567ffffffffffffffff8111156121e6576121e561208e565b5b6121f28482850161211a565b602083015250604082013567ffffffffffffffff8111156122165761221561208e565b5b6122228482850161211a565b604083015250606082013567ffffffffffffffff8111156122465761224561208e565b5b6122528482850161211a565b606083015250608061226684828501611a2b565b60808301525060a061227a84828501611a2b565b60a08301525060c082013567ffffffffffffffff81111561229e5761229d61208e565b5b6122aa8482850161211a565b60c08301525060e06122be8482850161215f565b60e08301525092915050565b6000602082840312156122e0576122df611a00565b5b600082013567ffffffffffffffff8111156122fe576122fd611a05565b5b61230a84828501612174565b91505092915050565b600082825260208201905092915050565b600061232f82611aad565b6123398185612313565b9350612349818560208601611ac9565b61235281611af3565b840191505092915050565b61236681611b4c565b82525050565b600061010083016000830151848203600086015261238a8282612324565b915050602083015184820360208601526123a48282612324565b915050604083015184820360408601526123be8282612324565b915050606083015184820360608601526123d88282612324565b91505060808301516123ed6080860182611de2565b5060a083015161240060a0860182611de2565b5060c083015184820360c08601526124188282612324565b91505060e083015161242d60e086018261235d565b508091505092915050565b60006020820190508181036000830152612452818461236c565b905092915050565b7f6f6e6c792074686520726573756c7420736f757263652063616e2063616c6c2060008201527f7570646174652067616d6520726573756c740000000000000000000000000000602082015250565b60006124b6603283611ab8565b91506124c18261245a565b604082019050919050565b600060208201905081810360008301526124e5816124a9565b9050919050565b7f67616d6520646f6573206e6f7420657869737400000000000000000000000000600082015250565b6000612522601383611ab8565b915061252d826124ec565b602082019050919050565b6000602082019050818103600083015261255181612515565b9050919050565b7f726573756c74206d7573742062652067726561746572207468616e2030000000600082015250565b600061258e601d83611ab8565b915061259982612558565b602082019050919050565b600060208201905081810360008301526125bd81612581565b9050919050565b7f67616d65206973206e6f206c6f6e676572206163746976650000000000000000600082015250565b60006125fa601883611ab8565b9150612605826125c4565b602082019050919050565b60006020820190508181036000830152612629816125ed565b9050919050565b60006040820190506126456000830185611b3d565b6126526020830184611b3d565b9392505050565b7f4e487b7100000000000000000000000000000000000000000000000000000000600052602260045260246000fd5b600060028204905060018216806126a057607f821691505b6020821081036126b3576126b2612659565b5b50919050565b7f63616e6e6f74206372656174652077616765722c206576656e7420696420646f60008201527f6573206e6f742065786973740000000000000000000000000000000000000000602082015250565b6000612715602c83611ab8565b9150612720826126b9565b604082019050919050565b6000602082019050818103600083015261274481612708565b9050919050565b7f4e487b7100000000000000000000000000000000000000000000000000000000600052601160045260246000fd5b600061278582611a0a565b915061279083611a0a565b92508282019050808211156127a8576127a761274b565b5b92915050565b7f63616e6e6f7420637265617465207761676572207768657265206576656e742060008201527f69732061626f757420746f20626567696e000000000000000000000000000000602082015250565b600061280a603183611ab8565b9150612815826127ae565b604082019050919050565b60006020820190508181036000830152612839816127fd565b9050919050565b60006040820190506128556000830185611c3a565b6128626020830184611b3d565b9392505050565b600060408201905061287e6000830185611b3d565b61288b6020830184611c3a565b9392505050565b7f6e6f7420666f727761726465722063616e6e6f742063616c6c2066696e64206760008201527f616d6520726573756c7473000000000000000000000000000000000000000000602082015250565b60006128ee602b83611ab8565b91506128f982612892565b604082019050919050565b6000602082019050818103600083015261291d816128e1565b9050919050565b600081549050919050565b60008190508160005260206000209050919050565b60008160001c9050919050565b6000819050919050565b600061296e61296983612944565b612951565b9050919050565b6000612981825461295b565b9050919050565b6000600182019050919050565b60006129a082612924565b6129aa8185611dc1565b93506129b58361292f565b8060005b838110156129ed576129ca82612975565b6129d48882611df1565b97506129df83612988565b9250506001810190506129b9565b5085935050505092915050565b6000604082019050612a0f6000830185611b3d565b8181036020830152612a218184612995565b90509392505050565b7f67616d6520616c72656164792063616e63656c6c656400000000000000000000600082015250565b6000612a60601683611ab8565b9150612a6b82612a2a565b602082019050919050565b60006020820190508181036000830152612a8f81612a53565b9050919050565b7f4e487b7100000000000000000000000000000000000000000000000000000000600052603260045260246000fd5b6000612ad082611a0a565b91507fffffffffffffffffffffffffffffffffffffffffffffffffffffffffffffffff8203612b0257612b0161274b565b5b600182019050919050565b7f4e487b7100000000000000000000000000000000000000000000000000000000600052601260045260246000fd5b6000612b4782611a0a565b9150612b5283611a0a565b925082612b6257612b61612b0d565b5b828204905092915050565b6000612b7882611a0a565b9150612b8383611a0a565b9250828202612b9181611a0a565b91508282048414831517612ba857612ba761274b565b5b5092915050565b7f63616e6e6f74206372656174652067616d652c20697420616c7265616479206560008201527f7869737473000000000000000000000000000000000000000000000000000000602082015250565b6000612c0b602583611ab8565b9150612c1682612baf565b604082019050919050565b60006020820190508181036000830152612c3a81612bfe565b9050919050565b7f6576656e74206964206d757374206265203e2030000000000000000000000000600082015250565b6000612c77601483611ab8565b9150612c8282612c41565b602082019050919050565b60006020820190508181036000830152612ca681612c6a565b9050919050565b7f637265617465642067616d6520636f6e666967206d757374206265206163746960008201527f7665000000000000000000000000000000000000000000000000000000000000602082015250565b6000612d09602283611ab8565b9150612d1482612cad565b604082019050919050565b60006020820190508181036000830152612d3881612cfc565b9050919050565b7f637265617465642067616d6520636f6e666967206576656e742064617465206d60008201527f7573742062652061667465722063757272656e742074696d6500000000000000602082015250565b6000612d9b603983611ab8565b9150612da682612d3f565b604082019050919050565b60006020820190508181036000830152612dca81612d8e565b9050919050565b60008190508160005260206000209050919050565b60006020601f8301049050919050565b600082821b905092915050565b600060088302612e337fffffffffffffffffffffffffffffffffffffffffffffffffffffffffffffffff82612df6565b612e3d8683612df6565b95508019841693508086168417925050509392505050565b6000819050919050565b6000612e7a612e75612e7084611a0a565b612e55565b611a0a565b9050919050565b6000819050919050565b612e9483612e5f565b612ea8612ea082612e81565b848454612e03565b825550505050565b600090565b612ebd612eb0565b612ec8818484612e8b565b505050565b5b81811015612eec57612ee1600082612eb5565b600181019050612ece565b5050565b601f821115612f3157612f0281612dd1565b612f0b84612de6565b81016020851015612f1a578190505b612f2e612f2685612de6565b830182612ecd565b50505b505050565b600082821c905092915050565b6000612f5460001984600802612f36565b1980831691505092915050565b6000612f6d8383612f43565b9150826002028217905092915050565b612f8682611aad565b67ffffffffffffffff811115612f9f57612f9e611e96565b5b612fa98254612688565b612fb4828285612ef0565b600060209050601f831160018114612fe75760008415612fd5578287015190505b612fdf8582612f61565b865550613047565b601f198416612ff586612dd1565b60005b8281101561301d57848901518255600182019150602085019450602081019050612ff8565b8683101561303a5784890151613036601f891682612f43565b8355505b6001600288020188555050505b50505050505056fea2646970667358221220377a406ee213cbe31a169b2d3db1b42758ed95d6b9acc023ee974e328b2b931c64736f6c63430008140033",
  "linkReferences": {},
  "deployedLinkReferences": {}
}