{
  "_format": "hh-sol-artifact-1",
  "contractName": "SampleERC721",
  "sourceName": "contracts/test/SampleERC721.sol",
  "abi": [
    {
      "inputs": [],
      "stateMutability": "nonpayable",
      "type": "constructor"
    },
    {
      "inputs": [
        {
          "internalType": "address",
          "name": "sender",
          "type": "address"
        },
        {
          "internalType": "uint256",
          "name": "tokenId",
          "type": "uint256"
        },
        {
          "internalType": "address",
          "name": "owner",
          "type": "address"
        }
      ],
      "name": "ERC721IncorrectOwner",
      "type": "error"
    },
    {
      "inputs": [
        {
          "internalType": "address",
          "name": "operator",
          "type": "address"
        },
        {
          "internalType": "uint256",
          "name": "tokenId",
          "type": "uint256"
        }
      ],
      "name": "ERC721InsufficientApproval",
      "type": "error"
    },
    {
      "inputs": [
        {
          "internalType": "address",
          "name": "approver",
          "type": "address"
        }
      ],
      "name": "ERC721InvalidApprover",
      "type": "error"
    },
    {
      "inputs": [
        {
          "internalType": "address",
          "name": "operator",
          "type": "address"
        }
      ],
      "name": "ERC721InvalidOperator",
      "type": "error"
    },
    {
      "inputs": [
        {
          "internalType": "address",
          "name": "owner",
          "type": "address"
        }
      ],
      "name": "ERC721InvalidOwner",
      "type": "error"
    },
    {
      "inputs": [
        {
          "internalType": "address",
          "name": "receiver",
          "type": "address"
        }
      ],
      "name": "ERC721InvalidReceiver",
      "type": "error"
    },
    {
      "inputs": [
        {
          "internalType": "address",
          "name": "sender",
          "type": "address"
        }
      ],
      "name": "ERC721InvalidSender",
      "type": "error"
    },
    {
      "inputs": [
        {
          "internalType": "uint256",
          "name": "tokenId",
          "type": "uint256"
        }
      ],
      "name": "ERC721NonexistentToken",
      "type": "error"
    },
    {
      "anonymous": false,
      "inputs": [
        {
          "indexed": true,
          "internalType": "address",
          "name": "owner",
          "type": "address"
        },
        {
          "indexed": true,
          "internalType": "address",
          "name": "approved",
          "type": "address"
        },
        {
          "indexed": true,
          "internalType": "uint256",
          "name": "tokenId",
          "type": "uint256"
        }
      ],
      "name": "Approval",
      "type": "event"
    },
    {
      "anonymous": false,
      "inputs": [
        {
          "indexed": true,
          "internalType": "address",
          "name": "owner",
          "type": "address"
        },
        {
          "indexed": true,
          "internalType": "address",
          "name": "operator",
          "type": "address"
        },
        {
          "indexed": false,
          "internalType": "bool",
          "name": "approved",
          "type": "bool"
        }
      ],
      "name": "ApprovalForAll",
      "type": "event"
    },
    {
      "anonymous": false,
      "inputs": [
        {
          "indexed": true,
          "internalType": "address",
          "name": "from",
          "type": "address"
        },
        {
          "indexed": true,
          "internalType": "address",
          "name": "to",
          "type": "address"
        },
        {
          "indexed": true,
          "internalType": "uint256",
          "name": "tokenId",
          "type": "uint256"
        }
      ],
      "name": "Transfer",
      "type": "event"
    },
    {
      "inputs": [
        {
          "internalType": "address",
          "name": "to",
          "type": "address"
        },
        {
          "internalType": "uint256",
          "name": "tokenId",
          "type": "uint256"
        }
      ],
      "name": "approve",
      "outputs": [],
      "stateMutability": "nonpayable",
      "type": "function"
    },
    {
      "inputs": [
        {
          "internalType": "address",
          "name": "owner",
          "type": "address"
        }
      ],
      "name": "balanceOf",
      "outputs": [
        {
          "internalType": "uint256",
          "name": "",
          "type": "uint256"
        }
      ],
      "stateMutability": "view",
      "type": "function"
    },
    {
      "inputs": [
        {
          "internalType": "uint256",
          "name": "tokenId",
          "type": "uint256"
        }
      ],
      "name": "getApproved",
      "outputs": [
        {
          "internalType": "address",
          "name": "",
          "type": "address"
        }
      ],
      "stateMutability": "view",
      "type": "function"
    },
    {
      "inputs": [
        {
          "internalType": "address",
          "name": "owner",
          "type": "address"
        },
        {
          "internalType": "address",
          "name": "operator",
          "type": "address"
        }
      ],
      "name": "isApprovedForAll",
      "outputs": [
        {
          "internalType": "bool",
          "name": "",
          "type": "bool"
        }
      ],
      "stateMutability": "view",
      "type": "function"
    },
    {
      "inputs": [],
      "name": "mintToken",
      "outputs": [],
      "stateMutability": "nonpayable",
      "type": "function"
    },
    {
      "inputs": [],
      "name": "name",
      "outputs": [
        {
          "internalType": "string",
          "name": "",
          "type": "string"
        }
      ],
      "stateMutability": "view",
      "type": "function"
    },
    {
      "inputs": [
        {
          "internalType": "uint256",
          "name": "tokenId",
          "type": "uint256"
        }
      ],
      "name": "ownerOf",
      "outputs": [
        {
          "internalType": "address",
          "name": "",
          "type": "address"
        }
      ],
      "stateMutability": "view",
      "type": "function"
    },
    {
      "inputs": [
        {
          "internalType": "address",
          "name": "from",
          "type": "address"
        },
        {
          "internalType": "address",
          "name": "to",
          "type": "address"
        },
        {
          "internalType": "uint256",
          "name": "tokenId",
          "type": "uint256"
        }
      ],
      "name": "safeTransferFrom",
      "outputs": [],
      "stateMutability": "nonpayable",
      "type": "function"
    },
    {
      "inputs": [
        {
          "internalType": "address",
          "name": "from",
          "type": "address"
        },
        {
          "internalType": "address",
          "name": "to",
          "type": "address"
        },
        {
          "internalType": "uint256",
          "name": "tokenId",
          "type": "uint256"
        },
        {
          "internalType": "bytes",
          "name": "data",
          "type": "bytes"
        }
      ],
      "name": "safeTransferFrom",
      "outputs": [],
      "stateMutability": "nonpayable",
      "type": "function"
    },
    {
      "inputs": [
        {
          "internalType": "address",
          "name": "operator",
          "type": "address"
        },
        {
          "internalType": "bool",
          "name": "approved",
          "type": "bool"
        }
      ],
      "name": "setApprovalForAll",
      "outputs": [],
      "stateMutability": "nonpayable",
      "type": "function"
    },
    {
      "inputs": [
        {
          "internalType": "bytes4",
          "name": "interfaceId",
          "type": "bytes4"
        }
      ],
      "name": "supportsInterface",
      "outputs": [
        {
          "internalType": "bool",
          "name": "",
          "type": "bool"
        }
      ],
      "stateMutability": "view",
      "type": "function"
    },
    {
      "inputs": [],
      "name": "symbol",
      "outputs": [
        {
          "internalType": "string",
          "name": "",
          "type": "string"
        }
      ],
      "stateMutability": "view",
      "type": "function"
    },
    {
      "inputs": [
        {
          "internalType": "uint256",
          "name": "tokenId",
          "type": "uint256"
        }
      ],
      "name": "tokenURI",
      "outputs": [
        {
          "internalType": "string",
          "name": "",
          "type": "string"
        }
      ],
      "stateMutability": "view",
      "type": "function"
    },
    {
      "inputs": [
        {
          "internalType": "address",
          "name": "from",
          "type": "address"
        },
        {
          "internalType": "address",
          "name": "to",
          "type": "address"
        },
        {
          "internalType": "uint256",
          "name": "tokenId",
          "type": "uint256"
        }
      ],
      "name": "transferFrom",
      "outputs": [],
      "stateMutability": "nonpayable",
      "type": "function"
    }
  ],
  "bytecode": "0x60806040523480156200001157600080fd5b506040518060400160405280600981526020017f53616d706c6537323100000000000000000000000000000000000000000000008152506040518060400160405280600681526020017f53414d504c45000000000000000000000000000000000000000000000000000081525081600090816200008f919062000324565b508060019081620000a1919062000324565b5050506200040b565b600081519050919050565b7f4e487b7100000000000000000000000000000000000000000000000000000000600052604160045260246000fd5b7f4e487b7100000000000000000000000000000000000000000000000000000000600052602260045260246000fd5b600060028204905060018216806200012c57607f821691505b602082108103620001425762000141620000e4565b5b50919050565b60008190508160005260206000209050919050565b60006020601f8301049050919050565b600082821b905092915050565b600060088302620001ac7fffffffffffffffffffffffffffffffffffffffffffffffffffffffffffffffff826200016d565b620001b886836200016d565b95508019841693508086168417925050509392505050565b6000819050919050565b6000819050919050565b600062000205620001ff620001f984620001d0565b620001da565b620001d0565b9050919050565b6000819050919050565b6200022183620001e4565b6200023962000230826200020c565b8484546200017a565b825550505050565b600090565b6200025062000241565b6200025d81848462000216565b505050565b5b8181101562000285576200027960008262000246565b60018101905062000263565b5050565b601f821115620002d4576200029e8162000148565b620002a9846200015d565b81016020851015620002b9578190505b620002d1620002c8856200015d565b83018262000262565b50505b505050565b600082821c905092915050565b6000620002f960001984600802620002d9565b1980831691505092915050565b6000620003148383620002e6565b9150826002028217905092915050565b6200032f82620000aa565b67ffffffffffffffff8111156200034b576200034a620000b5565b5b62000357825462000113565b6200036482828562000289565b600060209050601f8311600181146200039c576000841562000387578287015190505b62000393858262000306565b86555062000403565b601f198416620003ac8662000148565b60005b82811015620003d657848901518255600182019150602085019450602081019050620003af565b86831015620003f65784890151620003f2601f891682620002e6565b8355505b6001600288020188555050505b505050505050565b611e25806200041b6000396000f3fe608060405234801561001057600080fd5b50600436106100ea5760003560e01c80636352211e1161008c578063a22cb46511610066578063a22cb46514610249578063b88d4fde14610265578063c87b56dd14610281578063e985e9c5146102b1576100ea565b80636352211e146101cb57806370a08231146101fb57806395d89b411461022b576100ea565b8063095ea7b3116100c8578063095ea7b31461016d5780632004ffd91461018957806323b872dd1461019357806342842e0e146101af576100ea565b806301ffc9a7146100ef57806306fdde031461011f578063081812fc1461013d575b600080fd5b6101096004803603810190610104919061160c565b6102e1565b6040516101169190611654565b60405180910390f35b6101276103c3565b60405161013491906116ff565b60405180910390f35b61015760048036038101906101529190611757565b610455565b60405161016491906117c5565b60405180910390f35b6101876004803603810190610182919061180c565b610471565b005b610191610487565b005b6101ad60048036038101906101a8919061184c565b6104af565b005b6101c960048036038101906101c4919061184c565b6105b1565b005b6101e560048036038101906101e09190611757565b6105d1565b6040516101f291906117c5565b60405180910390f35b6102156004803603810190610210919061189f565b6105e3565b60405161022291906118db565b60405180910390f35b61023361069d565b60405161024091906116ff565b60405180910390f35b610263600480360381019061025e9190611922565b61072f565b005b61027f600480360381019061027a9190611a97565b610745565b005b61029b60048036038101906102969190611757565b610762565b6040516102a891906116ff565b60405180910390f35b6102cb60048036038101906102c69190611b1a565b6107cb565b6040516102d89190611654565b60405180910390f35b60007f80ac58cd000000000000000000000000000000000000000000000000000000007bffffffffffffffffffffffffffffffffffffffffffffffffffffffff1916827bffffffffffffffffffffffffffffffffffffffffffffffffffffffff191614806103ac57507f5b5e139f000000000000000000000000000000000000000000000000000000007bffffffffffffffffffffffffffffffffffffffffffffffffffffffff1916827bffffffffffffffffffffffffffffffffffffffffffffffffffffffff1916145b806103bc57506103bb8261085f565b5b9050919050565b6060600080546103d290611b89565b80601f01602080910402602001604051908101604052809291908181526020018280546103fe90611b89565b801561044b5780601f106104205761010080835404028352916020019161044b565b820191906000526020600020905b81548152906001019060200180831161042e57829003601f168201915b5050505050905090565b6000610460826108c9565b5061046a82610951565b9050919050565b610483828261047e61098e565b610996565b5050565b60016006600082825461049a9190611be9565b925050819055506104ad336006546109a8565b565b600073ffffffffffffffffffffffffffffffffffffffff168273ffffffffffffffffffffffffffffffffffffffff16036105215760006040517f64a0ae9200000000000000000000000000000000000000000000000000000000815260040161051891906117c5565b60405180910390fd5b6000610535838361053061098e565b610aa1565b90508373ffffffffffffffffffffffffffffffffffffffff168173ffffffffffffffffffffffffffffffffffffffff16146105ab578382826040517f64283d7b0000000000000000000000000000000000000000000000000000000081526004016105a293929190611c1d565b60405180910390fd5b50505050565b6105cc83838360405180602001604052806000815250610745565b505050565b60006105dc826108c9565b9050919050565b60008073ffffffffffffffffffffffffffffffffffffffff168273ffffffffffffffffffffffffffffffffffffffff16036106565760006040517f89c62b6400000000000000000000000000000000000000000000000000000000815260040161064d91906117c5565b60405180910390fd5b600360008373ffffffffffffffffffffffffffffffffffffffff1673ffffffffffffffffffffffffffffffffffffffff168152602001908152602001600020549050919050565b6060600180546106ac90611b89565b80601f01602080910402602001604051908101604052809291908181526020018280546106d890611b89565b80156107255780601f106106fa57610100808354040283529160200191610725565b820191906000526020600020905b81548152906001019060200180831161070857829003601f168201915b5050505050905090565b61074161073a61098e565b8383610cbb565b5050565b6107508484846104af565b61075c84848484610e2a565b50505050565b606061076d826108c9565b506000610778610fe1565b9050600081511161079857604051806020016040528060008152506107c3565b806107a284610ff8565b6040516020016107b3929190611c90565b6040516020818303038152906040525b915050919050565b6000600560008473ffffffffffffffffffffffffffffffffffffffff1673ffffffffffffffffffffffffffffffffffffffff16815260200190815260200160002060008373ffffffffffffffffffffffffffffffffffffffff1673ffffffffffffffffffffffffffffffffffffffff16815260200190815260200160002060009054906101000a900460ff16905092915050565b60007f01ffc9a7000000000000000000000000000000000000000000000000000000007bffffffffffffffffffffffffffffffffffffffffffffffffffffffff1916827bffffffffffffffffffffffffffffffffffffffffffffffffffffffff1916149050919050565b6000806108d5836110c6565b9050600073ffffffffffffffffffffffffffffffffffffffff168173ffffffffffffffffffffffffffffffffffffffff160361094857826040517f7e27328900000000000000000000000000000000000000000000000000000000815260040161093f91906118db565b60405180910390fd5b80915050919050565b60006004600083815260200190815260200160002060009054906101000a900473ffffffffffffffffffffffffffffffffffffffff169050919050565b600033905090565b6109a38383836001611103565b505050565b600073ffffffffffffffffffffffffffffffffffffffff168273ffffffffffffffffffffffffffffffffffffffff1603610a1a5760006040517f64a0ae92000000000000000000000000000000000000000000000000000000008152600401610a1191906117c5565b60405180910390fd5b6000610a2883836000610aa1565b9050600073ffffffffffffffffffffffffffffffffffffffff168173ffffffffffffffffffffffffffffffffffffffff1614610a9c5760006040517f73c6ac6e000000000000000000000000000000000000000000000000000000008152600401610a9391906117c5565b60405180910390fd5b505050565b600080610aad846110c6565b9050600073ffffffffffffffffffffffffffffffffffffffff168373ffffffffffffffffffffffffffffffffffffffff1614610aef57610aee8184866112c8565b5b600073ffffffffffffffffffffffffffffffffffffffff168173ffffffffffffffffffffffffffffffffffffffff1614610b8057610b31600085600080611103565b6001600360008373ffffffffffffffffffffffffffffffffffffffff1673ffffffffffffffffffffffffffffffffffffffff168152602001908152602001600020600082825403925050819055505b600073ffffffffffffffffffffffffffffffffffffffff168573ffffffffffffffffffffffffffffffffffffffff1614610c03576001600360008773ffffffffffffffffffffffffffffffffffffffff1673ffffffffffffffffffffffffffffffffffffffff168152602001908152602001600020600082825401925050819055505b846002600086815260200190815260200160002060006101000a81548173ffffffffffffffffffffffffffffffffffffffff021916908373ffffffffffffffffffffffffffffffffffffffff160217905550838573ffffffffffffffffffffffffffffffffffffffff168273ffffffffffffffffffffffffffffffffffffffff167fddf252ad1be2c89b69c2b068fc378daa952ba7f163c4a11628f55a4df523b3ef60405160405180910390a4809150509392505050565b600073ffffffffffffffffffffffffffffffffffffffff168273ffffffffffffffffffffffffffffffffffffffff1603610d2c57816040517f5b08ba18000000000000000000000000000000000000000000000000000000008152600401610d2391906117c5565b60405180910390fd5b80600560008573ffffffffffffffffffffffffffffffffffffffff1673ffffffffffffffffffffffffffffffffffffffff16815260200190815260200160002060008473ffffffffffffffffffffffffffffffffffffffff1673ffffffffffffffffffffffffffffffffffffffff16815260200190815260200160002060006101000a81548160ff0219169083151502179055508173ffffffffffffffffffffffffffffffffffffffff168373ffffffffffffffffffffffffffffffffffffffff167f17307eab39ab6107e8899845ad3d59bd9653f200f220920489ca2b5937696c3183604051610e1d9190611654565b60405180910390a3505050565b60008373ffffffffffffffffffffffffffffffffffffffff163b1115610fdb578273ffffffffffffffffffffffffffffffffffffffff1663150b7a02610e6e61098e565b8685856040518563ffffffff1660e01b8152600401610e909493929190611d09565b6020604051808303816000875af1925050508015610ecc57506040513d601f19601f82011682018060405250810190610ec99190611d6a565b60015b610f50573d8060008114610efc576040519150601f19603f3d011682016040523d82523d6000602084013e610f01565b606091505b506000815103610f4857836040517f64a0ae92000000000000000000000000000000000000000000000000000000008152600401610f3f91906117c5565b60405180910390fd5b805181602001fd5b63150b7a0260e01b7bffffffffffffffffffffffffffffffffffffffffffffffffffffffff1916817bffffffffffffffffffffffffffffffffffffffffffffffffffffffff191614610fd957836040517f64a0ae92000000000000000000000000000000000000000000000000000000008152600401610fd091906117c5565b60405180910390fd5b505b50505050565b606060405180602001604052806000815250905090565b6060600060016110078461138c565b01905060008167ffffffffffffffff8111156110265761102561196c565b5b6040519080825280601f01601f1916602001820160405280156110585781602001600182028036833780820191505090505b509050600082602001820190505b6001156110bb578080600190039150507f3031323334353637383961626364656600000000000000000000000000000000600a86061a8153600a85816110af576110ae611d97565b5b04945060008503611066575b819350505050919050565b60006002600083815260200190815260200160002060009054906101000a900473ffffffffffffffffffffffffffffffffffffffff169050919050565b808061113c5750600073ffffffffffffffffffffffffffffffffffffffff168273ffffffffffffffffffffffffffffffffffffffff1614155b1561127057600061114c846108c9565b9050600073ffffffffffffffffffffffffffffffffffffffff168373ffffffffffffffffffffffffffffffffffffffff16141580156111b757508273ffffffffffffffffffffffffffffffffffffffff168173ffffffffffffffffffffffffffffffffffffffff1614155b80156111ca57506111c881846107cb565b155b1561120c57826040517fa9fbf51f00000000000000000000000000000000000000000000000000000000815260040161120391906117c5565b60405180910390fd5b811561126e57838573ffffffffffffffffffffffffffffffffffffffff168273ffffffffffffffffffffffffffffffffffffffff167f8c5be1e5ebec7d5bd14f71427d1e84f3dd0314c0f7b2291e5b200ac8c7c3b92560405160405180910390a45b505b836004600085815260200190815260200160002060006101000a81548173ffffffffffffffffffffffffffffffffffffffff021916908373ffffffffffffffffffffffffffffffffffffffff16021790555050505050565b6112d38383836114df565b61138757600073ffffffffffffffffffffffffffffffffffffffff168373ffffffffffffffffffffffffffffffffffffffff160361134857806040517f7e27328900000000000000000000000000000000000000000000000000000000815260040161133f91906118db565b60405180910390fd5b81816040517f177e802f00000000000000000000000000000000000000000000000000000000815260040161137e929190611dc6565b60405180910390fd5b505050565b600080600090507a184f03e93ff9f4daa797ed6e38ed64bf6a1f01000000000000000083106113ea577a184f03e93ff9f4daa797ed6e38ed64bf6a1f01000000000000000083816113e0576113df611d97565b5b0492506040810190505b6d04ee2d6d415b85acef81000000008310611427576d04ee2d6d415b85acef8100000000838161141d5761141c611d97565b5b0492506020810190505b662386f26fc10000831061145657662386f26fc10000838161144c5761144b611d97565b5b0492506010810190505b6305f5e100831061147f576305f5e100838161147557611474611d97565b5b0492506008810190505b61271083106114a457612710838161149a57611499611d97565b5b0492506004810190505b606483106114c757606483816114bd576114bc611d97565b5b0492506002810190505b600a83106114d6576001810190505b80915050919050565b60008073ffffffffffffffffffffffffffffffffffffffff168373ffffffffffffffffffffffffffffffffffffffff161415801561159757508273ffffffffffffffffffffffffffffffffffffffff168473ffffffffffffffffffffffffffffffffffffffff161480611558575061155784846107cb565b5b8061159657508273ffffffffffffffffffffffffffffffffffffffff1661157e83610951565b73ffffffffffffffffffffffffffffffffffffffff16145b5b90509392505050565b6000604051905090565b600080fd5b600080fd5b60007fffffffff0000000000000000000000000000000000000000000000000000000082169050919050565b6115e9816115b4565b81146115f457600080fd5b50565b600081359050611606816115e0565b92915050565b600060208284031215611622576116216115aa565b5b6000611630848285016115f7565b91505092915050565b60008115159050919050565b61164e81611639565b82525050565b60006020820190506116696000830184611645565b92915050565b600081519050919050565b600082825260208201905092915050565b60005b838110156116a957808201518184015260208101905061168e565b60008484015250505050565b6000601f19601f8301169050919050565b60006116d18261166f565b6116db818561167a565b93506116eb81856020860161168b565b6116f4816116b5565b840191505092915050565b6000602082019050818103600083015261171981846116c6565b905092915050565b6000819050919050565b61173481611721565b811461173f57600080fd5b50565b6000813590506117518161172b565b92915050565b60006020828403121561176d5761176c6115aa565b5b600061177b84828501611742565b91505092915050565b600073ffffffffffffffffffffffffffffffffffffffff82169050919050565b60006117af82611784565b9050919050565b6117bf816117a4565b82525050565b60006020820190506117da60008301846117b6565b92915050565b6117e9816117a4565b81146117f457600080fd5b50565b600081359050611806816117e0565b92915050565b60008060408385031215611823576118226115aa565b5b6000611831858286016117f7565b925050602061184285828601611742565b9150509250929050565b600080600060608486031215611865576118646115aa565b5b6000611873868287016117f7565b9350506020611884868287016117f7565b925050604061189586828701611742565b9150509250925092565b6000602082840312156118b5576118b46115aa565b5b60006118c3848285016117f7565b91505092915050565b6118d581611721565b82525050565b60006020820190506118f060008301846118cc565b92915050565b6118ff81611639565b811461190a57600080fd5b50565b60008135905061191c816118f6565b92915050565b60008060408385031215611939576119386115aa565b5b6000611947858286016117f7565b92505060206119588582860161190d565b9150509250929050565b600080fd5b600080fd5b7f4e487b7100000000000000000000000000000000000000000000000000000000600052604160045260246000fd5b6119a4826116b5565b810181811067ffffffffffffffff821117156119c3576119c261196c565b5b80604052505050565b60006119d66115a0565b90506119e2828261199b565b919050565b600067ffffffffffffffff821115611a0257611a0161196c565b5b611a0b826116b5565b9050602081019050919050565b82818337600083830152505050565b6000611a3a611a35846119e7565b6119cc565b905082815260208101848484011115611a5657611a55611967565b5b611a61848285611a18565b509392505050565b600082601f830112611a7e57611a7d611962565b5b8135611a8e848260208601611a27565b91505092915050565b60008060008060808587031215611ab157611ab06115aa565b5b6000611abf878288016117f7565b9450506020611ad0878288016117f7565b9350506040611ae187828801611742565b925050606085013567ffffffffffffffff811115611b0257611b016115af565b5b611b0e87828801611a69565b91505092959194509250565b60008060408385031215611b3157611b306115aa565b5b6000611b3f858286016117f7565b9250506020611b50858286016117f7565b9150509250929050565b7f4e487b7100000000000000000000000000000000000000000000000000000000600052602260045260246000fd5b60006002820490506001821680611ba157607f821691505b602082108103611bb457611bb3611b5a565b5b50919050565b7f4e487b7100000000000000000000000000000000000000000000000000000000600052601160045260246000fd5b6000611bf482611721565b9150611bff83611721565b9250828201905080821115611c1757611c16611bba565b5b92915050565b6000606082019050611c3260008301866117b6565b611c3f60208301856118cc565b611c4c60408301846117b6565b949350505050565b600081905092915050565b6000611c6a8261166f565b611c748185611c54565b9350611c8481856020860161168b565b80840191505092915050565b6000611c9c8285611c5f565b9150611ca88284611c5f565b91508190509392505050565b600081519050919050565b600082825260208201905092915050565b6000611cdb82611cb4565b611ce58185611cbf565b9350611cf581856020860161168b565b611cfe816116b5565b840191505092915050565b6000608082019050611d1e60008301876117b6565b611d2b60208301866117b6565b611d3860408301856118cc565b8181036060830152611d4a8184611cd0565b905095945050505050565b600081519050611d64816115e0565b92915050565b600060208284031215611d8057611d7f6115aa565b5b6000611d8e84828501611d55565b91505092915050565b7f4e487b7100000000000000000000000000000000000000000000000000000000600052601260045260246000fd5b6000604082019050611ddb60008301856117b6565b611de860208301846118cc565b939250505056fea26469706673582212204e44109e0abdf9e589764fc22ca956101f09d3817fb2ed30c42156bb0f9150e964736f6c63430008140033",
  "linkReferences": {},
  "deployedLinkReferences": {}
}