{
  "_format": "hh-sol-artifact-1",
  "contractName": "RouterClientMock_Pipe",
  "sourceName": "contracts/test/MockRouterClient_Pipe.sol",
  "abi": [
    {
      "inputs": [],
      "stateMutability": "nonpayable",
      "type": "constructor"
    },
    {
      "inputs": [
        {
          "internalType": "address",
          "name": "owner",
          "type": "address"
        }
      ],
      "name": "OwnableInvalidOwner",
      "type": "error"
    },
    {
      "inputs": [
        {
          "internalType": "address",
          "name": "account",
          "type": "address"
        }
      ],
      "name": "OwnableUnauthorizedAccount",
      "type": "error"
    },
    {
      "anonymous": false,
      "inputs": [
        {
          "indexed": true,
          "internalType": "address",
          "name": "previousOwner",
          "type": "address"
        },
        {
          "indexed": true,
          "internalType": "address",
          "name": "newOwner",
          "type": "address"
        }
      ],
      "name": "OwnershipTransferred",
      "type": "event"
    },
    {
      "inputs": [
        {
          "internalType": "uint64",
          "name": "targetChainSelector",
          "type": "uint64"
        },
        {
          "components": [
            {
              "internalType": "bytes",
              "name": "receiver",
              "type": "bytes"
            },
            {
              "internalType": "bytes",
              "name": "data",
              "type": "bytes"
            },
            {
              "components": [
                {
                  "internalType": "address",
                  "name": "token",
                  "type": "address"
                },
                {
                  "internalType": "uint256",
                  "name": "amount",
                  "type": "uint256"
                }
              ],
              "internalType": "struct Client.EVMTokenAmount[]",
              "name": "tokenAmounts",
              "type": "tuple[]"
            },
            {
              "internalType": "address",
              "name": "feeToken",
              "type": "address"
            },
            {
              "internalType": "bytes",
              "name": "extraArgs",
              "type": "bytes"
            }
          ],
          "internalType": "struct Client.EVM2AnyMessage",
          "name": "message",
          "type": "tuple"
        }
      ],
      "name": "ccipSend",
      "outputs": [
        {
          "internalType": "bytes32",
          "name": "",
          "type": "bytes32"
        }
      ],
      "stateMutability": "payable",
      "type": "function"
    },
    {
      "inputs": [
        {
          "internalType": "uint64",
          "name": "",
          "type": "uint64"
        },
        {
          "components": [
            {
              "internalType": "bytes",
              "name": "receiver",
              "type": "bytes"
            },
            {
              "internalType": "bytes",
              "name": "data",
              "type": "bytes"
            },
            {
              "components": [
                {
                  "internalType": "address",
                  "name": "token",
                  "type": "address"
                },
                {
                  "internalType": "uint256",
                  "name": "amount",
                  "type": "uint256"
                }
              ],
              "internalType": "struct Client.EVMTokenAmount[]",
              "name": "tokenAmounts",
              "type": "tuple[]"
            },
            {
              "internalType": "address",
              "name": "feeToken",
              "type": "address"
            },
            {
              "internalType": "bytes",
              "name": "extraArgs",
              "type": "bytes"
            }
          ],
          "internalType": "struct Client.EVM2AnyMessage",
          "name": "",
          "type": "tuple"
        }
      ],
      "name": "getFee",
      "outputs": [
        {
          "internalType": "uint256",
          "name": "",
          "type": "uint256"
        }
      ],
      "stateMutability": "view",
      "type": "function"
    },
    {
      "inputs": [],
      "name": "owner",
      "outputs": [
        {
          "internalType": "address",
          "name": "",
          "type": "address"
        }
      ],
      "stateMutability": "view",
      "type": "function"
    },
    {
      "inputs": [
        {
          "internalType": "uint64",
          "name": "chain",
          "type": "uint64"
        },
        {
          "internalType": "address",
          "name": "serviceAddress",
          "type": "address"
        }
      ],
      "name": "register",
      "outputs": [],
      "stateMutability": "nonpayable",
      "type": "function"
    },
    {
      "inputs": [],
      "name": "renounceOwnership",
      "outputs": [],
      "stateMutability": "nonpayable",
      "type": "function"
    },
    {
      "inputs": [
        {
          "internalType": "address",
          "name": "",
          "type": "address"
        }
      ],
      "name": "reverseChains",
      "outputs": [
        {
          "internalType": "uint64",
          "name": "",
          "type": "uint64"
        }
      ],
      "stateMutability": "view",
      "type": "function"
    },
    {
      "inputs": [
        {
          "internalType": "uint64",
          "name": "",
          "type": "uint64"
        }
      ],
      "name": "supportedChains",
      "outputs": [
        {
          "internalType": "address",
          "name": "",
          "type": "address"
        }
      ],
      "stateMutability": "view",
      "type": "function"
    },
    {
      "inputs": [
        {
          "internalType": "address",
          "name": "newOwner",
          "type": "address"
        }
      ],
      "name": "transferOwnership",
      "outputs": [],
      "stateMutability": "nonpayable",
      "type": "function"
    }
  ],
  "bytecode": "0x608060405234801561001057600080fd5b5033600073ffffffffffffffffffffffffffffffffffffffff168173ffffffffffffffffffffffffffffffffffffffff16036100845760006040517f1e4fbdf700000000000000000000000000000000000000000000000000000000815260040161007b919061019e565b60405180910390fd5b6100938161009960201b60201c565b506101b9565b60008060009054906101000a900473ffffffffffffffffffffffffffffffffffffffff169050816000806101000a81548173ffffffffffffffffffffffffffffffffffffffff021916908373ffffffffffffffffffffffffffffffffffffffff1602179055508173ffffffffffffffffffffffffffffffffffffffff168173ffffffffffffffffffffffffffffffffffffffff167f8be0079c531659141344cd1fd0a4f28419497f9722a3daafe3b4186f6b6457e060405160405180910390a35050565b600073ffffffffffffffffffffffffffffffffffffffff82169050919050565b60006101888261015d565b9050919050565b6101988161017d565b82525050565b60006020820190506101b3600083018461018f565b92915050565b610e95806101c86000396000f3fe60806040526004361061007b5760003560e01c806396f4e9f91161004e57806396f4e9f914610128578063bddb4ffd14610158578063f2fde38b14610195578063f9c3f332146101be5761007b565b80630bbe0ce21461008057806320487ded146100a9578063715018a6146100e65780638da5cb5b146100fd575b600080fd5b34801561008c57600080fd5b506100a760048036038101906100a291906107dc565b6101fb565b005b3480156100b557600080fd5b506100d060048036038101906100cb9190610bb6565b6102d3565b6040516100dd9190610c21565b60405180910390f35b3480156100f257600080fd5b506100fb6102e6565b005b34801561010957600080fd5b506101126102fa565b60405161011f9190610c4b565b60405180910390f35b610142600480360381019061013d9190610bb6565b610323565b60405161014f9190610c7f565b60405180910390f35b34801561016457600080fd5b5061017f600480360381019061017a9190610c9a565b6104f7565b60405161018c9190610cd6565b60405180910390f35b3480156101a157600080fd5b506101bc60048036038101906101b79190610c9a565b61051e565b005b3480156101ca57600080fd5b506101e560048036038101906101e09190610cf1565b6105a4565b6040516101f29190610c4b565b60405180910390f35b6102036105d7565b80600160008467ffffffffffffffff1667ffffffffffffffff16815260200190815260200160002060006101000a81548173ffffffffffffffffffffffffffffffffffffffff021916908373ffffffffffffffffffffffffffffffffffffffff16021790555081600260008373ffffffffffffffffffffffffffffffffffffffff1673ffffffffffffffffffffffffffffffffffffffff16815260200190815260200160002060006101000a81548167ffffffffffffffff021916908367ffffffffffffffff1602179055505050565b600067016345785d8a0000905092915050565b6102ee6105d7565b6102f8600061065e565b565b60008060009054906101000a900473ffffffffffffffffffffffffffffffffffffffff16905090565b60008073ffffffffffffffffffffffffffffffffffffffff16600160008567ffffffffffffffff1667ffffffffffffffff16815260200190815260200160002060009054906101000a900473ffffffffffffffffffffffffffffffffffffffff1673ffffffffffffffffffffffffffffffffffffffff16036103da576040517f08c379a00000000000000000000000000000000000000000000000000000000081526004016103d190610d7b565b60405180910390fd5b600160008467ffffffffffffffff1667ffffffffffffffff16815260200190815260200160002060009054906101000a900473ffffffffffffffffffffffffffffffffffffffff1673ffffffffffffffffffffffffffffffffffffffff1663d4a94045600260003373ffffffffffffffffffffffffffffffffffffffff1673ffffffffffffffffffffffffffffffffffffffff16815260200190815260200160002060009054906101000a900467ffffffffffffffff16846020015185602001516040518463ffffffff1660e01b81526004016104b993929190610e1a565b600060405180830381600087803b1580156104d357600080fd5b505af11580156104e7573d6000803e3d6000fd5b505050506000801b905092915050565b60026020528060005260406000206000915054906101000a900467ffffffffffffffff1681565b6105266105d7565b600073ffffffffffffffffffffffffffffffffffffffff168173ffffffffffffffffffffffffffffffffffffffff16036105985760006040517f1e4fbdf700000000000000000000000000000000000000000000000000000000815260040161058f9190610c4b565b60405180910390fd5b6105a18161065e565b50565b60016020528060005260406000206000915054906101000a900473ffffffffffffffffffffffffffffffffffffffff1681565b6105df610722565b73ffffffffffffffffffffffffffffffffffffffff166105fd6102fa565b73ffffffffffffffffffffffffffffffffffffffff161461065c57610620610722565b6040517f118cdaa70000000000000000000000000000000000000000000000000000000081526004016106539190610c4b565b60405180910390fd5b565b60008060009054906101000a900473ffffffffffffffffffffffffffffffffffffffff169050816000806101000a81548173ffffffffffffffffffffffffffffffffffffffff021916908373ffffffffffffffffffffffffffffffffffffffff1602179055508173ffffffffffffffffffffffffffffffffffffffff168173ffffffffffffffffffffffffffffffffffffffff167f8be0079c531659141344cd1fd0a4f28419497f9722a3daafe3b4186f6b6457e060405160405180910390a35050565b600033905090565b6000604051905090565b600080fd5b600080fd5b600067ffffffffffffffff82169050919050565b61075b8161073e565b811461076657600080fd5b50565b60008135905061077881610752565b92915050565b600073ffffffffffffffffffffffffffffffffffffffff82169050919050565b60006107a98261077e565b9050919050565b6107b98161079e565b81146107c457600080fd5b50565b6000813590506107d6816107b0565b92915050565b600080604083850312156107f3576107f2610734565b5b600061080185828601610769565b9250506020610812858286016107c7565b9150509250929050565b600080fd5b6000601f19601f8301169050919050565b7f4e487b7100000000000000000000000000000000000000000000000000000000600052604160045260246000fd5b61086a82610821565b810181811067ffffffffffffffff8211171561088957610888610832565b5b80604052505050565b600061089c61072a565b90506108a88282610861565b919050565b600080fd5b600080fd5b600080fd5b600067ffffffffffffffff8211156108d7576108d6610832565b5b6108e082610821565b9050602081019050919050565b82818337600083830152505050565b600061090f61090a846108bc565b610892565b90508281526020810184848401111561092b5761092a6108b7565b5b6109368482856108ed565b509392505050565b600082601f830112610953576109526108b2565b5b81356109638482602086016108fc565b91505092915050565b600067ffffffffffffffff82111561098757610986610832565b5b602082029050602081019050919050565b600080fd5b6000819050919050565b6109b08161099d565b81146109bb57600080fd5b50565b6000813590506109cd816109a7565b92915050565b6000604082840312156109e9576109e861081c565b5b6109f36040610892565b90506000610a03848285016107c7565b6000830152506020610a17848285016109be565b60208301525092915050565b6000610a36610a318461096c565b610892565b90508083825260208201905060408402830185811115610a5957610a58610998565b5b835b81811015610a825780610a6e88826109d3565b845260208401935050604081019050610a5b565b5050509392505050565b600082601f830112610aa157610aa06108b2565b5b8135610ab1848260208601610a23565b91505092915050565b600060a08284031215610ad057610acf61081c565b5b610ada60a0610892565b9050600082013567ffffffffffffffff811115610afa57610af96108ad565b5b610b068482850161093e565b600083015250602082013567ffffffffffffffff811115610b2a57610b296108ad565b5b610b368482850161093e565b602083015250604082013567ffffffffffffffff811115610b5a57610b596108ad565b5b610b6684828501610a8c565b6040830152506060610b7a848285016107c7565b606083015250608082013567ffffffffffffffff811115610b9e57610b9d6108ad565b5b610baa8482850161093e565b60808301525092915050565b60008060408385031215610bcd57610bcc610734565b5b6000610bdb85828601610769565b925050602083013567ffffffffffffffff811115610bfc57610bfb610739565b5b610c0885828601610aba565b9150509250929050565b610c1b8161099d565b82525050565b6000602082019050610c366000830184610c12565b92915050565b610c458161079e565b82525050565b6000602082019050610c606000830184610c3c565b92915050565b6000819050919050565b610c7981610c66565b82525050565b6000602082019050610c946000830184610c70565b92915050565b600060208284031215610cb057610caf610734565b5b6000610cbe848285016107c7565b91505092915050565b610cd08161073e565b82525050565b6000602082019050610ceb6000830184610cc7565b92915050565b600060208284031215610d0757610d06610734565b5b6000610d1584828501610769565b91505092915050565b600082825260208201905092915050565b7f756e737570706f7274656420636861696e000000000000000000000000000000600082015250565b6000610d65601183610d1e565b9150610d7082610d2f565b602082019050919050565b60006020820190508181036000830152610d9481610d58565b9050919050565b600081519050919050565b600082825260208201905092915050565b60005b83811015610dd5578082015181840152602081019050610dba565b60008484015250505050565b6000610dec82610d9b565b610df68185610da6565b9350610e06818560208601610db7565b610e0f81610821565b840191505092915050565b6000606082019050610e2f6000830186610cc7565b8181036020830152610e418185610de1565b90508181036040830152610e558184610de1565b905094935050505056fea2646970667358221220dbf2ba13aa12ac99c8e916371b7948166fe2af94d5e37788c2727ec9c719240d64736f6c63430008140033",
  "linkReferences": {},
  "deployedLinkReferences": {}
}