{
  "_format": "hh-sol-artifact-1",
  "contractName": "RouterClientMock",
  "sourceName": "contracts/test/MockRouterClient.sol",
  "abi": [
    {
      "inputs": [],
      "stateMutability": "nonpayable",
      "type": "constructor"
    },
    {
      "inputs": [
        {
          "internalType": "address",
          "name": "owner",
          "type": "address"
        }
      ],
      "name": "OwnableInvalidOwner",
      "type": "error"
    },
    {
      "inputs": [
        {
          "internalType": "address",
          "name": "account",
          "type": "address"
        }
      ],
      "name": "OwnableUnauthorizedAccount",
      "type": "error"
    },
    {
      "anonymous": false,
      "inputs": [
        {
          "indexed": true,
          "internalType": "address",
          "name": "previousOwner",
          "type": "address"
        },
        {
          "indexed": true,
          "internalType": "address",
          "name": "newOwner",
          "type": "address"
        }
      ],
      "name": "OwnershipTransferred",
      "type": "event"
    },
    {
      "inputs": [
        {
          "internalType": "uint64",
          "name": "targetChainSelector",
          "type": "uint64"
        },
        {
          "components": [
            {
              "internalType": "bytes",
              "name": "receiver",
              "type": "bytes"
            },
            {
              "internalType": "bytes",
              "name": "data",
              "type": "bytes"
            },
            {
              "components": [
                {
                  "internalType": "address",
                  "name": "token",
                  "type": "address"
                },
                {
                  "internalType": "uint256",
                  "name": "amount",
                  "type": "uint256"
                }
              ],
              "internalType": "struct Client.EVMTokenAmount[]",
              "name": "tokenAmounts",
              "type": "tuple[]"
            },
            {
              "internalType": "address",
              "name": "feeToken",
              "type": "address"
            },
            {
              "internalType": "bytes",
              "name": "extraArgs",
              "type": "bytes"
            }
          ],
          "internalType": "struct Client.EVM2AnyMessage",
          "name": "message",
          "type": "tuple"
        }
      ],
      "name": "ccipSend",
      "outputs": [
        {
          "internalType": "bytes32",
          "name": "",
          "type": "bytes32"
        }
      ],
      "stateMutability": "payable",
      "type": "function"
    },
    {
      "inputs": [
        {
          "internalType": "uint64",
          "name": "sourceChainSelector",
          "type": "uint64"
        },
        {
          "components": [
            {
              "internalType": "bytes",
              "name": "receiver",
              "type": "bytes"
            },
            {
              "internalType": "bytes",
              "name": "data",
              "type": "bytes"
            },
            {
              "components": [
                {
                  "internalType": "address",
                  "name": "token",
                  "type": "address"
                },
                {
                  "internalType": "uint256",
                  "name": "amount",
                  "type": "uint256"
                }
              ],
              "internalType": "struct Client.EVMTokenAmount[]",
              "name": "tokenAmounts",
              "type": "tuple[]"
            },
            {
              "internalType": "address",
              "name": "feeToken",
              "type": "address"
            },
            {
              "internalType": "bytes",
              "name": "extraArgs",
              "type": "bytes"
            }
          ],
          "internalType": "struct Client.EVM2AnyMessage",
          "name": "message",
          "type": "tuple"
        }
      ],
      "name": "getFee",
      "outputs": [
        {
          "internalType": "uint256",
          "name": "",
          "type": "uint256"
        }
      ],
      "stateMutability": "view",
      "type": "function"
    },
    {
      "inputs": [],
      "name": "latestMessage",
      "outputs": [
        {
          "internalType": "bytes",
          "name": "receiver",
          "type": "bytes"
        },
        {
          "internalType": "bytes",
          "name": "data",
          "type": "bytes"
        },
        {
          "internalType": "address",
          "name": "feeToken",
          "type": "address"
        },
        {
          "internalType": "bytes",
          "name": "extraArgs",
          "type": "bytes"
        }
      ],
      "stateMutability": "view",
      "type": "function"
    },
    {
      "inputs": [],
      "name": "owner",
      "outputs": [
        {
          "internalType": "address",
          "name": "",
          "type": "address"
        }
      ],
      "stateMutability": "view",
      "type": "function"
    },
    {
      "inputs": [],
      "name": "renounceOwnership",
      "outputs": [],
      "stateMutability": "nonpayable",
      "type": "function"
    },
    {
      "inputs": [
        {
          "internalType": "address",
          "name": "newOwner",
          "type": "address"
        }
      ],
      "name": "transferOwnership",
      "outputs": [],
      "stateMutability": "nonpayable",
      "type": "function"
    }
  ],
  "bytecode": "0x608060405234801561001057600080fd5b5033600073ffffffffffffffffffffffffffffffffffffffff168173ffffffffffffffffffffffffffffffffffffffff16036100845760006040517f1e4fbdf700000000000000000000000000000000000000000000000000000000815260040161007b919061019e565b60405180910390fd5b6100938161009960201b60201c565b506101b9565b60008060009054906101000a900473ffffffffffffffffffffffffffffffffffffffff169050816000806101000a81548173ffffffffffffffffffffffffffffffffffffffff021916908373ffffffffffffffffffffffffffffffffffffffff1602179055508173ffffffffffffffffffffffffffffffffffffffff168173ffffffffffffffffffffffffffffffffffffffff167f8be0079c531659141344cd1fd0a4f28419497f9722a3daafe3b4186f6b6457e060405160405180910390a35050565b600073ffffffffffffffffffffffffffffffffffffffff82169050919050565b60006101888261015d565b9050919050565b6101988161017d565b82525050565b60006020820190506101b3600083018461018f565b92915050565b610f43806101c86000396000f3fe6080604052600436106100555760003560e01c806320487ded1461005a57806334a0779814610097578063715018a6146100c55780638da5cb5b146100dc57806396f4e9f914610107578063f2fde38b14610137575b600080fd5b34801561006657600080fd5b50610081600480360381019061007c9190610a45565b610160565b60405161008e9190610ab0565b60405180910390f35b3480156100a357600080fd5b506100ac610173565b6040516100bc9493929190610b59565b60405180910390f35b3480156100d157600080fd5b506100da610349565b005b3480156100e857600080fd5b506100f161035d565b6040516100fe9190610bb3565b60405180910390f35b610121600480360381019061011c9190610a45565b610386565b60405161012e9190610be7565b60405180910390f35b34801561014357600080fd5b5061015e60048036038101906101599190610c02565b610420565b005b600067016345785d8a0000905092915050565b600180600001805461018490610c5e565b80601f01602080910402602001604051908101604052809291908181526020018280546101b090610c5e565b80156101fd5780601f106101d2576101008083540402835291602001916101fd565b820191906000526020600020905b8154815290600101906020018083116101e057829003601f168201915b50505050509080600101805461021290610c5e565b80601f016020809104026020016040519081016040528092919081815260200182805461023e90610c5e565b801561028b5780601f106102605761010080835404028352916020019161028b565b820191906000526020600020905b81548152906001019060200180831161026e57829003601f168201915b5050505050908060030160009054906101000a900473ffffffffffffffffffffffffffffffffffffffff16908060040180546102c690610c5e565b80601f01602080910402602001604051908101604052809291908181526020018280546102f290610c5e565b801561033f5780601f106103145761010080835404028352916020019161033f565b820191906000526020600020905b81548152906001019060200180831161032257829003601f168201915b5050505050905084565b6103516104a6565b61035b600061052d565b565b60008060009054906101000a900473ffffffffffffffffffffffffffffffffffffffff16905090565b600081600001516001600001908161039e9190610e3b565b5081602001516001800190816103b49190610e3b565b508160800151600160040190816103cb9190610e3b565b508160600151600160030160006101000a81548173ffffffffffffffffffffffffffffffffffffffff021916908373ffffffffffffffffffffffffffffffffffffffff1602179055506000801b905092915050565b6104286104a6565b600073ffffffffffffffffffffffffffffffffffffffff168173ffffffffffffffffffffffffffffffffffffffff160361049a5760006040517f1e4fbdf70000000000000000000000000000000000000000000000000000000081526004016104919190610bb3565b60405180910390fd5b6104a38161052d565b50565b6104ae6105f1565b73ffffffffffffffffffffffffffffffffffffffff166104cc61035d565b73ffffffffffffffffffffffffffffffffffffffff161461052b576104ef6105f1565b6040517f118cdaa70000000000000000000000000000000000000000000000000000000081526004016105229190610bb3565b60405180910390fd5b565b60008060009054906101000a900473ffffffffffffffffffffffffffffffffffffffff169050816000806101000a81548173ffffffffffffffffffffffffffffffffffffffff021916908373ffffffffffffffffffffffffffffffffffffffff1602179055508173ffffffffffffffffffffffffffffffffffffffff168173ffffffffffffffffffffffffffffffffffffffff167f8be0079c531659141344cd1fd0a4f28419497f9722a3daafe3b4186f6b6457e060405160405180910390a35050565b600033905090565b6000604051905090565b600080fd5b600080fd5b600067ffffffffffffffff82169050919050565b61062a8161060d565b811461063557600080fd5b50565b60008135905061064781610621565b92915050565b600080fd5b6000601f19601f8301169050919050565b7f4e487b7100000000000000000000000000000000000000000000000000000000600052604160045260246000fd5b61069b82610652565b810181811067ffffffffffffffff821117156106ba576106b9610663565b5b80604052505050565b60006106cd6105f9565b90506106d98282610692565b919050565b600080fd5b600080fd5b600080fd5b600067ffffffffffffffff82111561070857610707610663565b5b61071182610652565b9050602081019050919050565b82818337600083830152505050565b600061074061073b846106ed565b6106c3565b90508281526020810184848401111561075c5761075b6106e8565b5b61076784828561071e565b509392505050565b600082601f830112610784576107836106e3565b5b813561079484826020860161072d565b91505092915050565b600067ffffffffffffffff8211156107b8576107b7610663565b5b602082029050602081019050919050565b600080fd5b600073ffffffffffffffffffffffffffffffffffffffff82169050919050565b60006107f9826107ce565b9050919050565b610809816107ee565b811461081457600080fd5b50565b60008135905061082681610800565b92915050565b6000819050919050565b61083f8161082c565b811461084a57600080fd5b50565b60008135905061085c81610836565b92915050565b6000604082840312156108785761087761064d565b5b61088260406106c3565b9050600061089284828501610817565b60008301525060206108a68482850161084d565b60208301525092915050565b60006108c56108c08461079d565b6106c3565b905080838252602082019050604084028301858111156108e8576108e76107c9565b5b835b8181101561091157806108fd8882610862565b8452602084019350506040810190506108ea565b5050509392505050565b600082601f8301126109305761092f6106e3565b5b81356109408482602086016108b2565b91505092915050565b600060a0828403121561095f5761095e61064d565b5b61096960a06106c3565b9050600082013567ffffffffffffffff811115610989576109886106de565b5b6109958482850161076f565b600083015250602082013567ffffffffffffffff8111156109b9576109b86106de565b5b6109c58482850161076f565b602083015250604082013567ffffffffffffffff8111156109e9576109e86106de565b5b6109f58482850161091b565b6040830152506060610a0984828501610817565b606083015250608082013567ffffffffffffffff811115610a2d57610a2c6106de565b5b610a398482850161076f565b60808301525092915050565b60008060408385031215610a5c57610a5b610603565b5b6000610a6a85828601610638565b925050602083013567ffffffffffffffff811115610a8b57610a8a610608565b5b610a9785828601610949565b9150509250929050565b610aaa8161082c565b82525050565b6000602082019050610ac56000830184610aa1565b92915050565b600081519050919050565b600082825260208201905092915050565b60005b83811015610b05578082015181840152602081019050610aea565b60008484015250505050565b6000610b1c82610acb565b610b268185610ad6565b9350610b36818560208601610ae7565b610b3f81610652565b840191505092915050565b610b53816107ee565b82525050565b60006080820190508181036000830152610b738187610b11565b90508181036020830152610b878186610b11565b9050610b966040830185610b4a565b8181036060830152610ba88184610b11565b905095945050505050565b6000602082019050610bc86000830184610b4a565b92915050565b6000819050919050565b610be181610bce565b82525050565b6000602082019050610bfc6000830184610bd8565b92915050565b600060208284031215610c1857610c17610603565b5b6000610c2684828501610817565b91505092915050565b7f4e487b7100000000000000000000000000000000000000000000000000000000600052602260045260246000fd5b60006002820490506001821680610c7657607f821691505b602082108103610c8957610c88610c2f565b5b50919050565b60008190508160005260206000209050919050565b60006020601f8301049050919050565b600082821b905092915050565b600060088302610cf17fffffffffffffffffffffffffffffffffffffffffffffffffffffffffffffffff82610cb4565b610cfb8683610cb4565b95508019841693508086168417925050509392505050565b6000819050919050565b6000610d38610d33610d2e8461082c565b610d13565b61082c565b9050919050565b6000819050919050565b610d5283610d1d565b610d66610d5e82610d3f565b848454610cc1565b825550505050565b600090565b610d7b610d6e565b610d86818484610d49565b505050565b5b81811015610daa57610d9f600082610d73565b600181019050610d8c565b5050565b601f821115610def57610dc081610c8f565b610dc984610ca4565b81016020851015610dd8578190505b610dec610de485610ca4565b830182610d8b565b50505b505050565b600082821c905092915050565b6000610e1260001984600802610df4565b1980831691505092915050565b6000610e2b8383610e01565b9150826002028217905092915050565b610e4482610acb565b67ffffffffffffffff811115610e5d57610e5c610663565b5b610e678254610c5e565b610e72828285610dae565b600060209050601f831160018114610ea55760008415610e93578287015190505b610e9d8582610e1f565b865550610f05565b601f198416610eb386610c8f565b60005b82811015610edb57848901518255600182019150602085019450602081019050610eb6565b86831015610ef85784890151610ef4601f891682610e01565b8355505b6001600288020188555050505b50505050505056fea2646970667358221220c9a919e3afe33cbb5c11f7a2d5ff7983de7a3cad2d748d516f8e3e660dacb74364736f6c63430008140033",
  "linkReferences": {},
  "deployedLinkReferences": {}
}