{
  "_format": "hh-sol-artifact-1",
  "contractName": "StakeWiseWhitelistNFT",
  "sourceName": "contracts/service/StakeWiseWhitelistNFT.sol",
  "abi": [
    {
      "inputs": [],
      "stateMutability": "nonpayable",
      "type": "constructor"
    },
    {
      "inputs": [
        {
          "internalType": "address",
          "name": "owner",
          "type": "address"
        }
      ],
      "name": "OwnableInvalidOwner",
      "type": "error"
    },
    {
      "inputs": [
        {
          "internalType": "address",
          "name": "account",
          "type": "address"
        }
      ],
      "name": "OwnableUnauthorizedAccount",
      "type": "error"
    },
    {
      "anonymous": false,
      "inputs": [
        {
          "indexed": true,
          "internalType": "address",
          "name": "previousOwner",
          "type": "address"
        },
        {
          "indexed": true,
          "internalType": "address",
          "name": "newOwner",
          "type": "address"
        }
      ],
      "name": "OwnershipTransferred",
      "type": "event"
    },
    {
      "inputs": [
        {
          "internalType": "address",
          "name": "nftAddress",
          "type": "address"
        }
      ],
      "name": "addWhitelistContract",
      "outputs": [],
      "stateMutability": "nonpayable",
      "type": "function"
    },
    {
      "inputs": [
        {
          "internalType": "address",
          "name": "nftAddress",
          "type": "address"
        }
      ],
      "name": "isWhitelisted",
      "outputs": [
        {
          "internalType": "bool",
          "name": "",
          "type": "bool"
        }
      ],
      "stateMutability": "view",
      "type": "function"
    },
    {
      "inputs": [],
      "name": "owner",
      "outputs": [
        {
          "internalType": "address",
          "name": "",
          "type": "address"
        }
      ],
      "stateMutability": "view",
      "type": "function"
    },
    {
      "inputs": [
        {
          "internalType": "address",
          "name": "nftAddress",
          "type": "address"
        }
      ],
      "name": "removeWhiteListContract",
      "outputs": [],
      "stateMutability": "nonpayable",
      "type": "function"
    },
    {
      "inputs": [],
      "name": "renounceOwnership",
      "outputs": [],
      "stateMutability": "nonpayable",
      "type": "function"
    },
    {
      "inputs": [
        {
          "internalType": "address",
          "name": "newOwner",
          "type": "address"
        }
      ],
      "name": "transferOwnership",
      "outputs": [],
      "stateMutability": "nonpayable",
      "type": "function"
    },
    {
      "inputs": [
        {
          "internalType": "address",
          "name": "",
          "type": "address"
        }
      ],
      "name": "whitelistContracts",
      "outputs": [
        {
          "internalType": "bool",
          "name": "",
          "type": "bool"
        }
      ],
      "stateMutability": "view",
      "type": "function"
    }
  ],
  "bytecode": "0x608060405234801561001057600080fd5b5033600073ffffffffffffffffffffffffffffffffffffffff168173ffffffffffffffffffffffffffffffffffffffff16036100845760006040517f1e4fbdf700000000000000000000000000000000000000000000000000000000815260040161007b919061019e565b60405180910390fd5b6100938161009960201b60201c565b506101b9565b60008060009054906101000a900473ffffffffffffffffffffffffffffffffffffffff169050816000806101000a81548173ffffffffffffffffffffffffffffffffffffffff021916908373ffffffffffffffffffffffffffffffffffffffff1602179055508173ffffffffffffffffffffffffffffffffffffffff168173ffffffffffffffffffffffffffffffffffffffff167f8be0079c531659141344cd1fd0a4f28419497f9722a3daafe3b4186f6b6457e060405160405180910390a35050565b600073ffffffffffffffffffffffffffffffffffffffff82169050919050565b60006101888261015d565b9050919050565b6101988161017d565b82525050565b60006020820190506101b3600083018461018f565b92915050565b6105d5806101c86000396000f3fe608060405234801561001057600080fd5b506004361061007d5760003560e01c8063ae2ff6af1161005b578063ae2ff6af146100da578063af5a6c7e146100f6578063d56d5a7d14610126578063f2fde38b146101425761007d565b80633af32abf14610082578063715018a6146100b25780638da5cb5b146100bc575b600080fd5b61009c60048036038101906100979190610512565b61015e565b6040516100a9919061055a565b60405180910390f35b6100ba6101b4565b005b6100c46101c8565b6040516100d19190610584565b60405180910390f35b6100f460048036038101906100ef9190610512565b6101f1565b005b610110600480360381019061010b9190610512565b610254565b60405161011d919061055a565b60405180910390f35b610140600480360381019061013b9190610512565b610274565b005b61015c60048036038101906101579190610512565b6102d6565b005b6000600160008373ffffffffffffffffffffffffffffffffffffffff1673ffffffffffffffffffffffffffffffffffffffff16815260200190815260200160002060009054906101000a900460ff169050919050565b6101bc61035c565b6101c660006103e3565b565b60008060009054906101000a900473ffffffffffffffffffffffffffffffffffffffff16905090565b6101f961035c565b6000600160008373ffffffffffffffffffffffffffffffffffffffff1673ffffffffffffffffffffffffffffffffffffffff16815260200190815260200160002060006101000a81548160ff02191690831515021790555050565b60016020528060005260406000206000915054906101000a900460ff1681565b61027c61035c565b60018060008373ffffffffffffffffffffffffffffffffffffffff1673ffffffffffffffffffffffffffffffffffffffff16815260200190815260200160002060006101000a81548160ff02191690831515021790555050565b6102de61035c565b600073ffffffffffffffffffffffffffffffffffffffff168173ffffffffffffffffffffffffffffffffffffffff16036103505760006040517f1e4fbdf70000000000000000000000000000000000000000000000000000000081526004016103479190610584565b60405180910390fd5b610359816103e3565b50565b6103646104a7565b73ffffffffffffffffffffffffffffffffffffffff166103826101c8565b73ffffffffffffffffffffffffffffffffffffffff16146103e1576103a56104a7565b6040517f118cdaa70000000000000000000000000000000000000000000000000000000081526004016103d89190610584565b60405180910390fd5b565b60008060009054906101000a900473ffffffffffffffffffffffffffffffffffffffff169050816000806101000a81548173ffffffffffffffffffffffffffffffffffffffff021916908373ffffffffffffffffffffffffffffffffffffffff1602179055508173ffffffffffffffffffffffffffffffffffffffff168173ffffffffffffffffffffffffffffffffffffffff167f8be0079c531659141344cd1fd0a4f28419497f9722a3daafe3b4186f6b6457e060405160405180910390a35050565b600033905090565b600080fd5b600073ffffffffffffffffffffffffffffffffffffffff82169050919050565b60006104df826104b4565b9050919050565b6104ef816104d4565b81146104fa57600080fd5b50565b60008135905061050c816104e6565b92915050565b600060208284031215610528576105276104af565b5b6000610536848285016104fd565b91505092915050565b60008115159050919050565b6105548161053f565b82525050565b600060208201905061056f600083018461054b565b92915050565b61057e816104d4565b82525050565b60006020820190506105996000830184610575565b9291505056fea26469706673582212200741a4a99a7d5301c4331d7d2ed6947fd656f363a46f1c0c87468de86cf6350664736f6c63430008140033",
  "linkReferences": {},
  "deployedLinkReferences": {}
}