{
  "_format": "hh-sol-artifact-1",
  "contractName": "ChainlinkTokenEscrowService",
  "sourceName": "contracts/service/ChainlinkTokenEscrowService.sol",
  "abi": [
    {
      "inputs": [
        {
          "internalType": "address",
          "name": "router",
          "type": "address"
        },
        {
          "internalType": "address",
          "name": "link",
          "type": "address"
        },
        {
          "internalType": "address",
          "name": "claimNote",
          "type": "address"
        },
        {
          "internalType": "address",
          "name": "whitelist",
          "type": "address"
        }
      ],
      "stateMutability": "nonpayable",
      "type": "constructor"
    },
    {
      "inputs": [
        {
          "internalType": "address",
          "name": "router",
          "type": "address"
        }
      ],
      "name": "InvalidRouter",
      "type": "error"
    },
    {
      "inputs": [
        {
          "internalType": "address",
          "name": "owner",
          "type": "address"
        }
      ],
      "name": "OwnableInvalidOwner",
      "type": "error"
    },
    {
      "inputs": [
        {
          "internalType": "address",
          "name": "account",
          "type": "address"
        }
      ],
      "name": "OwnableUnauthorizedAccount",
      "type": "error"
    },
    {
      "anonymous": false,
      "inputs": [
        {
          "indexed": false,
          "internalType": "bytes32",
          "name": "messageId",
          "type": "bytes32"
        }
      ],
      "name": "MessageSent",
      "type": "event"
    },
    {
      "anonymous": false,
      "inputs": [
        {
          "indexed": true,
          "internalType": "address",
          "name": "previousOwner",
          "type": "address"
        },
        {
          "indexed": true,
          "internalType": "address",
          "name": "newOwner",
          "type": "address"
        }
      ],
      "name": "OwnershipTransferred",
      "type": "event"
    },
    {
      "inputs": [
        {
          "components": [
            {
              "internalType": "bytes32",
              "name": "messageId",
              "type": "bytes32"
            },
            {
              "internalType": "uint64",
              "name": "sourceChainSelector",
              "type": "uint64"
            },
            {
              "internalType": "bytes",
              "name": "sender",
              "type": "bytes"
            },
            {
              "internalType": "bytes",
              "name": "data",
              "type": "bytes"
            },
            {
              "components": [
                {
                  "internalType": "address",
                  "name": "token",
                  "type": "address"
                },
                {
                  "internalType": "uint256",
                  "name": "amount",
                  "type": "uint256"
                }
              ],
              "internalType": "struct Client.EVMTokenAmount[]",
              "name": "destTokenAmounts",
              "type": "tuple[]"
            }
          ],
          "internalType": "struct Client.Any2EVMMessage",
          "name": "message",
          "type": "tuple"
        }
      ],
      "name": "ccipReceive",
      "outputs": [],
      "stateMutability": "nonpayable",
      "type": "function"
    },
    {
      "inputs": [
        {
          "internalType": "address",
          "name": "",
          "type": "address"
        }
      ],
      "name": "depositedEth",
      "outputs": [
        {
          "internalType": "uint256",
          "name": "",
          "type": "uint256"
        }
      ],
      "stateMutability": "view",
      "type": "function"
    },
    {
      "inputs": [
        {
          "internalType": "address",
          "name": "operator",
          "type": "address"
        },
        {
          "internalType": "address",
          "name": "from",
          "type": "address"
        },
        {
          "internalType": "uint256",
          "name": "tokenId",
          "type": "uint256"
        },
        {
          "components": [
            {
              "internalType": "uint64",
              "name": "sourceChainSelector",
              "type": "uint64"
            },
            {
              "internalType": "enum ChainlinkTokenEscrowService.PayFeesIn",
              "name": "payFeesIn",
              "type": "uint8"
            }
          ],
          "internalType": "struct ChainlinkTokenEscrowService.CTESMessage",
          "name": "ctesMessage",
          "type": "tuple"
        },
        {
          "internalType": "bool",
          "name": "isClaim",
          "type": "bool"
        }
      ],
      "name": "getChainlinkMessage",
      "outputs": [
        {
          "components": [
            {
              "internalType": "bytes",
              "name": "receiver",
              "type": "bytes"
            },
            {
              "internalType": "bytes",
              "name": "data",
              "type": "bytes"
            },
            {
              "components": [
                {
                  "internalType": "address",
                  "name": "token",
                  "type": "address"
                },
                {
                  "internalType": "uint256",
                  "name": "amount",
                  "type": "uint256"
                }
              ],
              "internalType": "struct Client.EVMTokenAmount[]",
              "name": "tokenAmounts",
              "type": "tuple[]"
            },
            {
              "internalType": "address",
              "name": "feeToken",
              "type": "address"
            },
            {
              "internalType": "bytes",
              "name": "extraArgs",
              "type": "bytes"
            }
          ],
          "internalType": "struct Client.EVM2AnyMessage",
          "name": "",
          "type": "tuple"
        }
      ],
      "stateMutability": "view",
      "type": "function"
    },
    {
      "inputs": [
        {
          "internalType": "uint64",
          "name": "sourceChainSelector",
          "type": "uint64"
        },
        {
          "internalType": "enum ChainlinkTokenEscrowService.PayFeesIn",
          "name": "fees",
          "type": "uint8"
        }
      ],
      "name": "getEncoded",
      "outputs": [
        {
          "internalType": "bytes",
          "name": "",
          "type": "bytes"
        }
      ],
      "stateMutability": "pure",
      "type": "function"
    },
    {
      "inputs": [
        {
          "internalType": "address",
          "name": "operator",
          "type": "address"
        },
        {
          "internalType": "address",
          "name": "from",
          "type": "address"
        },
        {
          "internalType": "uint256",
          "name": "tokenId",
          "type": "uint256"
        },
        {
          "internalType": "bytes",
          "name": "data",
          "type": "bytes"
        }
      ],
      "name": "getFeeEstimate",
      "outputs": [
        {
          "internalType": "uint256",
          "name": "",
          "type": "uint256"
        }
      ],
      "stateMutability": "view",
      "type": "function"
    },
    {
      "inputs": [
        {
          "internalType": "address",
          "name": "from",
          "type": "address"
        },
        {
          "internalType": "uint256",
          "name": "tokenId",
          "type": "uint256"
        }
      ],
      "name": "getFeeEstimateForClaim",
      "outputs": [
        {
          "internalType": "uint256",
          "name": "",
          "type": "uint256"
        }
      ],
      "stateMutability": "view",
      "type": "function"
    },
    {
      "inputs": [],
      "name": "getRouter",
      "outputs": [
        {
          "internalType": "address",
          "name": "",
          "type": "address"
        }
      ],
      "stateMutability": "view",
      "type": "function"
    },
    {
      "inputs": [
        {
          "internalType": "address",
          "name": "",
          "type": "address"
        },
        {
          "internalType": "address",
          "name": "from",
          "type": "address"
        },
        {
          "internalType": "uint256",
          "name": "tokenId",
          "type": "uint256"
        },
        {
          "internalType": "bytes",
          "name": "data",
          "type": "bytes"
        }
      ],
      "name": "onERC721Received",
      "outputs": [
        {
          "internalType": "bytes4",
          "name": "",
          "type": "bytes4"
        }
      ],
      "stateMutability": "nonpayable",
      "type": "function"
    },
    {
      "inputs": [],
      "name": "owner",
      "outputs": [
        {
          "internalType": "address",
          "name": "",
          "type": "address"
        }
      ],
      "stateMutability": "view",
      "type": "function"
    },
    {
      "inputs": [],
      "name": "renounceOwnership",
      "outputs": [],
      "stateMutability": "nonpayable",
      "type": "function"
    },
    {
      "inputs": [
        {
          "internalType": "bytes4",
          "name": "interfaceId",
          "type": "bytes4"
        }
      ],
      "name": "supportsInterface",
      "outputs": [
        {
          "internalType": "bool",
          "name": "",
          "type": "bool"
        }
      ],
      "stateMutability": "pure",
      "type": "function"
    },
    {
      "inputs": [
        {
          "internalType": "address",
          "name": "newOwner",
          "type": "address"
        }
      ],
      "name": "transferOwnership",
      "outputs": [],
      "stateMutability": "nonpayable",
      "type": "function"
    },
    {
      "stateMutability": "payable",
      "type": "receive"
    }
  ],
  "bytecode": "0x6101006040523480156200001257600080fd5b5060405162002bb938038062002bb98339818101604052810190620000389190620003e7565b3384600073ffffffffffffffffffffffffffffffffffffffff168173ffffffffffffffffffffffffffffffffffffffff1603620000af5760006040517fd7f73334000000000000000000000000000000000000000000000000000000008152600401620000a691906200046a565b60405180910390fd5b8073ffffffffffffffffffffffffffffffffffffffff1660808173ffffffffffffffffffffffffffffffffffffffff168152505050600073ffffffffffffffffffffffffffffffffffffffff168173ffffffffffffffffffffffffffffffffffffffff1603620001595760006040517f1e4fbdf70000000000000000000000000000000000000000000000000000000081526004016200015091906200046a565b60405180910390fd5b6200016a81620002b960201b60201c565b508273ffffffffffffffffffffffffffffffffffffffff1660a08173ffffffffffffffffffffffffffffffffffffffff16815250508173ffffffffffffffffffffffffffffffffffffffff1660c08173ffffffffffffffffffffffffffffffffffffffff168152505060a05173ffffffffffffffffffffffffffffffffffffffff1663095ea7b36080517fffffffffffffffffffffffffffffffffffffffffffffffffffffffffffffffff6040518363ffffffff1660e01b815260040162000234929190620004a2565b6020604051808303816000875af115801562000254573d6000803e3d6000fd5b505050506040513d601f19601f820116820180604052508101906200027a91906200050c565b508073ffffffffffffffffffffffffffffffffffffffff1660e08173ffffffffffffffffffffffffffffffffffffffff1681525050505050506200053e565b60008060009054906101000a900473ffffffffffffffffffffffffffffffffffffffff169050816000806101000a81548173ffffffffffffffffffffffffffffffffffffffff021916908373ffffffffffffffffffffffffffffffffffffffff1602179055508173ffffffffffffffffffffffffffffffffffffffff168173ffffffffffffffffffffffffffffffffffffffff167f8be0079c531659141344cd1fd0a4f28419497f9722a3daafe3b4186f6b6457e060405160405180910390a35050565b600080fd5b600073ffffffffffffffffffffffffffffffffffffffff82169050919050565b6000620003af8262000382565b9050919050565b620003c181620003a2565b8114620003cd57600080fd5b50565b600081519050620003e181620003b6565b92915050565b600080600080608085870312156200040457620004036200037d565b5b60006200041487828801620003d0565b94505060206200042787828801620003d0565b93505060406200043a87828801620003d0565b92505060606200044d87828801620003d0565b91505092959194509250565b6200046481620003a2565b82525050565b600060208201905062000481600083018462000459565b92915050565b6000819050919050565b6200049c8162000487565b82525050565b6000604082019050620004b9600083018562000459565b620004c8602083018462000491565b9392505050565b60008115159050919050565b620004e681620004cf565b8114620004f257600080fd5b50565b6000815190506200050681620004db565b92915050565b6000602082840312156200052557620005246200037d565b5b60006200053584828501620004f5565b91505092915050565b60805160a05160c05160e051612609620005b06000396000610484015260008181610567015281816105cc01528181610e58015261122301526000610c4f015260008181610675015281816107970152818161095801528181610a1c01528181610aec0152610da301526126096000f3fe6080604052600436106100ab5760003560e01c80638da5cb5b116100645780638da5cb5b14610278578063b0f479a1146102a3578063d6719527146102ce578063f2fde38b1461030b578063f33a589d14610334578063f3b57fa2146103715761013f565b806301ffc9a714610144578063150b7a02146101815780631eb692d7146101be578063644fefd0146101fb578063715018a61461023857806385572ffb1461024f5761013f565b3661013f5734600160003373ffffffffffffffffffffffffffffffffffffffff1673ffffffffffffffffffffffffffffffffffffffff168152602001908152602001600020546100fb919061137a565b600160003373ffffffffffffffffffffffffffffffffffffffff1673ffffffffffffffffffffffffffffffffffffffff168152602001908152602001600020819055005b600080fd5b34801561015057600080fd5b5061016b6004803603810190610166919061141a565b6103ae565b6040516101789190611462565b60405180910390f35b34801561018d57600080fd5b506101a860048036038101906101a3919061164d565b610480565b6040516101b591906116df565b60405180910390f35b3480156101ca57600080fd5b506101e560048036038101906101e091906116fa565b610911565b6040516101f29190611736565b60405180910390f35b34801561020757600080fd5b50610222600480360381019061021d919061164d565b610929565b60405161022f9190611736565b60405180910390f35b34801561024457600080fd5b5061024d610a06565b005b34801561025b57600080fd5b5061027660048036038101906102719190611775565b610a1a565b005b34801561028457600080fd5b5061028d610abf565b60405161029a91906117cd565b60405180910390f35b3480156102af57600080fd5b506102b8610ae8565b6040516102c591906117cd565b60405180910390f35b3480156102da57600080fd5b506102f560048036038101906102f091906118d3565b610b10565b6040516103029190611b54565b60405180910390f35b34801561031757600080fd5b50610332600480360381019061032d91906116fa565b610cac565b005b34801561034057600080fd5b5061035b60048036038101906103569190611b76565b610d32565b6040516103689190611c00565b60405180910390f35b34801561037d57600080fd5b5061039860048036038101906103939190611c22565b610d8c565b6040516103a59190611736565b60405180910390f35b60007f85572ffb000000000000000000000000000000000000000000000000000000007bffffffffffffffffffffffffffffffffffffffffffffffffffffffff1916827bffffffffffffffffffffffffffffffffffffffffffffffffffffffff1916148061047957507f01ffc9a7000000000000000000000000000000000000000000000000000000007bffffffffffffffffffffffffffffffffffffffffffffffffffffffff1916827bffffffffffffffffffffffffffffffffffffffffffffffffffffffff1916145b9050919050565b60007f000000000000000000000000000000000000000000000000000000000000000073ffffffffffffffffffffffffffffffffffffffff16633af32abf336040518263ffffffff1660e01b81526004016104db91906117cd565b602060405180830381865afa1580156104f8573d6000803e3d6000fd5b505050506040513d601f19601f8201168201806040525081019061051c9190611c77565b61055b576040517f08c379a000000000000000000000000000000000000000000000000000000000815260040161055290611d01565b60405180910390fd5b6105636112cc565b60007f000000000000000000000000000000000000000000000000000000000000000073ffffffffffffffffffffffffffffffffffffffff163373ffffffffffffffffffffffffffffffffffffffff160361065c576105c28686610e4b565b80925081935050507f000000000000000000000000000000000000000000000000000000000000000073ffffffffffffffffffffffffffffffffffffffff1663aad3ec9687876040518363ffffffff1660e01b8152600401610625929190611d21565b600060405180830381600087803b15801561063f57600080fd5b505af1158015610653573d6000803e3d6000fd5b50505050610671565b61066833878787610fa1565b80925081935050505b60007f000000000000000000000000000000000000000000000000000000000000000073ffffffffffffffffffffffffffffffffffffffff166320487ded83856040518363ffffffff1660e01b81526004016106ce929190611d59565b602060405180830381865afa1580156106eb573d6000803e3d6000fd5b505050506040513d601f19601f8201168201806040525081019061070f9190611d9e565b905080600160008973ffffffffffffffffffffffffffffffffffffffff1673ffffffffffffffffffffffffffffffffffffffff168152602001908152602001600020541015610793576040517f08c379a000000000000000000000000000000000000000000000000000000000815260040161078a90611e17565b60405180910390fd5b60007f000000000000000000000000000000000000000000000000000000000000000073ffffffffffffffffffffffffffffffffffffffff166396f4e9f98385876040518463ffffffff1660e01b81526004016107f1929190611d59565b60206040518083038185885af115801561080f573d6000803e3d6000fd5b50505050506040513d601f19601f820116820180604052508101906108349190611e6d565b90507f54791b38f3859327992a1ca0590ad3c0f08feba98d1a4f56ab0dca74d203392a816040516108659190611ea9565b60405180910390a181600160008a73ffffffffffffffffffffffffffffffffffffffff1673ffffffffffffffffffffffffffffffffffffffff168152602001908152602001600020546108b89190611ec4565b600160008a73ffffffffffffffffffffffffffffffffffffffff1673ffffffffffffffffffffffffffffffffffffffff1681526020019081526020016000208190555063150b7a0260e01b945050505050949350505050565b60016020528060005260406000206000915090505481565b600080828060200190518101906109409190611f72565b90506000610952878787856000610b10565b905060007f000000000000000000000000000000000000000000000000000000000000000073ffffffffffffffffffffffffffffffffffffffff166320487ded8460000151846040518363ffffffff1660e01b81526004016109b5929190611d59565b602060405180830381865afa1580156109d2573d6000803e3d6000fd5b505050506040513d601f19601f820116820180604052508101906109f69190611d9e565b9050809350505050949350505050565b610a0e611027565b610a1860006110ae565b565b7f000000000000000000000000000000000000000000000000000000000000000073ffffffffffffffffffffffffffffffffffffffff163373ffffffffffffffffffffffffffffffffffffffff1614610aaa57336040517fd7f73334000000000000000000000000000000000000000000000000000000008152600401610aa191906117cd565b60405180910390fd5b610abc81610ab7906121ac565b611172565b50565b60008060009054906101000a900473ffffffffffffffffffffffffffffffffffffffff16905090565b60007f0000000000000000000000000000000000000000000000000000000000000000905090565b610b186112cc565b60006040518060a0016040528087604051602001610b3691906117cd565b604051602081830303815290604052815260200160405180608001604052808a73ffffffffffffffffffffffffffffffffffffffff1681526020018881526020018973ffffffffffffffffffffffffffffffffffffffff168152602001861515815250604051602001610ba99190612223565b6040516020818303038152906040528152602001600067ffffffffffffffff811115610bd857610bd7611522565b5b604051908082528060200260200182016040528015610c1157816020015b610bfe611311565b815260200190600190039081610bf65790505b508152602001600180811115610c2a57610c2961223e565b5b86602001516001811115610c4157610c4061223e565b5b14610c4d576000610c6f565b7f00000000000000000000000000000000000000000000000000000000000000005b73ffffffffffffffffffffffffffffffffffffffff1681526020016040518060200160405280600081525081525090508091505095945050505050565b610cb4611027565b600073ffffffffffffffffffffffffffffffffffffffff168173ffffffffffffffffffffffffffffffffffffffff1603610d265760006040517f1e4fbdf7000000000000000000000000000000000000000000000000000000008152600401610d1d91906117cd565b60405180910390fd5b610d2f816110ae565b50565b606060405180604001604052808467ffffffffffffffff168152602001836001811115610d6257610d6161223e565b5b815250604051602001610d7591906122f3565b604051602081830303815290604052905092915050565b6000806000610d9b8585610e4b565b9150915060007f000000000000000000000000000000000000000000000000000000000000000073ffffffffffffffffffffffffffffffffffffffff166320487ded83856040518363ffffffff1660e01b8152600401610dfc929190611d59565b602060405180830381865afa158015610e19573d6000803e3d6000fd5b505050506040513d601f19601f82011682018060405250810190610e3d9190611d9e565b905080935050505092915050565b610e536112cc565b6000807f000000000000000000000000000000000000000000000000000000000000000073ffffffffffffffffffffffffffffffffffffffff1663ede32055856040518263ffffffff1660e01b8152600401610eaf9190611736565b606060405180830381865afa158015610ecc573d6000803e3d6000fd5b505050506040513d601f19601f82011682018060405250810190610ef09190612387565b90506000816000015167ffffffffffffffff1611610f43576040517f08c379a0000000000000000000000000000000000000000000000000000000008152600401610f3a90612400565b60405180910390fd5b80600001519150600060405180604001604052808467ffffffffffffffff16815260200160006001811115610f7b57610f7a61223e565b5b8152509050610f968260200151878460400151846001610b10565b935050509250929050565b610fa96112cc565b600080835111610fee576040517f08c379a0000000000000000000000000000000000000000000000000000000008152600401610fe590612492565b60405180910390fd5b6000838060200190518101906110049190611f72565b9050611014878787846000610b10565b9250806000015191505094509492505050565b61102f6112c4565b73ffffffffffffffffffffffffffffffffffffffff1661104d610abf565b73ffffffffffffffffffffffffffffffffffffffff16146110ac576110706112c4565b6040517f118cdaa70000000000000000000000000000000000000000000000000000000081526004016110a391906117cd565b60405180910390fd5b565b60008060009054906101000a900473ffffffffffffffffffffffffffffffffffffffff169050816000806101000a81548173ffffffffffffffffffffffffffffffffffffffff021916908373ffffffffffffffffffffffffffffffffffffffff1602179055508173ffffffffffffffffffffffffffffffffffffffff168173ffffffffffffffffffffffffffffffffffffffff167f8be0079c531659141344cd1fd0a4f28419497f9722a3daafe3b4186f6b6457e060405160405180910390a35050565b60008160200151905060008260600151806020019051810190611195919061252a565b905080606001511561122157806000015173ffffffffffffffffffffffffffffffffffffffff166342842e0e30836040015184602001516040518463ffffffff1660e01b81526004016111ea93929190612557565b600060405180830381600087803b15801561120457600080fd5b505af1158015611218573d6000803e3d6000fd5b505050506112bf565b7f000000000000000000000000000000000000000000000000000000000000000073ffffffffffffffffffffffffffffffffffffffff1663bb241e80826040015184846000015185602001516040518563ffffffff1660e01b815260040161128c949392919061258e565b600060405180830381600087803b1580156112a657600080fd5b505af11580156112ba573d6000803e3d6000fd5b505050505b505050565b600033905090565b6040518060a00160405280606081526020016060815260200160608152602001600073ffffffffffffffffffffffffffffffffffffffff168152602001606081525090565b6040518060400160405280600073ffffffffffffffffffffffffffffffffffffffff168152602001600081525090565b6000819050919050565b7f4e487b7100000000000000000000000000000000000000000000000000000000600052601160045260246000fd5b600061138582611341565b915061139083611341565b92508282019050808211156113a8576113a761134b565b5b92915050565b6000604051905090565b600080fd5b600080fd5b60007fffffffff0000000000000000000000000000000000000000000000000000000082169050919050565b6113f7816113c2565b811461140257600080fd5b50565b600081359050611414816113ee565b92915050565b6000602082840312156114305761142f6113b8565b5b600061143e84828501611405565b91505092915050565b60008115159050919050565b61145c81611447565b82525050565b60006020820190506114776000830184611453565b92915050565b600073ffffffffffffffffffffffffffffffffffffffff82169050919050565b60006114a88261147d565b9050919050565b6114b88161149d565b81146114c357600080fd5b50565b6000813590506114d5816114af565b92915050565b6114e481611341565b81146114ef57600080fd5b50565b600081359050611501816114db565b92915050565b600080fd5b600080fd5b6000601f19601f8301169050919050565b7f4e487b7100000000000000000000000000000000000000000000000000000000600052604160045260246000fd5b61155a82611511565b810181811067ffffffffffffffff8211171561157957611578611522565b5b80604052505050565b600061158c6113ae565b90506115988282611551565b919050565b600067ffffffffffffffff8211156115b8576115b7611522565b5b6115c182611511565b9050602081019050919050565b82818337600083830152505050565b60006115f06115eb8461159d565b611582565b90508281526020810184848401111561160c5761160b61150c565b5b6116178482856115ce565b509392505050565b600082601f83011261163457611633611507565b5b81356116448482602086016115dd565b91505092915050565b60008060008060808587031215611667576116666113b8565b5b6000611675878288016114c6565b9450506020611686878288016114c6565b9350506040611697878288016114f2565b925050606085013567ffffffffffffffff8111156116b8576116b76113bd565b5b6116c48782880161161f565b91505092959194509250565b6116d9816113c2565b82525050565b60006020820190506116f460008301846116d0565b92915050565b6000602082840312156117105761170f6113b8565b5b600061171e848285016114c6565b91505092915050565b61173081611341565b82525050565b600060208201905061174b6000830184611727565b92915050565b600080fd5b600060a0828403121561176c5761176b611751565b5b81905092915050565b60006020828403121561178b5761178a6113b8565b5b600082013567ffffffffffffffff8111156117a9576117a86113bd565b5b6117b584828501611756565b91505092915050565b6117c78161149d565b82525050565b60006020820190506117e260008301846117be565b92915050565b600080fd5b600080fd5b600067ffffffffffffffff82169050919050565b61180f816117f2565b811461181a57600080fd5b50565b60008135905061182c81611806565b92915050565b6002811061183f57600080fd5b50565b60008135905061185181611832565b92915050565b60006040828403121561186d5761186c6117e8565b5b6118776040611582565b905060006118878482850161181d565b600083015250602061189b84828501611842565b60208301525092915050565b6118b081611447565b81146118bb57600080fd5b50565b6000813590506118cd816118a7565b92915050565b600080600080600060c086880312156118ef576118ee6113b8565b5b60006118fd888289016114c6565b955050602061190e888289016114c6565b945050604061191f888289016114f2565b935050606061193088828901611857565b92505060a0611941888289016118be565b9150509295509295909350565b600081519050919050565b600082825260208201905092915050565b60005b8381101561198857808201518184015260208101905061196d565b60008484015250505050565b600061199f8261194e565b6119a98185611959565b93506119b981856020860161196a565b6119c281611511565b840191505092915050565b600081519050919050565b600082825260208201905092915050565b6000819050602082019050919050565b611a028161149d565b82525050565b611a1181611341565b82525050565b604082016000820151611a2d60008501826119f9565b506020820151611a406020850182611a08565b50505050565b6000611a528383611a17565b60408301905092915050565b6000602082019050919050565b6000611a76826119cd565b611a8081856119d8565b9350611a8b836119e9565b8060005b83811015611abc578151611aa38882611a46565b9750611aae83611a5e565b925050600181019050611a8f565b5085935050505092915050565b600060a0830160008301518482036000860152611ae68282611994565b91505060208301518482036020860152611b008282611994565b91505060408301518482036040860152611b1a8282611a6b565b9150506060830151611b2f60608601826119f9565b5060808301518482036080860152611b478282611994565b9150508091505092915050565b60006020820190508181036000830152611b6e8184611ac9565b905092915050565b60008060408385031215611b8d57611b8c6113b8565b5b6000611b9b8582860161181d565b9250506020611bac85828601611842565b9150509250929050565b600082825260208201905092915050565b6000611bd28261194e565b611bdc8185611bb6565b9350611bec81856020860161196a565b611bf581611511565b840191505092915050565b60006020820190508181036000830152611c1a8184611bc7565b905092915050565b60008060408385031215611c3957611c386113b8565b5b6000611c47858286016114c6565b9250506020611c58858286016114f2565b9150509250929050565b600081519050611c71816118a7565b92915050565b600060208284031215611c8d57611c8c6113b8565b5b6000611c9b84828501611c62565b91505092915050565b600082825260208201905092915050565b7f6661696c65642c206e6f742070617274206f662077686974656c697374000000600082015250565b6000611ceb601d83611ca4565b9150611cf682611cb5565b602082019050919050565b60006020820190508181036000830152611d1a81611cde565b9050919050565b6000604082019050611d3660008301856117be565b611d436020830184611727565b9392505050565b611d53816117f2565b82525050565b6000604082019050611d6e6000830185611d4a565b8181036020830152611d808184611ac9565b90509392505050565b600081519050611d98816114db565b92915050565b600060208284031215611db457611db36113b8565b5b6000611dc284828501611d89565b91505092915050565b7f496e73756666696369656e74206465706f736974000000000000000000000000600082015250565b6000611e01601483611ca4565b9150611e0c82611dcb565b602082019050919050565b60006020820190508181036000830152611e3081611df4565b9050919050565b6000819050919050565b611e4a81611e37565b8114611e5557600080fd5b50565b600081519050611e6781611e41565b92915050565b600060208284031215611e8357611e826113b8565b5b6000611e9184828501611e58565b91505092915050565b611ea381611e37565b82525050565b6000602082019050611ebe6000830184611e9a565b92915050565b6000611ecf82611341565b9150611eda83611341565b9250828203905081811115611ef257611ef161134b565b5b92915050565b600081519050611f0781611806565b92915050565b600081519050611f1c81611832565b92915050565b600060408284031215611f3857611f376117e8565b5b611f426040611582565b90506000611f5284828501611ef8565b6000830152506020611f6684828501611f0d565b60208301525092915050565b600060408284031215611f8857611f876113b8565b5b6000611f9684828501611f22565b91505092915050565b600081359050611fae81611e41565b92915050565b600067ffffffffffffffff821115611fcf57611fce611522565b5b602082029050602081019050919050565b600080fd5b600060408284031215611ffb57611ffa6117e8565b5b6120056040611582565b90506000612015848285016114c6565b6000830152506020612029848285016114f2565b60208301525092915050565b600061204861204384611fb4565b611582565b9050808382526020820190506040840283018581111561206b5761206a611fe0565b5b835b8181101561209457806120808882611fe5565b84526020840193505060408101905061206d565b5050509392505050565b600082601f8301126120b3576120b2611507565b5b81356120c3848260208601612035565b91505092915050565b600060a082840312156120e2576120e16117e8565b5b6120ec60a0611582565b905060006120fc84828501611f9f565b60008301525060206121108482850161181d565b602083015250604082013567ffffffffffffffff811115612134576121336117ed565b5b6121408482850161161f565b604083015250606082013567ffffffffffffffff811115612164576121636117ed565b5b6121708482850161161f565b606083015250608082013567ffffffffffffffff811115612194576121936117ed565b5b6121a08482850161209e565b60808301525092915050565b60006121b836836120cc565b9050919050565b6121c881611447565b82525050565b6080820160008201516121e460008501826119f9565b5060208201516121f76020850182611a08565b50604082015161220a60408501826119f9565b50606082015161221d60608501826121bf565b50505050565b600060808201905061223860008301846121ce565b92915050565b7f4e487b7100000000000000000000000000000000000000000000000000000000600052602160045260246000fd5b612276816117f2565b82525050565b6002811061228d5761228c61223e565b5b50565b600081905061229e8261227c565b919050565b60006122ae82612290565b9050919050565b6122be816122a3565b82525050565b6040820160008201516122da600085018261226d565b5060208201516122ed60208501826122b5565b50505050565b600060408201905061230860008301846122c4565b92915050565b60008151905061231d816114af565b92915050565b600060608284031215612339576123386117e8565b5b6123436060611582565b9050600061235384828501611ef8565b60008301525060206123678482850161230e565b602083015250604061237b84828501611d89565b60408301525092915050565b60006060828403121561239d5761239c6113b8565b5b60006123ab84828501612323565b91505092915050565b7f746f6b656e206e6f7420666f756e640000000000000000000000000000000000600082015250565b60006123ea600f83611ca4565b91506123f5826123b4565b602082019050919050565b60006020820190508181036000830152612419816123dd565b9050919050565b7f496e76616c69642064617461202d20657363726f77206e65656473204354455360008201527f4d65737361676520617320646174610000000000000000000000000000000000602082015250565b600061247c602f83611ca4565b915061248782612420565b604082019050919050565b600060208201905081810360008301526124ab8161246f565b9050919050565b6000608082840312156124c8576124c76117e8565b5b6124d26080611582565b905060006124e28482850161230e565b60008301525060206124f684828501611d89565b602083015250604061250a8482850161230e565b604083015250606061251e84828501611c62565b60608301525092915050565b6000608082840312156125405761253f6113b8565b5b600061254e848285016124b2565b91505092915050565b600060608201905061256c60008301866117be565b61257960208301856117be565b6125866040830184611727565b949350505050565b60006080820190506125a360008301876117be565b6125b06020830186611d4a565b6125bd60408301856117be565b6125ca6060830184611727565b9594505050505056fea2646970667358221220c5fedae7cbfd69fd9672e4829383f84a6b82f41344314f29123cf65b1141a9fd64736f6c63430008140033",
  "linkReferences": {},
  "deployedLinkReferences": {}
}